{
  "_format": "hh-sol-artifact-1",
  "contractName": "AuthControllerV2",
  "sourceName": "contracts/auth/AuthControllerV2.sol",
  "abi": [
    {
      "inputs": [
        {
          "internalType": "address",
          "name": "_auth",
          "type": "address"
        }
      ],
      "stateMutability": "nonpayable",
      "type": "constructor"
    },
    {
      "anonymous": false,
      "inputs": [
        {
          "indexed": false,
          "internalType": "address",
          "name": "",
          "type": "address"
        }
      ],
      "name": "AddedToWhiteList",
      "type": "event"
    },
    {
      "anonymous": false,
      "inputs": [
        {
          "indexed": true,
          "internalType": "uint256",
          "name": "orderId",
          "type": "uint256"
        },
        {
          "indexed": true,
          "internalType": "address",
          "name": "saddress",
          "type": "address"
        },
        {
          "indexed": true,
          "internalType": "address",
          "name": "caddress",
          "type": "address"
        },
        {
          "indexed": false,
          "internalType": "uint256",
          "name": "authTime",
          "type": "uint256"
        },
        {
          "indexed": false,
          "internalType": "uint256",
          "name": "authExpiry",
          "type": "uint256"
        }
      ],
      "name": "Authentication",
      "type": "event"
    },
    {
      "anonymous": false,
      "inputs": [
        {
          "indexed": true,
          "internalType": "uint256",
          "name": "orderId",
          "type": "uint256"
        },
        {
          "indexed": false,
          "internalType": "uint256",
          "name": "authExpiry",
          "type": "uint256"
        }
      ],
      "name": "AuthsProcessed",
      "type": "event"
    },
    {
      "anonymous": false,
      "inputs": [
        {
          "indexed": true,
          "internalType": "address",
          "name": "previousOwner",
          "type": "address"
        },
        {
          "indexed": true,
          "internalType": "address",
          "name": "newOwner",
          "type": "address"
        }
      ],
      "name": "OwnershipTransferred",
      "type": "event"
    },
    {
      "anonymous": false,
      "inputs": [
        {
          "indexed": false,
          "internalType": "address",
          "name": "",
          "type": "address"
        }
      ],
      "name": "RemovedFromWhiteList",
      "type": "event"
    },
    {
      "inputs": [],
      "name": "AUTH_TYPEHASH",
      "outputs": [
        {
          "internalType": "bytes32",
          "name": "",
          "type": "bytes32"
        }
      ],
      "stateMutability": "view",
      "type": "function"
    },
    {
      "inputs": [
        {
          "internalType": "address[]",
          "name": "_addresses",
          "type": "address[]"
        }
      ],
      "name": "addToWhitelist",
      "outputs": [],
      "stateMutability": "nonpayable",
      "type": "function"
    },
    {
      "inputs": [
        {
          "internalType": "address",
          "name": "",
          "type": "address"
        },
        {
          "internalType": "address",
          "name": "",
          "type": "address"
        }
      ],
      "name": "address_authExpiry",
      "outputs": [
        {
          "internalType": "uint256",
          "name": "",
          "type": "uint256"
        }
      ],
      "stateMutability": "view",
      "type": "function"
    },
    {
      "inputs": [
        {
          "internalType": "address",
          "name": "",
          "type": "address"
        }
      ],
      "name": "address_idHash",
      "outputs": [
        {
          "internalType": "bytes16",
          "name": "",
          "type": "bytes16"
        }
      ],
      "stateMutability": "view",
      "type": "function"
    },
    {
      "inputs": [
        {
          "components": [
            {
              "internalType": "uint256",
              "name": "authExpiry",
              "type": "uint256"
            },
            {
              "internalType": "bytes16",
              "name": "idHash",
              "type": "bytes16"
            }
          ],
          "internalType": "struct AuthControllerV2.AuthData",
          "name": "auth",
          "type": "tuple"
        },
        {
          "internalType": "uint256",
          "name": "orderId",
          "type": "uint256"
        },
        {
          "internalType": "bytes",
          "name": "signature",
          "type": "bytes"
        },
        {
          "internalType": "address",
          "name": "caddress",
          "type": "address"
        }
      ],
      "name": "authentication",
      "outputs": [],
      "stateMutability": "nonpayable",
      "type": "function"
    },
    {
      "inputs": [
        {
          "internalType": "address",
          "name": "",
          "type": "address"
        }
      ],
      "name": "auths",
      "outputs": [
        {
          "internalType": "uint256",
          "name": "",
          "type": "uint256"
        }
      ],
      "stateMutability": "view",
      "type": "function"
    },
    {
      "inputs": [
        {
          "internalType": "address",
          "name": "addr",
          "type": "address"
        }
      ],
      "name": "authsSingle",
      "outputs": [
        {
          "internalType": "bool",
          "name": "isAuth",
          "type": "bool"
        }
      ],
      "stateMutability": "view",
      "type": "function"
    },
    {
      "inputs": [],
      "name": "getWhitelist",
      "outputs": [
        {
          "internalType": "address[]",
          "name": "list",
          "type": "address[]"
        }
      ],
      "stateMutability": "view",
      "type": "function"
    },
    {
      "inputs": [
        {
          "internalType": "uint256",
          "name": "",
          "type": "uint256"
        }
      ],
      "name": "orders",
      "outputs": [
        {
          "internalType": "bool",
          "name": "",
          "type": "bool"
        }
      ],
      "stateMutability": "view",
      "type": "function"
    },
    {
      "inputs": [],
      "name": "owner",
      "outputs": [
        {
          "internalType": "address",
          "name": "",
          "type": "address"
        }
      ],
      "stateMutability": "view",
      "type": "function"
    },
    {
      "inputs": [
        {
          "internalType": "address[]",
          "name": "_addresses",
          "type": "address[]"
        }
      ],
      "name": "removeFromWhitelist",
      "outputs": [],
      "stateMutability": "nonpayable",
      "type": "function"
    },
    {
      "inputs": [],
      "name": "renounceOwnership",
      "outputs": [],
      "stateMutability": "nonpayable",
      "type": "function"
    },
    {
      "inputs": [
        {
          "internalType": "address",
          "name": "newOwner",
          "type": "address"
        }
      ],
      "name": "transferOwnership",
      "outputs": [],
      "stateMutability": "nonpayable",
      "type": "function"
    },
    {
      "inputs": [
        {
          "internalType": "address",
          "name": "_address",
          "type": "address"
        }
      ],
      "name": "whitelisted",
      "outputs": [
        {
          "internalType": "bool",
          "name": "",
          "type": "bool"
        }
      ],
      "stateMutability": "view",
      "type": "function"
    }
  ],
  "bytecode": "0x60806040523480156200001157600080fd5b5060405162001a0338038062001a038339810160408190526200003491620002d2565b6000620000406200015a565b603580546001600160a01b0319166001600160a01b038316908117909155604051919250906000907f8be0079c531659141344cd1fd0a4f28419497f9722a3daafe3b4186f6b6457e0908290a350620000df6040518060400160405280600e81526020016d20baba3432b73a34b1b0ba34b7b760911b815250604051806040016040528060018152602001601960f91b8152506200015e60201b60201c565b620000fa3360366200022760201b62000b681790919060201c565b507f8a3be376fdc726be3f3cee8e59ba5698a268a9b59f69cdabcf06d2ec2c90658f336040516200012c919062000302565b60405180910390a1603880546001600160a01b0319166001600160a01b039290921691909117905562000316565b3390565b600054610100900460ff16806200017a57506200017a62000247565b8062000189575060005460ff16155b620001c65760405162461bcd60e51b815260040180806020018281038252602e815260200180620019d5602e913960400191505060405180910390fd5b600054610100900460ff16158015620001f2576000805460ff1961ff0019909116610100171660011790555b8251602080850191909120835191840191909120600191909155600255801562000222576000805461ff00191690555b505050565b60006200023e836001600160a01b03841662000265565b90505b92915050565b60006200025f30620002b460201b62000b841760201c565b15905090565b6000620002738383620002ba565b620002ab5750815460018181018455600084815260208082209093018490558454848252828601909352604090209190915562000241565b50600062000241565b3b151590565b60009081526001919091016020526040902054151590565b600060208284031215620002e4578081fd5b81516001600160a01b0381168114620002fb578182fd5b9392505050565b6001600160a01b0391909116815260200190565b6116af80620003266000396000f3fe608060405234801561001057600080fd5b50600436106100ea5760003560e01c80638dccdf951161008c578063d01f63f511610066578063d01f63f5146101cb578063d370f3f4146101e0578063d936547e146101f3578063f2fde38b14610206576100ea565b80638dccdf9514610185578063a5b2f61114610198578063a85c38ef146101b8576100ea565b806364e72dbd116100c857806364e72dbd14610142578063715018a6146101555780637f6497831461015d5780638da5cb5b14610170576100ea565b80635110ee86146100ef578063548db1741461010d5780635caf866714610122575b600080fd5b6100f7610219565b604051610104919061136d565b60405180910390f35b61012061011b36600461117d565b61023d565b005b610135610130366004611131565b610376565b604051610104919061134d565b6100f7610150366004611131565b61046e565b610120610480565b61012061016b36600461117d565b61052c565b610178610658565b60405161010491906112ec565b6100f761019336600461114b565b610667565b6101ab6101a6366004611131565b610684565b6040516101049190611358565b6101356101c63660046112d4565b610699565b6101d36106ae565b6040516101049190611300565b6101206101ee366004611234565b610749565b610135610201366004611131565b610a52565b610120610214366004611131565b610a65565b7fe44ddc36ea9b42f531015045f3dcffda630c39effc084a896fa716b13276515681565b610245610b8a565b6001600160a01b0316610256610658565b6001600160a01b03161461029f576040805162461bcd60e51b8152602060048201819052602482015260008051602061165a833981519152604482015290519081900360640190fd5b60005b818110156103715760008383838181106102b857fe5b90506020020160208101906102cd9190611131565b90506001600160a01b0381166102fe5760405162461bcd60e51b81526004016102f5906114c7565b60405180910390fd5b610309603682610b8e565b6103255760405162461bcd60e51b81526004016102f590611592565b610330603682610ba3565b507f9354cd337eebad48c93d70f7321b188732c3061fa5c48fe32b8e6f9480c52fcc8160405161036091906112ec565b60405180910390a1506001016102a2565b505050565b600061038a826001600160a01b0316610b84565b806103a457506002600160a01b036001600160a01b038316145b156103b157506001610469565b6001600160a01b0382166000908152603c60205260409020548015806103d657508042115b1561046257603854604051635caf866760e01b81526001600160a01b0390911690635caf86679061040b9086906004016112ec565b60206040518083038186803b15801561042357600080fd5b505afa158015610437573d6000803e3d6000fd5b505050506040513d601f19601f8201168201806040525081019061045b91906111ec565b9150610467565b600191505b505b919050565b603c6020526000908152604090205481565b610488610b8a565b6001600160a01b0316610499610658565b6001600160a01b0316146104e2576040805162461bcd60e51b8152602060048201819052602482015260008051602061165a833981519152604482015290519081900360640190fd5b6035546040516000916001600160a01b0316907f8be0079c531659141344cd1fd0a4f28419497f9722a3daafe3b4186f6b6457e0908390a3603580546001600160a01b0319169055565b610534610b8a565b6001600160a01b0316610545610658565b6001600160a01b03161461058e576040805162461bcd60e51b8152602060048201819052602482015260008051602061165a833981519152604482015290519081900360640190fd5b60005b818110156103715760008383838181106105a757fe5b90506020020160208101906105bc9190611131565b90506001600160a01b0381166105e45760405162461bcd60e51b81526004016102f5906114c7565b6105ef603682610b8e565b1561060c5760405162461bcd60e51b81526004016102f59061143d565b610617603682610b68565b507f8a3be376fdc726be3f3cee8e59ba5698a268a9b59f69cdabcf06d2ec2c90658f8160405161064791906112ec565b60405180910390a150600101610591565b6035546001600160a01b031690565b603a60209081526000928352604080842090915290825290205481565b603b6020526000908152604090205460801b81565b60396020526000908152604090205460ff1681565b606060006106bc6036610bb8565b90508067ffffffffffffffff811180156106d557600080fd5b506040519080825280602002602001820160405280156106ff578160200160208202803683370190505b50915060005b8181101561074457610718603682610bc3565b83828151811061072457fe5b6001600160a01b0390921660209283029190910190910152600101610705565b505090565b610754603633610b8e565b6107705760405162461bcd60e51b81526004016102f59061155b565b60008481526039602052604090205460ff161561079f5760405162461bcd60e51b81526004016102f5906114ed565b843542106107bf5760405162461bcd60e51b81526004016102f5906113f7565b4263bbf81e0001853511156107e65760405162461bcd60e51b81526004016102f59061146a565b336001600160a01b038216146108645760007fe44ddc36ea9b42f531015045f3dcffda630c39effc084a896fa716b132765156610829604088016020890161120c565b868460405160200161083e9493929190611376565b60405160208183030381529060405280519060200120905061086282828686610bcf565b505b6001600160a01b0381166000908152603b6020908152604080832054603a83528184203385529092529091205460809190911b906001600160801b03198216156108ef576001600160801b031982166108c36040890160208a0161120c565b6001600160801b031916146108ea5760405162461bcd60e51b81526004016102f590611524565b610930565b6108ff604088016020890161120c565b6001600160a01b0384166000908152603b6020526040902080546001600160801b03191660809290921c9190911790555b6001600160a01b0383166000908152603c6020526040902054811415610971576001600160a01b0383166000908152603c60205260409020873590556109cf565b6001600160a01b0383166000908152603c6020526040902054873511156109cf57857f375956450c6cbed6d4689752d2005ae43bd77824bbef5875b266350513ee73aa88600001356040516109c6919061136d565b60405180910390a25b6001600160a01b0383166000818152603a60209081526040808320338085529083528184208c35908190558b8552603990935292819020805460ff191660011790555189917f73cb46fc55a371b9c0e537b6ec28e2dd847bf88ef7206bfacb36aa154c01dd6991610a419142916115bf565b60405180910390a450505050505050565b6000610a5f603683610b8e565b92915050565b610a6d610b8a565b6001600160a01b0316610a7e610658565b6001600160a01b031614610ac7576040805162461bcd60e51b8152602060048201819052602482015260008051602061165a833981519152604482015290519081900360640190fd5b6001600160a01b038116610b0c5760405162461bcd60e51b81526004018080602001828103825260268152602001806115f06026913960400191505060405180910390fd5b6035546040516001600160a01b038084169216907f8be0079c531659141344cd1fd0a4f28419497f9722a3daafe3b4186f6b6457e090600090a3603580546001600160a01b0319166001600160a01b0392909216919091179055565b6000610b7d836001600160a01b038416610c8e565b9392505050565b3b151590565b3390565b6000610b7d836001600160a01b038416610cd8565b6000610b7d836001600160a01b038416610cf0565b6000610a5f82610db6565b6000610b7d8383610dba565b6000610bda84610e1e565b9050846001600160a01b0316610c2884848080601f0160208091040260200160405190810160405280939291908181526020018383808284376000920191909152508693925050610e6a9050565b6001600160a01b0316146040518060400160405280601c81526020017f7369676e617475726520766572696669636174696f6e206572726f720000000081525090610c865760405162461bcd60e51b81526004016102f591906113a4565b505050505050565b6000610c9a8383610cd8565b610cd057508154600181810184556000848152602080822090930184905584548482528286019093526040902091909155610a5f565b506000610a5f565b60009081526001919091016020526040902054151590565b60008181526001830160205260408120548015610dac5783546000198083019190810190600090879083908110610d2357fe5b9060005260206000200154905080876000018481548110610d4057fe5b600091825260208083209091019290925582815260018981019092526040902090840190558654879080610d7057fe5b60019003818190600052602060002001600090559055866001016000878152602001908152602001600020600090556001945050505050610a5f565b6000915050610a5f565b5490565b81546000908210610dfc5760405162461bcd60e51b81526004018080602001828103825260228152602001806115ce6022913960400191505060405180910390fd5b826000018281548110610e0b57fe5b9060005260206000200154905092915050565b6000610e28610eea565b82604051602001808061190160f01b81525060020183815260200182815260200192505050604051602081830303815290604052805190602001209050919050565b60008151604114610ec2576040805162461bcd60e51b815260206004820152601f60248201527f45434453413a20696e76616c6964207369676e6174757265206c656e67746800604482015290519081900360640190fd5b60208201516040830151606084015160001a610ee086828585610f2a565b9695505050505050565b6000610f257f8b73c3c69bb8fe3d512ecc4cf759cc79239f7b179b0ffacaa9a75d522b39400f610f186110a8565b610f206110ae565b6110b4565b905090565b60007f7fffffffffffffffffffffffffffffff5d576e7357a4501ddfe92f46681b20a0821115610f8b5760405162461bcd60e51b81526004018080602001828103825260228152602001806116166022913960400191505060405180910390fd5b8360ff16601b1480610fa057508360ff16601c145b610fdb5760405162461bcd60e51b81526004018080602001828103825260228152602001806116386022913960400191505060405180910390fd5b600060018686868660405160008152602001604052604051808581526020018460ff1681526020018381526020018281526020019450505050506020604051602081039080840390855afa158015611037573d6000803e3d6000fd5b5050604051601f1901519150506001600160a01b03811661109f576040805162461bcd60e51b815260206004820152601860248201527f45434453413a20696e76616c6964207369676e61747572650000000000000000604482015290519081900360640190fd5b95945050505050565b60015490565b60025490565b60008383836110c1611116565b3060405160200180868152602001858152602001848152602001838152602001826001600160a01b03168152602001955050505050506040516020818303038152906040528051906020012090509392505050565b4690565b80356001600160a01b038116811461046957600080fd5b600060208284031215611142578081fd5b610b7d8261111a565b6000806040838503121561115d578081fd5b6111668361111a565b91506111746020840161111a565b90509250929050565b6000806020838503121561118f578182fd5b823567ffffffffffffffff808211156111a6578384fd5b818501915085601f8301126111b9578384fd5b8135818111156111c7578485fd5b86602080830285010111156111da578485fd5b60209290920196919550909350505050565b6000602082840312156111fd578081fd5b81518015158114610b7d578182fd5b60006020828403121561121d578081fd5b81356001600160801b031981168114610b7d578182fd5b600080600080600085870360a081121561124c578182fd5b6040811215611259578182fd5b5085945060408601359350606086013567ffffffffffffffff8082111561127e578283fd5b818801915088601f830112611291578283fd5b81358181111561129f578384fd5b8960208285010111156112b0578384fd5b6020830195508094505050506112c86080870161111a565b90509295509295909350565b6000602082840312156112e5578081fd5b5035919050565b6001600160a01b0391909116815260200190565b6020808252825182820181905260009190848201906040850190845b818110156113415783516001600160a01b03168352928401929184019160010161131c565b50909695505050505050565b901515815260200190565b6001600160801b031991909116815260200190565b90815260200190565b9384526001600160801b031992909216602084015260408301526001600160a01b0316606082015260800190565b6000602080835283518082850152825b818110156113d0578581018301518582016040015282016113b4565b818111156113e15783604083870101525b50601f01601f1916929092016040019392505050565b60208082526026908201527f61757468457870697279206d757374206d6f7265207468616e2063757272656e6040820152657454696d652160d01b606082015260800190565b6020808252601390820152721053149150511657d5d2125511531254d51151606a1b604082015260600190565b60208082526039908201527f4578706972792074696d652063616e6e6f74206578636565642031303020796560408201527f6172732066726f6d207468652063757272656e742074696d6500000000000000606082015260800190565b6020808252600c908201526b5a45524f5f4144445245535360a01b604082015260600190565b60208082526019908201527f6f7264657220686173206265656e2070726f6365737365642100000000000000604082015260600190565b6020808252601c908201527f4964656e7469747920766572696669636174696f6e206661696c656400000000604082015260600190565b60208082526018908201527f434f4e54524143545f4e4f545f57484954454c49535445440000000000000000604082015260600190565b6020808252601390820152721393d517d5d2125511531254d5115117d65155606a1b604082015260600190565b91825260208201526040019056fe456e756d657261626c655365743a20696e646578206f7574206f6620626f756e64734f776e61626c653a206e6577206f776e657220697320746865207a65726f206164647265737345434453413a20696e76616c6964207369676e6174757265202773272076616c756545434453413a20696e76616c6964207369676e6174757265202776272076616c75654f776e61626c653a2063616c6c6572206973206e6f7420746865206f776e6572a26469706673582212206d46e3f92e143cb413d6aa3c5266ee90740dbd40827b5bbd4356701d6cbe96a464736f6c63430007060033496e697469616c697a61626c653a20636f6e747261637420697320616c726561647920696e697469616c697a6564",
  "linkReferences": {},
  "deployedLinkReferences": {}
}