{
  "_format": "hh-sol-artifact-1",
  "contractName": "AuthController",
  "sourceName": "contracts/auth/AuthController.sol",
  "abi": [
    {
      "inputs": [],
      "stateMutability": "nonpayable",
      "type": "constructor"
    },
    {
      "anonymous": false,
      "inputs": [
        {
          "indexed": false,
          "internalType": "address",
          "name": "",
          "type": "address"
        }
      ],
      "name": "AddedToWhiteList",
      "type": "event"
    },
    {
      "anonymous": false,
      "inputs": [
        {
          "components": [
            {
              "internalType": "address",
              "name": "caddress",
              "type": "address"
            },
            {
              "internalType": "address",
              "name": "sender",
              "type": "address"
            },
            {
              "internalType": "bytes",
              "name": "signature",
              "type": "bytes"
            },
            {
              "internalType": "uint256",
              "name": "authTime",
              "type": "uint256"
            },
            {
              "internalType": "uint256",
              "name": "authExpiry",
              "type": "uint256"
            },
            {
              "internalType": "bool",
              "name": "isAuth",
              "type": "bool"
            },
            {
              "internalType": "uint256",
              "name": "authLevel",
              "type": "uint256"
            },
            {
              "internalType": "string",
              "name": "expandData",
              "type": "string"
            }
          ],
          "indexed": false,
          "internalType": "struct AuthController.AuthData",
          "name": "",
          "type": "tuple"
        },
        {
          "indexed": true,
          "internalType": "address",
          "name": "caddress",
          "type": "address"
        }
      ],
      "name": "Authentication",
      "type": "event"
    },
    {
      "anonymous": false,
      "inputs": [
        {
          "indexed": true,
          "internalType": "address",
          "name": "previousOwner",
          "type": "address"
        },
        {
          "indexed": true,
          "internalType": "address",
          "name": "newOwner",
          "type": "address"
        }
      ],
      "name": "OwnershipTransferred",
      "type": "event"
    },
    {
      "anonymous": false,
      "inputs": [
        {
          "indexed": false,
          "internalType": "address",
          "name": "",
          "type": "address"
        }
      ],
      "name": "RemovedFromWhiteList",
      "type": "event"
    },
    {
      "inputs": [],
      "name": "AUTH_TYPEHASH",
      "outputs": [
        {
          "internalType": "bytes32",
          "name": "",
          "type": "bytes32"
        }
      ],
      "stateMutability": "view",
      "type": "function"
    },
    {
      "inputs": [
        {
          "internalType": "address[]",
          "name": "_addresses",
          "type": "address[]"
        }
      ],
      "name": "addToWhitelist",
      "outputs": [],
      "stateMutability": "nonpayable",
      "type": "function"
    },
    {
      "inputs": [
        {
          "components": [
            {
              "internalType": "address",
              "name": "caddress",
              "type": "address"
            },
            {
              "internalType": "address",
              "name": "sender",
              "type": "address"
            },
            {
              "internalType": "bytes",
              "name": "signature",
              "type": "bytes"
            },
            {
              "internalType": "uint256",
              "name": "authTime",
              "type": "uint256"
            },
            {
              "internalType": "uint256",
              "name": "authExpiry",
              "type": "uint256"
            },
            {
              "internalType": "bool",
              "name": "isAuth",
              "type": "bool"
            },
            {
              "internalType": "uint256",
              "name": "authLevel",
              "type": "uint256"
            },
            {
              "internalType": "string",
              "name": "expandData",
              "type": "string"
            }
          ],
          "internalType": "struct AuthController.AuthData",
          "name": "auth",
          "type": "tuple"
        },
        {
          "internalType": "uint256",
          "name": "orderId",
          "type": "uint256"
        }
      ],
      "name": "authentication",
      "outputs": [],
      "stateMutability": "nonpayable",
      "type": "function"
    },
    {
      "inputs": [
        {
          "components": [
            {
              "internalType": "address",
              "name": "caddress",
              "type": "address"
            },
            {
              "internalType": "address",
              "name": "sender",
              "type": "address"
            },
            {
              "internalType": "bytes",
              "name": "signature",
              "type": "bytes"
            },
            {
              "internalType": "uint256",
              "name": "authTime",
              "type": "uint256"
            },
            {
              "internalType": "uint256",
              "name": "authExpiry",
              "type": "uint256"
            },
            {
              "internalType": "bool",
              "name": "isAuth",
              "type": "bool"
            },
            {
              "internalType": "uint256",
              "name": "authLevel",
              "type": "uint256"
            },
            {
              "internalType": "string",
              "name": "expandData",
              "type": "string"
            }
          ],
          "internalType": "struct AuthController.AuthData[]",
          "name": "auths",
          "type": "tuple[]"
        },
        {
          "internalType": "uint256[]",
          "name": "orderIds",
          "type": "uint256[]"
        }
      ],
      "name": "authenticationBetch",
      "outputs": [],
      "stateMutability": "nonpayable",
      "type": "function"
    },
    {
      "inputs": [
        {
          "internalType": "address",
          "name": "",
          "type": "address"
        }
      ],
      "name": "auths",
      "outputs": [
        {
          "internalType": "uint256",
          "name": "",
          "type": "uint256"
        }
      ],
      "stateMutability": "view",
      "type": "function"
    },
    {
      "inputs": [
        {
          "internalType": "address",
          "name": "addr",
          "type": "address"
        }
      ],
      "name": "authsSingle",
      "outputs": [
        {
          "internalType": "bool",
          "name": "isAuth",
          "type": "bool"
        }
      ],
      "stateMutability": "view",
      "type": "function"
    },
    {
      "inputs": [],
      "name": "getWhitelist",
      "outputs": [
        {
          "internalType": "address[]",
          "name": "list",
          "type": "address[]"
        }
      ],
      "stateMutability": "view",
      "type": "function"
    },
    {
      "inputs": [
        {
          "internalType": "uint256",
          "name": "",
          "type": "uint256"
        }
      ],
      "name": "orders",
      "outputs": [
        {
          "internalType": "bool",
          "name": "",
          "type": "bool"
        }
      ],
      "stateMutability": "view",
      "type": "function"
    },
    {
      "inputs": [],
      "name": "owner",
      "outputs": [
        {
          "internalType": "address",
          "name": "",
          "type": "address"
        }
      ],
      "stateMutability": "view",
      "type": "function"
    },
    {
      "inputs": [
        {
          "internalType": "address",
          "name": "",
          "type": "address"
        },
        {
          "internalType": "address",
          "name": "",
          "type": "address"
        }
      ],
      "name": "parentauths",
      "outputs": [
        {
          "internalType": "address",
          "name": "caddress",
          "type": "address"
        },
        {
          "internalType": "address",
          "name": "sender",
          "type": "address"
        },
        {
          "internalType": "bytes",
          "name": "signature",
          "type": "bytes"
        },
        {
          "internalType": "uint256",
          "name": "authTime",
          "type": "uint256"
        },
        {
          "internalType": "uint256",
          "name": "authExpiry",
          "type": "uint256"
        },
        {
          "internalType": "bool",
          "name": "isAuth",
          "type": "bool"
        },
        {
          "internalType": "uint256",
          "name": "authLevel",
          "type": "uint256"
        },
        {
          "internalType": "string",
          "name": "expandData",
          "type": "string"
        }
      ],
      "stateMutability": "view",
      "type": "function"
    },
    {
      "inputs": [
        {
          "internalType": "address",
          "name": "",
          "type": "address"
        },
        {
          "internalType": "uint256",
          "name": "",
          "type": "uint256"
        }
      ],
      "name": "parentauthsa",
      "outputs": [
        {
          "internalType": "address",
          "name": "",
          "type": "address"
        }
      ],
      "stateMutability": "view",
      "type": "function"
    },
    {
      "inputs": [
        {
          "internalType": "address[]",
          "name": "_addresses",
          "type": "address[]"
        }
      ],
      "name": "removeFromWhitelist",
      "outputs": [],
      "stateMutability": "nonpayable",
      "type": "function"
    },
    {
      "inputs": [],
      "name": "renounceOwnership",
      "outputs": [],
      "stateMutability": "nonpayable",
      "type": "function"
    },
    {
      "inputs": [
        {
          "internalType": "address",
          "name": "newOwner",
          "type": "address"
        }
      ],
      "name": "transferOwnership",
      "outputs": [],
      "stateMutability": "nonpayable",
      "type": "function"
    },
    {
      "inputs": [
        {
          "internalType": "address",
          "name": "_address",
          "type": "address"
        }
      ],
      "name": "whitelisted",
      "outputs": [
        {
          "internalType": "bool",
          "name": "",
          "type": "bool"
        }
      ],
      "stateMutability": "view",
      "type": "function"
    }
  ],
  "bytecode": "0x60806040523480156200001157600080fd5b5060006200001e620000c3565b603580546001600160a01b0319166001600160a01b038316908117909155604051919250906000907f8be0079c531659141344cd1fd0a4f28419497f9722a3daafe3b4186f6b6457e0908290a350620000bd6040518060400160405280600e81526020016d20baba3432b73a34b1b0ba34b7b760911b815250604051806040016040528060018152602001603160f81b815250620000c760201b60201c565b620001b4565b3390565b600054610100900460ff1680620000e35750620000e362000190565b80620000f2575060005460ff16155b6200012f5760405162461bcd60e51b815260040180806020018281038252602e81526020018062001f0c602e913960400191505060405180910390fd5b600054610100900460ff161580156200015b576000805460ff1961ff0019909116610100171660011790555b825160208085019190912083519184019190912060019190915560025580156200018b576000805461ff00191690555b505050565b6000620001a830620001ae60201b62000f581760201c565b15905090565b3b151590565b611d4880620001c46000396000f3fe608060405234801561001057600080fd5b50600436106100f55760003560e01c8063715018a611610097578063bb609ad211610066578063bb609ad2146101f0578063d01f63f514610203578063d936547e14610218578063f2fde38b1461022b576100f5565b8063715018a6146101ba5780637f649783146101c25780638da5cb5b146101d5578063a85c38ef146101dd576100f5565b806359030c74116100d357806359030c74146101405780635caf86671461016757806362f6c8b51461018757806364e72dbd146101a7576100f5565b80630968adc0146100fa5780635110ee861461010f578063548db1741461012d575b600080fd5b61010d6101083660046117b8565b61023e565b005b6101176102e9565b60405161012491906119b0565b60405180910390f35b61010d61013b366004611778565b61030d565b61015361014e36600461171d565b61043d565b6040516101249897969594939291906118ee565b61017a610175366004611703565b6105b0565b60405161012491906119a5565b61019a61019536600461174f565b610610565b60405161012491906118da565b6101176101b5366004611703565b610648565b61010d61065a565b61010d6101d0366004611778565b610706565b61019a610832565b61017a6101eb366004611864565b610841565b61010d6101fe366004611821565b610856565b61020b610da7565b6040516101249190611958565b61017a610226366004611703565b610e42565b61010d610239366004611703565b610e55565b610249603633610f5e565b61026e5760405162461bcd60e51b815260040161026590611adc565b60405180910390fd5b82811461028d5760405162461bcd60e51b815260040161026590611ab2565b60005b838110156102e2576102da8585838181106102a757fe5b90506020028101906102b99190611c17565b6102c290611c5a565b8484848181106102ce57fe5b90506020020135610856565b600101610290565b5050505050565b7ff4dd7d41c749ad2b47fd69b089f6e61bb4de09f9be806103bf24a257e7fda9db81565b610315610f7a565b6001600160a01b0316610326610832565b6001600160a01b03161461036f576040805162461bcd60e51b81526020600482018190526024820152600080516020611cf3833981519152604482015290519081900360640190fd5b60005b8181101561043857600083838381811061038857fe5b905060200201602081019061039d9190611703565b90506001600160a01b0381166103c55760405162461bcd60e51b815260040161026590611a55565b6103d0603682610f5e565b6103ec5760405162461bcd60e51b815260040161026590611b59565b6103f7603682610f7e565b507f9354cd337eebad48c93d70f7321b188732c3061fa5c48fe32b8e6f9480c52fcc8160405161042791906118da565b60405180910390a150600101610372565b505050565b60396020908152600092835260408084208252918352918190208054600180830154600280850180548751601f600019968316156101000296909601909116929092049384018890048802820188019096528281526001600160a01b0393841696919093169491908301828280156104f65780601f106104cb576101008083540402835291602001916104f6565b820191906000526020600020905b8154815290600101906020018083116104d957829003601f168201915b50505050600383015460048401546005850154600686015460078701805460408051602060026101006001861615026000190190941693909304601f81018490048402820184019092528181529899969895975060ff9094169592949293908301828280156105a65780601f1061057b576101008083540402835291602001916105a6565b820191906000526020600020905b81548152906001019060200180831161058957829003601f168201915b5050505050905088565b60006105c4826001600160a01b0316610f58565b156105d15750600161060b565b6001600160a01b0382166000908152603b60205260409020548015806105f657508042115b156106045760009150610609565b600191505b505b919050565b603a602052816000526040600020818154811061062c57600080fd5b6000918252602090912001546001600160a01b03169150829050565b603b6020526000908152604090205481565b610662610f7a565b6001600160a01b0316610673610832565b6001600160a01b0316146106bc576040805162461bcd60e51b81526020600482018190526024820152600080516020611cf3833981519152604482015290519081900360640190fd5b6035546040516000916001600160a01b0316907f8be0079c531659141344cd1fd0a4f28419497f9722a3daafe3b4186f6b6457e0908390a3603580546001600160a01b0319169055565b61070e610f7a565b6001600160a01b031661071f610832565b6001600160a01b031614610768576040805162461bcd60e51b81526020600482018190526024820152600080516020611cf3833981519152604482015290519081900360640190fd5b60005b8181101561043857600083838381811061078157fe5b90506020020160208101906107969190611703565b90506001600160a01b0381166107be5760405162461bcd60e51b815260040161026590611a55565b6107c9603682610f5e565b156107e65760405162461bcd60e51b815260040161026590611a28565b6107f1603682610f93565b507f8a3be376fdc726be3f3cee8e59ba5698a268a9b59f69cdabcf06d2ec2c90658f8160405161082191906118da565b60405180910390a15060010161076b565b6035546001600160a01b031690565b60386020526000908152604090205460ff1681565b610861603633610f5e565b61087d5760405162461bcd60e51b815260040161026590611adc565b60008181526038602052604090205460ff16156108ac5760405162461bcd60e51b815260040161026590611a7b565b60208201516001600160a01b031633146108d85760405162461bcd60e51b8152600401610265906119fa565b816080015142106108fb5760405162461bcd60e51b815260040161026590611b13565b42606083015281516001600160a01b031633146109865760007ff4dd7d41c749ad2b47fd69b089f6e61bb4de09f9be806103bf24a257e7fda9db82846000015185602001518660a001516040516020016109599594939291906119b9565b6040516020818303038152906040528051906020012090506109848360000151828560400151610fa8565b505b81516001600160a01b0390811660009081526039602090815260408083208287015185168452909152902054166109fe5781516001600160a01b039081166000908152603a6020908152604082208186015181546001810183559184529190922090910180546001600160a01b031916919092161790555b81516001600160a01b03908116600090815260396020908152604080832082870180518616855290835292819020865181549086166001600160a01b03199182161782559351600182018054919096169416939093179093559184015180518593610a709260028501929101906114ca565b50606082015160038201556080820151600482015560a082015160058201805460ff191691151591909117905560c0820151600682015560e08201518051610ac29160078401916020909101906114ca565b505082516001600160a01b03166000908152603b6020526040812081905590505b82516001600160a01b03166000908152603a6020526040902054811015610d425782516001600160a01b03908116600090815260396020908152604080832087519094168352603a9091528120805491929183919085908110610b4257fe5b6000918252602080832091909101546001600160a01b0390811684528382019490945260409283019091208251610100808201855282548616825260018084015490961682850152600280840180548751988116159093026000190190921604601f8101859004850287018501865280875291959294860193909190830182828015610c0f5780601f10610be457610100808354040283529160200191610c0f565b820191906000526020600020905b815481529060010190602001808311610bf257829003601f168201915b505050918352505060038201546020808301919091526004830154604080840191909152600584015460ff161515606084015260068401546080840152600784018054825160026101006001841615026000190190921691909104601f810185900485028201850190935282815260a09094019392909190830182828015610cd85780601f10610cad57610100808354040283529160200191610cd8565b820191906000526020600020905b815481529060010190602001808311610cbb57829003601f168201915b50505050508152505090508060a001511515600115151415610d395783516001600160a01b03166000908152603b602052604090205460808201511115610d3957608081015184516001600160a01b03166000908152603b60205260409020555b50600101610ae3565b5060008181526038602052604090819020805460ff19166001179055825190516001600160a01b03909116907f1791f605e03bbd275a28ad236a1544ae3cdc75b0b671f4edac2194b826b954c290610d9b908590611b86565b60405180910390a25050565b60606000610db56036611027565b90508067ffffffffffffffff81118015610dce57600080fd5b50604051908082528060200260200182016040528015610df8578160200160208202803683370190505b50915060005b81811015610e3d57610e11603682611032565b838281518110610e1d57fe5b6001600160a01b0390921660209283029190910190910152600101610dfe565b505090565b6000610e4f603683610f5e565b92915050565b610e5d610f7a565b6001600160a01b0316610e6e610832565b6001600160a01b031614610eb7576040805162461bcd60e51b81526020600482018190526024820152600080516020611cf3833981519152604482015290519081900360640190fd5b6001600160a01b038116610efc5760405162461bcd60e51b8152600401808060200182810382526026815260200180611c896026913960400191505060405180910390fd5b6035546040516001600160a01b038084169216907f8be0079c531659141344cd1fd0a4f28419497f9722a3daafe3b4186f6b6457e090600090a3603580546001600160a01b0319166001600160a01b0392909216919091179055565b3b151590565b6000610f73836001600160a01b03841661103e565b9392505050565b3390565b6000610f73836001600160a01b038416611056565b6000610f73836001600160a01b03841661111c565b6000610fb383611166565b90506001600160a01b038416610fc982846111b2565b6001600160a01b0316146040518060400160405280601c81526020017f7369676e617475726520766572696669636174696f6e206572726f7200000000815250906102e25760405162461bcd60e51b815260040161026591906119e7565b6000610e4f82611232565b6000610f738383611236565b60009081526001919091016020526040902054151590565b60008181526001830160205260408120548015611112578354600019808301919081019060009087908390811061108957fe5b90600052602060002001549050808760000184815481106110a657fe5b6000918252602080832090910192909255828152600189810190925260409020908401905586548790806110d657fe5b60019003818190600052602060002001600090559055866001016000878152602001908152602001600020600090556001945050505050610e4f565b6000915050610e4f565b6000611128838361103e565b61115e57508154600181810184556000848152602080822090930184905584548482528286019093526040902091909155610e4f565b506000610e4f565b600061117061129a565b82604051602001808061190160f01b81525060020183815260200182815260200192505050604051602081830303815290604052805190602001209050919050565b6000815160411461120a576040805162461bcd60e51b815260206004820152601f60248201527f45434453413a20696e76616c6964207369676e6174757265206c656e67746800604482015290519081900360640190fd5b60208201516040830151606084015160001a611228868285856112da565b9695505050505050565b5490565b815460009082106112785760405162461bcd60e51b8152600401808060200182810382526022815260200180611c676022913960400191505060405180910390fd5b82600001828154811061128757fe5b9060005260206000200154905092915050565b60006112d57f8b73c3c69bb8fe3d512ecc4cf759cc79239f7b179b0ffacaa9a75d522b39400f6112c8611458565b6112d061145e565b611464565b905090565b60007f7fffffffffffffffffffffffffffffff5d576e7357a4501ddfe92f46681b20a082111561133b5760405162461bcd60e51b8152600401808060200182810382526022815260200180611caf6022913960400191505060405180910390fd5b8360ff16601b148061135057508360ff16601c145b61138b5760405162461bcd60e51b8152600401808060200182810382526022815260200180611cd16022913960400191505060405180910390fd5b600060018686868660405160008152602001604052604051808581526020018460ff1681526020018381526020018281526020019450505050506020604051602081039080840390855afa1580156113e7573d6000803e3d6000fd5b5050604051601f1901519150506001600160a01b03811661144f576040805162461bcd60e51b815260206004820152601860248201527f45434453413a20696e76616c6964207369676e61747572650000000000000000604482015290519081900360640190fd5b95945050505050565b60015490565b60025490565b60008383836114716114c6565b3060405160200180868152602001858152602001848152602001838152602001826001600160a01b03168152602001955050505050506040516020818303038152906040528051906020012090509392505050565b4690565b828054600181600116156101000203166002900490600052602060002090601f0160209004810192826115005760008555611546565b82601f1061151957805160ff1916838001178555611546565b82800160010185558215611546579182015b8281111561154657825182559160200191906001019061152b565b50611552929150611556565b5090565b5b808211156115525760008155600101611557565b80356001600160a01b038116811461060b57600080fd5b60008083601f840112611593578081fd5b50813567ffffffffffffffff8111156115aa578182fd5b60208301915083602080830285010111156115c457600080fd5b9250929050565b8035801515811461060b57600080fd5b600082601f8301126115eb578081fd5b813567ffffffffffffffff8111156115ff57fe5b611612601f8201601f1916602001611c36565b818152846020838601011115611626578283fd5b816020850160208301379081016020019190915292915050565b6000610100808385031215611653578182fd5b61165c81611c36565b9150506116688261156b565b81526116766020830161156b565b6020820152604082013567ffffffffffffffff8082111561169657600080fd5b6116a2858386016115db565b604084015260608401356060840152608084013560808401526116c760a085016115cb565b60a084015260c084013560c084015260e08401359150808211156116ea57600080fd5b506116f7848285016115db565b60e08301525092915050565b600060208284031215611714578081fd5b610f738261156b565b6000806040838503121561172f578081fd5b6117388361156b565b91506117466020840161156b565b90509250929050565b60008060408385031215611761578182fd5b61176a8361156b565b946020939093013593505050565b6000806020838503121561178a578182fd5b823567ffffffffffffffff8111156117a0578283fd5b6117ac85828601611582565b90969095509350505050565b600080600080604085870312156117cd578182fd5b843567ffffffffffffffff808211156117e4578384fd5b6117f088838901611582565b90965094506020870135915080821115611808578384fd5b5061181587828801611582565b95989497509550505050565b60008060408385031215611833578182fd5b823567ffffffffffffffff811115611849578283fd5b61185585828601611640565b95602094909401359450505050565b600060208284031215611875578081fd5b5035919050565b6001600160a01b03169052565b15159052565b60008151808452815b818110156118b457602081850181015186830182015201611898565b818111156118c55782602083870101525b50601f01601f19169290920160200192915050565b6001600160a01b0391909116815260200190565b6001600160a01b038981168252881660208201526101006040820181905260009061191b8382018a61188f565b905087606084015286608084015285151560a08401528460c084015282810360e0840152611949818561188f565b9b9a5050505050505050505050565b6020808252825182820181905260009190848201906040850190845b818110156119995783516001600160a01b031683529284019291840191600101611974565b50909695505050505050565b901515815260200190565b90815260200190565b94855260208501939093526001600160a01b0391821660408501521660608301521515608082015260a00190565b600060208252610f73602083018461188f565b602080825260149082015273617574682073656e64657220736574206572722160601b604082015260600190565b6020808252601390820152721053149150511657d5d2125511531254d51151606a1b604082015260600190565b6020808252600c908201526b5a45524f5f4144445245535360a01b604082015260600190565b60208082526019908201527f6f7264657220686173206265656e2070726f6365737365642100000000000000604082015260600190565b60208082526010908201526f6c656e677468206e6f206d657463682160801b604082015260600190565b60208082526018908201527f434f4e54524143545f4e4f545f57484954454c49535445440000000000000000604082015260600190565b60208082526026908201527f61757468457870697279206d757374206d6f7265207468616e2063757272656e6040820152657454496d652160d01b606082015260800190565b6020808252601390820152721393d517d5d2125511531254d5115117d65155606a1b604082015260600190565b602080825282516001600160a01b031682820152820151600090611bad604084018261187c565b506040830151610100806060850152611bca61012085018361188f565b915060608501516080850152608085015160a085015260a0850151611bf260c0860182611889565b5060c085015160e085015260e0850151601f198584030182860152611228838261188f565b6000823560fe19833603018112611c2c578182fd5b9190910192915050565b60405181810167ffffffffffffffff81118282101715611c5257fe5b604052919050565b6000610e4f368361164056fe456e756d657261626c655365743a20696e646578206f7574206f6620626f756e64734f776e61626c653a206e6577206f776e657220697320746865207a65726f206164647265737345434453413a20696e76616c6964207369676e6174757265202773272076616c756545434453413a20696e76616c6964207369676e6174757265202776272076616c75654f776e61626c653a2063616c6c6572206973206e6f7420746865206f776e6572a26469706673582212208ad7bed381dec2a0b11af87a27d68830c17e6e7431c605d799ef107c99a7bb8364736f6c63430007060033496e697469616c697a61626c653a20636f6e747261637420697320616c726561647920696e697469616c697a6564",
  "linkReferences": {},
  "deployedLinkReferences": {}
}