{
  "_format": "hh-sol-artifact-1",
  "contractName": "ChainpayClient",
  "sourceName": "contracts/ct_oracle/oracle/ChainpayClient.sol",
  "abi": [
    {
      "inputs": [
        {
          "internalType": "address",
          "name": "_authV2",
          "type": "address"
        },
        {
          "internalType": "address",
          "name": "chainpayToken",
          "type": "address"
        },
        {
          "internalType": "address",
          "name": "_stakePay",
          "type": "address"
        }
      ],
      "stateMutability": "nonpayable",
      "type": "constructor"
    },
    {
      "anonymous": false,
      "inputs": [
        {
          "indexed": true,
          "internalType": "bytes32",
          "name": "id",
          "type": "bytes32"
        }
      ],
      "name": "ChainpayCancelled",
      "type": "event"
    },
    {
      "anonymous": false,
      "inputs": [
        {
          "indexed": true,
          "internalType": "bytes32",
          "name": "id",
          "type": "bytes32"
        },
        {
          "indexed": false,
          "internalType": "bool",
          "name": "isTrue",
          "type": "bool"
        },
        {
          "indexed": false,
          "internalType": "address",
          "name": "sender",
          "type": "address"
        }
      ],
      "name": "ChainpayFulfilled",
      "type": "event"
    },
    {
      "anonymous": false,
      "inputs": [
        {
          "indexed": true,
          "internalType": "bytes32",
          "name": "id",
          "type": "bytes32"
        }
      ],
      "name": "ChainpayRequested",
      "type": "event"
    },
    {
      "inputs": [
        {
          "internalType": "bytes32",
          "name": "_orderId",
          "type": "bytes32"
        },
        {
          "internalType": "bool",
          "name": "_isTrue",
          "type": "bool"
        }
      ],
      "name": "fulfill",
      "outputs": [],
      "stateMutability": "nonpayable",
      "type": "function"
    },
    {
      "inputs": [
        {
          "internalType": "bytes32",
          "name": "_orderId",
          "type": "bytes32"
        },
        {
          "internalType": "bool",
          "name": "_isTrue",
          "type": "bool"
        }
      ],
      "name": "manualfill",
      "outputs": [],
      "stateMutability": "nonpayable",
      "type": "function"
    },
    {
      "inputs": [],
      "name": "owner",
      "outputs": [
        {
          "internalType": "address",
          "name": "",
          "type": "address"
        }
      ],
      "stateMutability": "view",
      "type": "function"
    },
    {
      "inputs": [
        {
          "internalType": "uint256",
          "name": "num",
          "type": "uint256"
        }
      ],
      "name": "prowaitorder",
      "outputs": [],
      "stateMutability": "nonpayable",
      "type": "function"
    },
    {
      "inputs": [
        {
          "internalType": "bytes32",
          "name": "_orderId",
          "type": "bytes32"
        },
        {
          "internalType": "uint256",
          "name": "_value",
          "type": "uint256"
        }
      ],
      "name": "requestDataFromChainpay",
      "outputs": [],
      "stateMutability": "nonpayable",
      "type": "function"
    },
    {
      "inputs": [
        {
          "internalType": "uint256",
          "name": "",
          "type": "uint256"
        }
      ],
      "name": "s_pending_requests",
      "outputs": [
        {
          "internalType": "bytes32",
          "name": "",
          "type": "bytes32"
        }
      ],
      "stateMutability": "view",
      "type": "function"
    },
    {
      "inputs": [],
      "name": "s_pro_d",
      "outputs": [
        {
          "internalType": "uint256",
          "name": "",
          "type": "uint256"
        }
      ],
      "stateMutability": "view",
      "type": "function"
    },
    {
      "inputs": [],
      "name": "s_requestCount",
      "outputs": [
        {
          "internalType": "uint256",
          "name": "",
          "type": "uint256"
        }
      ],
      "stateMutability": "view",
      "type": "function"
    },
    {
      "inputs": [
        {
          "internalType": "bytes32",
          "name": "",
          "type": "bytes32"
        }
      ],
      "name": "s_requests",
      "outputs": [
        {
          "internalType": "address",
          "name": "sender",
          "type": "address"
        },
        {
          "internalType": "uint256",
          "name": "value",
          "type": "uint256"
        },
        {
          "internalType": "bytes32",
          "name": "orderId",
          "type": "bytes32"
        },
        {
          "internalType": "uint256",
          "name": "createAt",
          "type": "uint256"
        },
        {
          "internalType": "uint256",
          "name": "updateAt",
          "type": "uint256"
        },
        {
          "internalType": "uint256",
          "name": "state",
          "type": "uint256"
        },
        {
          "components": [
            {
              "internalType": "bytes32",
              "name": "id",
              "type": "bytes32"
            },
            {
              "internalType": "address",
              "name": "callbackAddress",
              "type": "address"
            },
            {
              "internalType": "bytes4",
              "name": "callbackFunctionId",
              "type": "bytes4"
            },
            {
              "internalType": "uint256",
              "name": "nonce",
              "type": "uint256"
            },
            {
              "components": [
                {
                  "internalType": "bytes",
                  "name": "buf",
                  "type": "bytes"
                },
                {
                  "internalType": "uint256",
                  "name": "capacity",
                  "type": "uint256"
                }
              ],
              "internalType": "struct BufferChainpay.buffer",
              "name": "buf",
              "type": "tuple"
            }
          ],
          "internalType": "struct Chainpay.Request",
          "name": "req",
          "type": "tuple"
        }
      ],
      "stateMutability": "view",
      "type": "function"
    },
    {
      "inputs": [],
      "name": "s_vote_curr_num",
      "outputs": [
        {
          "internalType": "uint256",
          "name": "",
          "type": "uint256"
        }
      ],
      "stateMutability": "view",
      "type": "function"
    },
    {
      "inputs": [
        {
          "internalType": "address",
          "name": "newOwner",
          "type": "address"
        }
      ],
      "name": "transferOwnership",
      "outputs": [],
      "stateMutability": "nonpayable",
      "type": "function"
    }
  ],
  "bytecode": "0x60806040526001600455600060055560006008553480156200002057600080fd5b5060405162001f4638038062001f468339810160408190526200004391620000d8565b600080546001600160a01b031916331790556200007c83600280546001600160a01b0319166001600160a01b0392909216919091179055565b600180546001600160a01b0319166001600160a01b038416179055600380546001600160a01b0319166001600160a01b03831617905550505062000122565b80516001600160a01b0381168114620000d357600080fd5b919050565b600080600060608486031215620000ee57600080fd5b620000f984620000bb565b92506200010960208501620000bb565b91506200011960408501620000bb565b90509250925092565b611e1480620001326000396000f3fe608060405234801561001057600080fd5b50600436106100a95760003560e01c806377065c0e1161007157806377065c0e146101215780638da5cb5b14610134578063ac350fd81461015f578063e13fd57014610168578063f2fde38b1461017b578063fd68990a1461018e57600080fd5b806328088a57146100ae5780633ac0ee92146100c3578063557d2e92146100df578063692ea2a0146100e857806371be8324146100fb575b600080fd5b6100c16100bc366004611a61565b6101a1565b005b6100cc60085481565b6040519081526020015b60405180910390f35b6100cc60045481565b6100c16100f6366004611a31565b61030e565b61010e610109366004611a18565b610808565b6040516100d69796959493929190611abd565b6100cc61012f366004611a18565b610949565b600054610147906001600160a01b031681565b6040516001600160a01b0390911681526020016100d6565b6100cc60055481565b6100c1610176366004611a18565b61096a565b6100c16101893660046119d2565b610da7565b6100c161019c366004611a31565b610dec565b600254604051635caf866760e01b81523360048201526001600160a01b0390911690635caf86679060240160206040518083038186803b1580156101e457600080fd5b505afa1580156101f8573d6000803e3d6000fd5b505050506040513d601f19601f8201168201806040525081019061021c91906119fb565b6102595760405162461bcd60e51b81526020600482015260096024820152686e6f7420617574683b60b81b60448201526064015b60405180910390fd5b600061026d8330637eb44c8560e11b6111be565b90506102af6040518060400160405280600381526020016219d95d60ea1b815250604051806060016040528060288152602001611db7602891398391906111e3565b6102fe604051806040016040528060048152602001630e0c2e8d60e31b815250604051806040016040528060068152602001651c995cdd5b1d60d21b815250836111e39092919063ffffffff16565b6103088183611201565b50505050565b60008281526006602052604090206005015482906001146103695760405162461bcd60e51b815260206004820152601560248201527414995c5d595cdd081b9bdd081a5cc81b585b9d585b605a1b6044820152606401610250565b6000546001600160a01b0316331461038057600080fd5b61038a603261096a565b6000838152600660205260408120600101546064906103a99082611cb6565b6103b39190611bb7565b6000858152600660205260408120600101549192509082906103d6906064611cb6565b6103e09190611cd5565b905083156105f757600354600086815260066020526040812060070180546001600160a01b0390931692634232bf58929061041d5761041d611d7c565b60009182526020808320909101548983526006918290526040832090910180546001600160a01b0390921692909161045757610457611d7c565b60009182526020909120015460405160e084901b6001600160e01b03191681526001600160a01b03928316600482015291166024820152604401600060405180830381600087803b1580156104ab57600080fd5b505af11580156104bf573d6000803e3d6000fd5b5050600154600088815260066020819052604082200180546001600160a01b039093169450631e458bee9350916104f8576104f8611d7c565b6000918252602090912001546040516001600160e01b031960e084901b168152610532916001600160a01b03169086908a90600401611a9c565b600060405180830381600087803b15801561054c57600080fd5b505af1158015610560573d6000803e3d6000fd5b505060015460008881526006602052604090819020549051630f22c5f760e11b81526001600160a01b039283169450631e458bee93506105aa929091169085908a90600401611a9c565b600060405180830381600087803b1580156105c457600080fd5b505af11580156105d8573d6000803e3d6000fd5b5050506000868152600660205260409020600260059091015550610801565b600354600086815260066020819052604082200180546001600160a01b0390931692634232bf58929061062c5761062c611d7c565b600091825260208083209091015489835260069091526040822060070180546001600160a01b0390921692909161066557610665611d7c565b60009182526020909120015460405160e084901b6001600160e01b03191681526001600160a01b03928316600482015291166024820152604401600060405180830381600087803b1580156106b957600080fd5b505af11580156106cd573d6000803e3d6000fd5b5050600154600088815260066020526040812060070180546001600160a01b039093169450631e458bee93509161070657610706611d7c565b6000918252602090912001546040516001600160e01b031960e084901b168152610740916001600160a01b03169086908a90600401611a9c565b600060405180830381600087803b15801561075a57600080fd5b505af115801561076e573d6000803e3d6000fd5b505060015460008881526006602052604090819020549051630f22c5f760e11b81526001600160a01b039283169450631e458bee93506107b8929091169085908a90600401611a9c565b600060405180830381600087803b1580156107d257600080fd5b505af11580156107e6573d6000803e3d6000fd5b50505060008681526006602052604090206003600590910155505b5050505050565b600660209081526000918252604091829020805460018201546002830154600384015460048501546005860154885160a081018a52600888018054825260098901546001600160a01b038082169b84019b909b52600160a01b900460e01b6001600160e01b031916828c0152600a89015460608301528a51808c01909b52600b890180549a9098169a96999598949793969295919390926080850192909190829082906108b490611cec565b80601f01602080910402602001604051908101604052809291908181526020018280546108e090611cec565b801561092d5780601f106109025761010080835404028352916020019161092d565b820191906000526020600020905b81548152906001019060200180831161091057829003601f168201915b5050505050815260200160018201548152505081525050905087565b6007818154811061095957600080fd5b600091825260209091200154905081565b60008160055461097a9190611b9f565b6005549091505b81811015610da257600754811061099757505050565b6000600782815481106109ac576109ac611d7c565b90600052602060002001549050600660008281526020019081526020016000206005015460001415610d77576109e3607842611cd5565b600082815260066020526040902060030154101561030857600081815260066020908152604080832060070180548251818502810185019093528083529192909190830182828015610a5e57602002820191906000526020600020905b81546001600160a01b03168152600190910190602001808311610a40575b50505050509050600060066000848152602001908152602001600020600601805480602002602001604051908101604052809291908181526020018280548015610ad157602002820191906000526020600020905b81546001600160a01b03168152600190910190602001808311610ab3575b5050506000868152600660205260408120600101549394509260649250610af9915082611cb6565b610b039190611bb7565b600085815260066020526040812060010154919250908290610b26906064611cb6565b610b309190611cd5565b905060008451118015610b4257508251155b15610c0357600154600086815260066020526040812060070180546001600160a01b0390931692631e458bee9290610b7c57610b7c611d7c565b6000918252602090912001546040516001600160e01b031960e084901b168152610bb6916001600160a01b03169086908a90600401611a9c565b600060405180830381600087803b158015610bd057600080fd5b505af1158015610be4573d6000803e3d6000fd5b5050506000868152600660205260409020600360059091015550610d56565b60008351118015610c1357508351155b15610d4c57600154600086815260066020819052604082200180546001600160a01b0390931692631e458bee9290610c4d57610c4d611d7c565b6000918252602090912001546040516001600160e01b031960e084901b168152610c87916001600160a01b03169086908a90600401611a9c565b600060405180830381600087803b158015610ca157600080fd5b505af1158015610cb5573d6000803e3d6000fd5b505060015460008881526006602052604090819020549051630f22c5f760e11b81526001600160a01b039283169450631e458bee9350610cff929091169085908a90600401611a9c565b600060405180830381600087803b158015610d1957600080fd5b505af1158015610d2d573d6000803e3d6000fd5b5050506000868152600660205260409020600260059091015550610d56565b5050505050505050565b8560056000828254610d689190611b9f565b90915550610d8f945050505050565b8160056000828254610d899190611b9f565b90915550505b5080610d9a81611d21565b915050610981565b505050565b6000546001600160a01b03163314610dbe57600080fd5b6001600160a01b03811615610de957600080546001600160a01b0319166001600160a01b0383161790555b50565b60035460405163facd743b60e01b8152336004820152839183916001600160a01b039091169063facd743b9060240160206040518083038186803b158015610e3357600080fd5b505afa158015610e47573d6000803e3d6000fd5b505050506040513d601f19601f82011682018060405250810190610e6b91906119fb565b610ec85760405162461bcd60e51b815260206004820152602860248201527f536f75726365206d75737420626520746865206f7261636c65206f6620746865604482015267081c995c5d595cdd60c21b6064820152608401610250565b60008281526006602052604090206005015460011415610f235760405162461bcd60e51b815260206004820152601660248201527514995c5d595cdd081a5cc81b995959081b585b9d585b60521b6044820152606401610250565b60408051821515815233602082015283917fbf0632a90f379edbbb9e3e76973c36be46d95c2bc3c4ee5b72a5996a85ee3283910160405180910390a2600084815260066020526040902060050154849015610fc05760405162461bcd60e51b815260206004820152601a60248201527f5265717565737420697320616c72656164792070656e64696e670000000000006044820152606401610250565b6000858152600660205260409020600501546110df5760008581526006602052604090819020600101546003549151632367f6b560e01b815233600482015290916001600160a01b031690632367f6b59060240160206040518083038186803b15801561102c57600080fd5b505afa158015611040573d6000803e3d6000fd5b505050506040513d601f19601f820116820180604052508101906110649190611a83565b116110c65760405162461bcd60e51b815260206004820152602c60248201527f5374616b65206d7573742062652067726561746572207468616e20746865207260448201526b6571756573742076616c756560a01b6064820152608401610250565b6001600860008282546110d99190611b9f565b90915550505b6110e9603261096a565b83156111555760008581526006602052604090206007015460011161111f57600085815260066020526040902060016005909101555b60008581526006602081815260408320909101805460018101825590835291200180546001600160a01b03191633179055610801565b6000858152600660208190526040909120015460011161118657600085815260066020526040902060016005909101555b60008581526006602090815260408220600701805460018101825590835291200180546001600160a01b031916331790555050505050565b6111c66118a9565b6111ce6118a9565b6111da8186868661122a565b95945050505050565b60808301516111f29083611267565b6080830151610da29082611267565b600454600090611212816001611b9f565b60045561122081848661127e565b9150505b92915050565b6112326118a9565b61124285608001516101006114bf565b50509183526001600160a01b031660208301526001600160e01b031916604082015290565b6112748260038351611524565b610da28282611633565b6000604051806101200160405280336001600160a01b03168152602001848152602001836000015181526020014281526020016000815260200160008152602001600067ffffffffffffffff8111156112d9576112d9611d92565b604051908082528060200260200182016040528015611302578160200160208202803683370190505b5081526020016000604051908082528060200260200182016040528015611333578160200160208202803683370190505b5081526020908101849052835160009081526006808352604091829020845181546001600160a01b0319166001600160a01b03909116178155848401516001820155918401516002830155606084015160038301556080840151600483015560a0840151600583015560c0840151805192936113b593928501929101906118e4565b5060e082015180516113d19160078401916020909101906118e4565b50610100820151805160088301908155602080830151600985018054604086015160e01c600160a01b026001600160c01b03199091166001600160a01b03909316929092179190911790556060830151600a8501556080830151805180519192600b8701926114439284920190611949565b5060209190910151600191820155865160078054928301815560009081527fa66cc928b5edb82af9bd49922954155ab7b0942694bea4ce44661d9a8736c6889092015586516040519095507fc114fb32a0d41d5027e5741d3f8d6d6c241446f621a5247b40ac8c345232043a94509092509050a2505192915050565b6040805180820190915260608152600060208201526114df602083611d3c565b15611507576114ef602083611d3c565b6114fa906020611cd5565b6115049083611b9f565b91505b506020828101829052604080518085526000815290920101905290565b60178167ffffffffffffffff1611611549576103088360e0600585901b168317611661565b60ff8167ffffffffffffffff161161158757611570836018611fe0600586901b1617611661565b506103088367ffffffffffffffff83166001611686565b61ffff8167ffffffffffffffff16116115c6576115af836019611fe0600586901b1617611661565b506103088367ffffffffffffffff83166002611686565b63ffffffff8167ffffffffffffffff1611611607576115f083601a611fe0600586901b1617611661565b506103088367ffffffffffffffff83166004611686565b61161c83601b611fe0600586901b1617611661565b506103088367ffffffffffffffff83166008611686565b60408051808201909152606081526000602082015261165a838460000151518485516116b4565b9392505050565b60408051808201909152606081526000602082015261165a838460000151518461179e565b6040805180820190915260608152600060208201526116ac8485600001515185856117fa565b949350505050565b60408051808201909152606081526000602082015282518211156116d757600080fd5b60208501516116e68386611b9f565b11156117195761171985611709876020015187866117049190611b9f565b61187b565b611714906002611cb6565b611892565b6000808651805187602083010193508088870111156117385787860182525b505050602084015b602084106117785780518252611757602083611b9f565b9150611764602082611b9f565b9050611771602085611cd5565b9350611740565b51815160001960208690036101000a019081169019919091161790525083949350505050565b604080518082019091526060815260006020820152836020015183106117d3576117d384856020015160026117149190611cb6565b8351805160208583010184815350808514156117f0576001810182525b5093949350505050565b604080518082019091526060815260006020820152602085015161181e8584611b9f565b111561183257611832856117098685611b9f565b6000600161184284610100611c0e565b61184c9190611cd5565b90508551838682010185831982511617815250805184870111156118705783860181525b509495945050505050565b60008183111561188c575081611224565b50919050565b815161189e83836114bf565b506103088382611633565b6040805160a0810182526000808252602080830182905282840182905260608084018390528451808601909552845283015290608082015290565b828054828255906000526020600020908101928215611939579160200282015b8281111561193957825182546001600160a01b0319166001600160a01b03909116178255602090920191600190910190611904565b506119459291506119bd565b5090565b82805461195590611cec565b90600052602060002090601f0160209004810192826119775760008555611939565b82601f1061199057805160ff1916838001178555611939565b82800160010185558215611939579182015b828111156119395782518255916020019190600101906119a2565b5b8082111561194557600081556001016119be565b6000602082840312156119e457600080fd5b81356001600160a01b038116811461165a57600080fd5b600060208284031215611a0d57600080fd5b815161165a81611da8565b600060208284031215611a2a57600080fd5b5035919050565b60008060408385031215611a4457600080fd5b823591506020830135611a5681611da8565b809150509250929050565b60008060408385031215611a7457600080fd5b50508035926020909101359150565b600060208284031215611a9557600080fd5b5051919050565b6001600160a01b039390931683526020830191909152604082015260600190565b600060018060a01b03808a168352602089818501528860408501528760608501528660808501528560a085015260e060c0850152845160e085015281818601511661010085015263ffffffff60e01b60408601511661012085015260608501516101408501526080850151915060a0610160850152815160406101808601528051806101c087015260005b81811015611b65578281018401518782016101e001528301611b48565b81811115611b785760006101e083890101525b5092909101516101a085015250601f01601f19169091016101e00198975050505050505050565b60008219821115611bb257611bb2611d50565b500190565b600082611bc657611bc6611d66565b500490565b600181815b80851115611c06578160001904821115611bec57611bec611d50565b80851615611bf957918102915b93841c9390800290611bd0565b509250929050565b600061165a8383600082611c2457506001611224565b81611c3157506000611224565b8160018114611c475760028114611c5157611c6d565b6001915050611224565b60ff841115611c6257611c62611d50565b50506001821b611224565b5060208310610133831016604e8410600b8410161715611c90575081810a611224565b611c9a8383611bcb565b8060001904821115611cae57611cae611d50565b029392505050565b6000816000190483118215151615611cd057611cd0611d50565b500290565b600082821015611ce757611ce7611d50565b500390565b600181811c90821680611d0057607f821691505b6020821081141561188c57634e487b7160e01b600052602260045260246000fd5b6000600019821415611d3557611d35611d50565b5060010190565b600082611d4b57611d4b611d66565b500690565b634e487b7160e01b600052601160045260246000fd5b634e487b7160e01b600052601260045260246000fd5b634e487b7160e01b600052603260045260246000fd5b634e487b7160e01b600052604160045260246000fd5b8015158114610de957600080fdfe68747470733a2f2f6170692e6578616d706c652e636f6d2f6765744461746142794f726465724964a2646970667358221220342bfbdbe03fb36f00c651001e8138498f8b78d0c64565ba3286cdc2514fd1b164736f6c63430008070033",
  "linkReferences": {},
  "deployedLinkReferences": {}
}