{
  "_format": "hh-sol-artifact-1",
  "contractName": "CtMultCall",
  "sourceName": "contracts/exchange-v2/contracts/CtMultCall.sol",
  "abi": [
    {
      "inputs": [],
      "stateMutability": "nonpayable",
      "type": "constructor"
    },
    {
      "inputs": [
        {
          "internalType": "address",
          "name": "from",
          "type": "address"
        },
        {
          "internalType": "address",
          "name": "token",
          "type": "address"
        },
        {
          "internalType": "uint256",
          "name": "tokenId",
          "type": "uint256"
        }
      ],
      "name": "queryBalanceAndTokenBalance",
      "outputs": [
        {
          "internalType": "uint256",
          "name": "balance",
          "type": "uint256"
        },
        {
          "internalType": "uint256",
          "name": "tokenBalance",
          "type": "uint256"
        }
      ],
      "stateMutability": "view",
      "type": "function"
    }
  ],
  "bytecode": "0x608060405234801561001057600080fd5b506101b4806100206000396000f3fe608060405234801561001057600080fd5b506004361061002b5760003560e01c80634e0de2f714610030575b600080fd5b61004361003e366004610104565b61005a565b604051610051929190610170565b60405180910390f35b604051627eeac760e11b81526001600160a01b03808516319160009185169062fdd58e9061008e9088908790600401610157565b60206040518083038186803b1580156100a657600080fd5b505afa1580156100ba573d6000803e3d6000fd5b505050506040513d601f19601f820116820180604052508101906100de919061013f565b9050935093915050565b80356001600160a01b03811681146100ff57600080fd5b919050565b600080600060608486031215610118578283fd5b610121846100e8565b925061012f602085016100e8565b9150604084013590509250925092565b600060208284031215610150578081fd5b5051919050565b6001600160a01b03929092168252602082015260400190565b91825260208201526040019056fea2646970667358221220b67d647067ba6aaaa9c66e83c9606d9ce0ca2f0243c45e5c44e1cdd85729770564736f6c63430007060033",
  "linkReferences": {},
  "deployedLinkReferences": {}
}