{
  "_format": "hh-sol-artifact-1",
  "contractName": "CtMultCall",
  "sourceName": "contracts/exchange-v2/contracts/CtMultCall.sol",
  "abi": [
    {
      "inputs": [],
      "stateMutability": "nonpayable",
      "type": "constructor"
    },
    {
      "inputs": [
        {
          "internalType": "address",
          "name": "_from",
          "type": "address"
        },
        {
          "internalType": "address",
          "name": "_token",
          "type": "address"
        },
        {
          "internalType": "uint256",
          "name": "_tokenId",
          "type": "uint256"
        },
        {
          "internalType": "uint256",
          "name": "_type",
          "type": "uint256"
        }
      ],
      "name": "queryBalanceAndTokenBalance",
      "outputs": [
        {
          "internalType": "uint256",
          "name": "balance",
          "type": "uint256"
        },
        {
          "internalType": "uint256",
          "name": "tokenBalance",
          "type": "uint256"
        }
      ],
      "stateMutability": "view",
      "type": "function"
    }
  ],
  "bytecode": "0x608060405234801561001057600080fd5b506102a1806100206000396000f3fe608060405234801561001057600080fd5b506004361061002b5760003560e01c8063eacc36f214610030575b600080fd5b61004361003e3660046101d7565b61005a565b60405161005192919061025d565b60405180910390f35b6001600160a01b03841631600060148314156100f3576040516370a0823160e01b81526001600160a01b038616906370a082319061009c908990600401610230565b60206040518083038186803b1580156100b457600080fd5b505afa1580156100c8573d6000803e3d6000fd5b505050506040513d601f19601f820116820180604052508101906100ec9190610218565b90506101b2565b826102d11415610129576040516370a0823160e01b81526001600160a01b038616906370a082319061009c908990600401610230565b8261048314156101b257604051627eeac760e11b81526001600160a01b0386169062fdd58e9061015f9089908890600401610244565b60206040518083038186803b15801561017757600080fd5b505afa15801561018b573d6000803e3d6000fd5b505050506040513d601f19601f820116820180604052508101906101af9190610218565b90505b94509492505050565b80356001600160a01b03811681146101d257600080fd5b919050565b600080600080608085870312156101ec578384fd5b6101f5856101bb565b9350610203602086016101bb565b93969395505050506040820135916060013590565b600060208284031215610229578081fd5b5051919050565b6001600160a01b0391909116815260200190565b6001600160a01b03929092168252602082015260400190565b91825260208201526040019056fea2646970667358221220ef1236055ccc96bb122a99c90e4dd405de53bbbee9cee0d8d7c29ef25a6875c164736f6c63430007060033",
  "linkReferences": {},
  "deployedLinkReferences": {}
}