{
  "_format": "hh-sol-artifact-1",
  "contractName": "CtnftMToken",
  "sourceName": "contracts/mint/CtnftMToken.sol",
  "abi": [
    {
      "inputs": [
        {
          "internalType": "string",
          "name": "_name",
          "type": "string"
        },
        {
          "internalType": "string",
          "name": "_symbol",
          "type": "string"
        },
        {
          "internalType": "string",
          "name": "contractURI",
          "type": "string"
        },
        {
          "internalType": "string",
          "name": "tokenURIPrefix",
          "type": "string"
        }
      ],
      "payable": false,
      "stateMutability": "nonpayable",
      "type": "constructor"
    },
    {
      "anonymous": false,
      "inputs": [
        {
          "indexed": true,
          "internalType": "address",
          "name": "_owner",
          "type": "address"
        },
        {
          "indexed": true,
          "internalType": "address",
          "name": "_operator",
          "type": "address"
        },
        {
          "indexed": false,
          "internalType": "bool",
          "name": "_approved",
          "type": "bool"
        }
      ],
      "name": "ApprovalForAll",
      "type": "event"
    },
    {
      "anonymous": false,
      "inputs": [
        {
          "indexed": true,
          "internalType": "address",
          "name": "previousOwner",
          "type": "address"
        },
        {
          "indexed": true,
          "internalType": "address",
          "name": "newOwner",
          "type": "address"
        }
      ],
      "name": "OwnershipTransferred",
      "type": "event"
    },
    {
      "anonymous": false,
      "inputs": [
        {
          "indexed": false,
          "internalType": "uint256",
          "name": "tokenId",
          "type": "uint256"
        },
        {
          "indexed": false,
          "internalType": "address[]",
          "name": "recipients",
          "type": "address[]"
        },
        {
          "indexed": false,
          "internalType": "uint256[]",
          "name": "bps",
          "type": "uint256[]"
        }
      ],
      "name": "SecondarySaleFees",
      "type": "event"
    },
    {
      "anonymous": false,
      "inputs": [
        {
          "indexed": true,
          "internalType": "address",
          "name": "account",
          "type": "address"
        }
      ],
      "name": "SignerAdded",
      "type": "event"
    },
    {
      "anonymous": false,
      "inputs": [
        {
          "indexed": true,
          "internalType": "address",
          "name": "account",
          "type": "address"
        }
      ],
      "name": "SignerRemoved",
      "type": "event"
    },
    {
      "anonymous": false,
      "inputs": [
        {
          "indexed": true,
          "internalType": "address",
          "name": "_operator",
          "type": "address"
        },
        {
          "indexed": true,
          "internalType": "address",
          "name": "_from",
          "type": "address"
        },
        {
          "indexed": true,
          "internalType": "address",
          "name": "_to",
          "type": "address"
        },
        {
          "indexed": false,
          "internalType": "uint256[]",
          "name": "_ids",
          "type": "uint256[]"
        },
        {
          "indexed": false,
          "internalType": "uint256[]",
          "name": "_values",
          "type": "uint256[]"
        }
      ],
      "name": "TransferBatch",
      "type": "event"
    },
    {
      "anonymous": false,
      "inputs": [
        {
          "indexed": true,
          "internalType": "address",
          "name": "_operator",
          "type": "address"
        },
        {
          "indexed": true,
          "internalType": "address",
          "name": "_from",
          "type": "address"
        },
        {
          "indexed": true,
          "internalType": "address",
          "name": "_to",
          "type": "address"
        },
        {
          "indexed": false,
          "internalType": "uint256",
          "name": "_id",
          "type": "uint256"
        },
        {
          "indexed": false,
          "internalType": "uint256",
          "name": "_value",
          "type": "uint256"
        }
      ],
      "name": "TransferSingle",
      "type": "event"
    },
    {
      "anonymous": false,
      "inputs": [
        {
          "indexed": false,
          "internalType": "string",
          "name": "_value",
          "type": "string"
        },
        {
          "indexed": true,
          "internalType": "uint256",
          "name": "_id",
          "type": "uint256"
        }
      ],
      "name": "URI",
      "type": "event"
    },
    {
      "constant": false,
      "inputs": [
        {
          "internalType": "address",
          "name": "account",
          "type": "address"
        }
      ],
      "name": "addSigner",
      "outputs": [],
      "payable": false,
      "stateMutability": "nonpayable",
      "type": "function"
    },
    {
      "constant": true,
      "inputs": [
        {
          "internalType": "address",
          "name": "_owner",
          "type": "address"
        },
        {
          "internalType": "uint256",
          "name": "_id",
          "type": "uint256"
        }
      ],
      "name": "balanceOf",
      "outputs": [
        {
          "internalType": "uint256",
          "name": "",
          "type": "uint256"
        }
      ],
      "payable": false,
      "stateMutability": "view",
      "type": "function"
    },
    {
      "constant": true,
      "inputs": [
        {
          "internalType": "address[]",
          "name": "_owners",
          "type": "address[]"
        },
        {
          "internalType": "uint256[]",
          "name": "_ids",
          "type": "uint256[]"
        }
      ],
      "name": "balanceOfBatch",
      "outputs": [
        {
          "internalType": "uint256[]",
          "name": "",
          "type": "uint256[]"
        }
      ],
      "payable": false,
      "stateMutability": "view",
      "type": "function"
    },
    {
      "constant": false,
      "inputs": [
        {
          "internalType": "address",
          "name": "_owner",
          "type": "address"
        },
        {
          "internalType": "uint256",
          "name": "_id",
          "type": "uint256"
        },
        {
          "internalType": "uint256",
          "name": "_value",
          "type": "uint256"
        }
      ],
      "name": "burn",
      "outputs": [],
      "payable": false,
      "stateMutability": "nonpayable",
      "type": "function"
    },
    {
      "constant": true,
      "inputs": [],
      "name": "contractURI",
      "outputs": [
        {
          "internalType": "string",
          "name": "",
          "type": "string"
        }
      ],
      "payable": false,
      "stateMutability": "view",
      "type": "function"
    },
    {
      "constant": true,
      "inputs": [
        {
          "internalType": "uint256",
          "name": "",
          "type": "uint256"
        }
      ],
      "name": "creators",
      "outputs": [
        {
          "internalType": "address",
          "name": "",
          "type": "address"
        }
      ],
      "payable": false,
      "stateMutability": "view",
      "type": "function"
    },
    {
      "constant": true,
      "inputs": [
        {
          "internalType": "uint256",
          "name": "",
          "type": "uint256"
        },
        {
          "internalType": "uint256",
          "name": "",
          "type": "uint256"
        }
      ],
      "name": "fees",
      "outputs": [
        {
          "internalType": "address payable",
          "name": "recipient",
          "type": "address"
        },
        {
          "internalType": "uint256",
          "name": "value",
          "type": "uint256"
        }
      ],
      "payable": false,
      "stateMutability": "view",
      "type": "function"
    },
    {
      "constant": true,
      "inputs": [
        {
          "internalType": "uint256",
          "name": "id",
          "type": "uint256"
        }
      ],
      "name": "getFeeBps",
      "outputs": [
        {
          "internalType": "uint256[]",
          "name": "",
          "type": "uint256[]"
        }
      ],
      "payable": false,
      "stateMutability": "view",
      "type": "function"
    },
    {
      "constant": true,
      "inputs": [
        {
          "internalType": "uint256",
          "name": "id",
          "type": "uint256"
        }
      ],
      "name": "getFeeRecipients",
      "outputs": [
        {
          "internalType": "address payable[]",
          "name": "",
          "type": "address[]"
        }
      ],
      "payable": false,
      "stateMutability": "view",
      "type": "function"
    },
    {
      "constant": true,
      "inputs": [
        {
          "internalType": "address",
          "name": "_owner",
          "type": "address"
        },
        {
          "internalType": "address",
          "name": "_operator",
          "type": "address"
        }
      ],
      "name": "isApprovedForAll",
      "outputs": [
        {
          "internalType": "bool",
          "name": "",
          "type": "bool"
        }
      ],
      "payable": false,
      "stateMutability": "view",
      "type": "function"
    },
    {
      "constant": true,
      "inputs": [],
      "name": "isOwner",
      "outputs": [
        {
          "internalType": "bool",
          "name": "",
          "type": "bool"
        }
      ],
      "payable": false,
      "stateMutability": "view",
      "type": "function"
    },
    {
      "constant": true,
      "inputs": [
        {
          "internalType": "address",
          "name": "account",
          "type": "address"
        }
      ],
      "name": "isSigner",
      "outputs": [
        {
          "internalType": "bool",
          "name": "",
          "type": "bool"
        }
      ],
      "payable": false,
      "stateMutability": "view",
      "type": "function"
    },
    {
      "constant": false,
      "inputs": [
        {
          "components": [
            {
              "internalType": "address payable",
              "name": "recipient",
              "type": "address"
            },
            {
              "internalType": "uint256",
              "name": "value",
              "type": "uint256"
            }
          ],
          "internalType": "struct ERC1155Base.Fee[]",
          "name": "fees",
          "type": "tuple[]"
        },
        {
          "internalType": "uint256",
          "name": "supply",
          "type": "uint256"
        },
        {
          "internalType": "string",
          "name": "uri",
          "type": "string"
        }
      ],
      "name": "mint",
      "outputs": [],
      "payable": false,
      "stateMutability": "nonpayable",
      "type": "function"
    },
    {
      "constant": true,
      "inputs": [],
      "name": "name",
      "outputs": [
        {
          "internalType": "string",
          "name": "",
          "type": "string"
        }
      ],
      "payable": false,
      "stateMutability": "view",
      "type": "function"
    },
    {
      "constant": true,
      "inputs": [],
      "name": "owner",
      "outputs": [
        {
          "internalType": "address",
          "name": "",
          "type": "address"
        }
      ],
      "payable": false,
      "stateMutability": "view",
      "type": "function"
    },
    {
      "constant": false,
      "inputs": [
        {
          "internalType": "address",
          "name": "account",
          "type": "address"
        }
      ],
      "name": "removeSigner",
      "outputs": [],
      "payable": false,
      "stateMutability": "nonpayable",
      "type": "function"
    },
    {
      "constant": false,
      "inputs": [],
      "name": "renounceOwnership",
      "outputs": [],
      "payable": false,
      "stateMutability": "nonpayable",
      "type": "function"
    },
    {
      "constant": false,
      "inputs": [],
      "name": "renounceSigner",
      "outputs": [],
      "payable": false,
      "stateMutability": "nonpayable",
      "type": "function"
    },
    {
      "constant": false,
      "inputs": [
        {
          "internalType": "address",
          "name": "_from",
          "type": "address"
        },
        {
          "internalType": "address",
          "name": "_to",
          "type": "address"
        },
        {
          "internalType": "uint256[]",
          "name": "_ids",
          "type": "uint256[]"
        },
        {
          "internalType": "uint256[]",
          "name": "_values",
          "type": "uint256[]"
        },
        {
          "internalType": "bytes",
          "name": "_data",
          "type": "bytes"
        }
      ],
      "name": "safeBatchTransferFrom",
      "outputs": [],
      "payable": false,
      "stateMutability": "nonpayable",
      "type": "function"
    },
    {
      "constant": false,
      "inputs": [
        {
          "internalType": "address",
          "name": "_from",
          "type": "address"
        },
        {
          "internalType": "address",
          "name": "_to",
          "type": "address"
        },
        {
          "internalType": "uint256",
          "name": "_id",
          "type": "uint256"
        },
        {
          "internalType": "uint256",
          "name": "_value",
          "type": "uint256"
        },
        {
          "internalType": "bytes",
          "name": "_data",
          "type": "bytes"
        }
      ],
      "name": "safeTransferFrom",
      "outputs": [],
      "payable": false,
      "stateMutability": "nonpayable",
      "type": "function"
    },
    {
      "constant": false,
      "inputs": [
        {
          "internalType": "address",
          "name": "_operator",
          "type": "address"
        },
        {
          "internalType": "bool",
          "name": "_approved",
          "type": "bool"
        }
      ],
      "name": "setApprovalForAll",
      "outputs": [],
      "payable": false,
      "stateMutability": "nonpayable",
      "type": "function"
    },
    {
      "constant": false,
      "inputs": [
        {
          "internalType": "string",
          "name": "contractURI",
          "type": "string"
        }
      ],
      "name": "setContractURI",
      "outputs": [],
      "payable": false,
      "stateMutability": "nonpayable",
      "type": "function"
    },
    {
      "constant": false,
      "inputs": [
        {
          "internalType": "string",
          "name": "tokenURIPrefix",
          "type": "string"
        }
      ],
      "name": "setTokenURIPrefix",
      "outputs": [],
      "payable": false,
      "stateMutability": "nonpayable",
      "type": "function"
    },
    {
      "constant": true,
      "inputs": [
        {
          "internalType": "bytes4",
          "name": "interfaceId",
          "type": "bytes4"
        }
      ],
      "name": "supportsInterface",
      "outputs": [
        {
          "internalType": "bool",
          "name": "",
          "type": "bool"
        }
      ],
      "payable": false,
      "stateMutability": "view",
      "type": "function"
    },
    {
      "constant": true,
      "inputs": [],
      "name": "symbol",
      "outputs": [
        {
          "internalType": "string",
          "name": "",
          "type": "string"
        }
      ],
      "payable": false,
      "stateMutability": "view",
      "type": "function"
    },
    {
      "constant": true,
      "inputs": [],
      "name": "tokenURIPrefix",
      "outputs": [
        {
          "internalType": "string",
          "name": "",
          "type": "string"
        }
      ],
      "payable": false,
      "stateMutability": "view",
      "type": "function"
    },
    {
      "constant": true,
      "inputs": [],
      "name": "tokensCount",
      "outputs": [
        {
          "internalType": "uint256",
          "name": "_value",
          "type": "uint256"
        }
      ],
      "payable": false,
      "stateMutability": "view",
      "type": "function"
    },
    {
      "constant": false,
      "inputs": [
        {
          "internalType": "address",
          "name": "newOwner",
          "type": "address"
        }
      ],
      "name": "transferOwnership",
      "outputs": [],
      "payable": false,
      "stateMutability": "nonpayable",
      "type": "function"
    },
    {
      "constant": true,
      "inputs": [
        {
          "internalType": "uint256",
          "name": "_id",
          "type": "uint256"
        }
      ],
      "name": "uri",
      "outputs": [
        {
          "internalType": "string",
          "name": "",
          "type": "string"
        }
      ],
      "payable": false,
      "stateMutability": "view",
      "type": "function"
    }
  ],
  "bytecode": "0x60806040523480156200001157600080fd5b506040516200327738038062003277833981016040819052620000349162000414565b8181818180620000546301ffc9a760e01b6001600160e01b03620001bf16565b6200006f632dde656160e21b6001600160e01b03620001bf16565b6000620000846001600160e01b036200021a16565b600180546001600160a01b0319166001600160a01b038316908117909155604051919250906000907f8be0079c531659141344cd1fd0a4f28419497f9722a3daafe3b4186f6b6457e0908290a350620000f8620000e96001600160e01b036200021a16565b6001600160e01b036200021f16565b80516200010d90600390602084019062000316565b50508151620001259150600590602084019062000316565b506200014163e8a3d48560e01b6001600160e01b03620001bf16565b506200015d636cdb3d1360e11b6001600160e01b03620001bf16565b505083516200017490600b90602087019062000316565b5082516200018a90600c90602086019062000316565b50620001b56040516200019d90620005c8565b6040519081900390206001600160e01b03620001bf16565b50505050620006a1565b6001600160e01b03198082161415620001f55760405162461bcd60e51b8152600401620001ec90620005ed565b60405180910390fd5b6001600160e01b0319166000908152602081905260409020805460ff19166001179055565b335b90565b6200023a8160026200027160201b62001a911790919060201c565b6040516001600160a01b038216907f47d1c22a25bb3a5d4e481b9b1e6944c2eade3181a0a20b495ed61d35b5323f2490600090a250565b6200028682826001600160e01b03620002cb16565b15620002a65760405162461bcd60e51b8152600401620001ec90620005db565b6001600160a01b0316600090815260209190915260409020805460ff19166001179055565b60006001600160a01b038216620002f65760405162461bcd60e51b8152600401620001ec90620005ff565b506001600160a01b03166000908152602091909152604090205460ff1690565b828054600181600116156101000203166002900490600052602060002090601f016020900481019282601f106200035957805160ff191683800117855562000389565b8280016001018555821562000389579182015b82811115620003895782518255916020019190600101906200036c565b50620003979291506200039b565b5090565b6200021c91905b80821115620003975760008155600101620003a2565b600082601f830112620003ca57600080fd5b8151620003e1620003db8262000638565b62000611565b91508082526020830160208301858383011115620003fe57600080fd5b6200040b8382846200066e565b50505092915050565b600080600080608085870312156200042b57600080fd5b84516001600160401b038111156200044257600080fd5b6200045087828801620003b8565b94505060208501516001600160401b038111156200046d57600080fd5b6200047b87828801620003b8565b93505060408501516001600160401b038111156200049857600080fd5b620004a687828801620003b8565b92505060608501516001600160401b03811115620004c357600080fd5b620004d187828801620003b8565b91505092959194509250565b6000620004ec601f8362000660565b7f526f6c65733a206163636f756e7420616c72656164792068617320726f6c6500815260200192915050565b600062000527601c8362000660565b7f4552433136353a20696e76616c696420696e7465726661636520696400000000815260200192915050565b60006200056260228362000660565b7f526f6c65733a206163636f756e7420697320746865207a65726f206164647265815261737360f01b602082015260400192915050565b6000620005a860118362000669565b704d494e545f574954485f4144445245535360781b815260110192915050565b6000620005d58262000599565b92915050565b60208082528101620005d581620004dd565b60208082528101620005d58162000518565b60208082528101620005d58162000553565b6040518181016001600160401b03811182821017156200063057600080fd5b604052919050565b60006001600160401b038211156200064f57600080fd5b506020601f91909101601f19160190565b90815260200190565b919050565b60005b838110156200068b57818101518382015260200162000671565b838111156200069b576000848401525b50505050565b612bc680620006b16000396000f3fe608060405234801561001057600080fd5b50600436106101ce5760003560e01c8063938e3d7b11610104578063cd53d08e116100a2578063eb12d61e11610071578063eb12d61e146103b2578063f242432a146103c5578063f2fde38b146103d8578063f5298aca146103eb576101ce565b8063cd53d08e1461037c578063e5c8b03d1461038f578063e8a3d48514610397578063e985e9c51461039f576101ce565b8063a22cb465116100de578063a22cb46514610339578063a64ed8ba1461034c578063b9c4d9fb14610354578063c0ac998314610374576101ce565b8063938e3d7b1461030b57806395d89b411461031e57806399e0dd7c14610326576101ce565b80634e1273f4116101715780637df73e271161014b5780637df73e27146102c85780638ba7f0e3146102db5780638da5cb5b146102ee5780638f32d59b14610303576101ce565b80634e1273f41461028c5780636308f1cd1461029f578063715018a6146102c0576101ce565b80630e316ab7116101ad5780630e316ab7146102315780630e89341c146102465780630ebd4c7f146102595780632eb2c2d614610279576101ce565b8062fdd58e146101d357806301ffc9a7146101fc57806306fdde031461021c575b600080fd5b6101e66101e1366004611f4e565b6103fe565b6040516101f39190612a10565b60405180910390f35b61020f61020a3660046120a9565b610428565b6040516101f391906128d1565b610224610447565b6040516101f391906128df565b61024461023f366004611d70565b6104d5565b005b610224610254366004612119565b61050e565b61026c610267366004612119565b610519565b6040516101f391906128c0565b610244610287366004611dc8565b61060c565b61026c61029a366004611fcb565b610902565b6102b26102ad366004612137565b6109dc565b6040516101f39291906127b5565b610244610a1f565b61020f6102d6366004611d70565b610a8d565b6102446102e9366004612039565b610aa0565b6102f6610aca565b6040516101f391906127a7565b61020f610ada565b6102446103193660046120e5565b610b00565b610224610b2d565b6102446103343660046120e5565b610b88565b610244610347366004611f1e565b610bb5565b6101e6610c24565b610367610362366004612119565b610c2a565b6040516101f3919061287e565b610224610d22565b6102f661038a366004612119565b610d7d565b610244610d98565b610224610daa565b61020f6103ad366004611d8e565b610e05565b6102446103c0366004611d70565b610e33565b6102446103d3366004611e8f565b610e60565b6102446103e6366004611d70565b61101a565b6102446103f9366004611f7e565b611047565b60008181526006602090815260408083206001600160a01b03861684529091529020545b92915050565b6001600160e01b03191660009081526020819052604090205460ff1690565b600b805460408051602060026001851615610100026000190190941693909304601f810184900484028201840190925281815292918301828280156104cd5780601f106104a2576101008083540402835291602001916104cd565b820191906000526020600020905b8154815290600101906020018083116104b057829003601f168201915b505050505081565b6104dd610ada565b6105025760405162461bcd60e51b81526004016104f990612980565b60405180910390fd5b61050b8161113f565b50565b606061042282611187565b60008181526009602090815260408083208054825181850281018501909352808352606094859484015b8282101561058b576000848152602090819020604080518082019091526002850290910180546001600160a01b03168252600190810154828401529083529092019101610543565b505050509050606081516040519080825280602002602001820160405280156105be578160200160208202803883390190505b50905060005b8251811015610604578281815181106105d957fe5b6020026020010151602001518282815181106105f157fe5b60209081029190910101526001016105c4565b509392505050565b6001600160a01b0387166106325760405162461bcd60e51b81526004016104f990612930565b8483146106515760405162461bcd60e51b81526004016104f9906129c0565b6001600160a01b03881633148061069057506001600160a01b038816600090815260076020908152604080832033845290915290205460ff1615156001145b6106ac5760405162461bcd60e51b81526004016104f990612960565b60005b858110156107e15760008787838181106106c557fe5b90506020020135905060008686848181106106dc57fe5b90506020020135905061072e816006600085815260200190815260200160002060008e6001600160a01b03166001600160a01b03168152602001908152602001600020546112c290919063ffffffff16565b6006600084815260200190815260200160002060008d6001600160a01b03166001600160a01b03168152602001908152602001600020819055506107b16006600084815260200190815260200160002060008c6001600160a01b03166001600160a01b0316815260200190815260200160002054826112d490919063ffffffff16565b60009283526006602090815260408085206001600160a01b038e16865290915290922091909155506001016106af565b50866001600160a01b0316886001600160a01b0316336001600160a01b03167f4a39dc06d4c0dbc64b70af90fd698a233a518aa5d07e595d983b8c0526c8f7fb89898989604051610835949392919061288f565b60405180910390a461084f876001600160a01b03166112e1565b156108f8576108f833898989898080602002602001604051908101604052809392919081815260200183836020028082843760009201919091525050604080516020808d0282810182019093528c82529093508c92508b91829185019084908082843760009201919091525050604080516020601f8c018190048102820181019092528a815292508a915089908190840183828082843760009201919091525061131d92505050565b5050505050505050565b606083821461091057600080fd5b60408051858152602080870282010190915260609085801561093c578160200160208202803883390190505b50905060005b858110156109d2576006600086868481811061095a57fe5b905060200201358152602001908152602001600020600088888481811061097d57fe5b90506020020160206109929190810190611d70565b6001600160a01b03166001600160a01b03168152602001908152602001600020548282815181106109bf57fe5b6020908102919091010152600101610942565b5095945050505050565b600960205281600052604060002081815481106109f557fe5b6000918252602090912060029091020180546001909101546001600160a01b039091169250905082565b610a27610ada565b610a435760405162461bcd60e51b81526004016104f990612980565b6001546040516000916001600160a01b0316907f8be0079c531659141344cd1fd0a4f28419497f9722a3daafe3b4186f6b6457e0908390a3600180546001600160a01b0319169055565b600061042260028363ffffffff6113cc16565b610aaa600d611414565b6000610ab6600d61141d565b9050610ac481858585611421565b50505050565b6001546001600160a01b03165b90565b6001546000906001600160a01b0316610af161176f565b6001600160a01b031614905090565b610b08610ada565b610b245760405162461bcd60e51b81526004016104f990612980565b61050b81611773565b600c805460408051602060026001851615610100026000190190941693909304601f810184900484028201840190925281815292918301828280156104cd5780601f106104a2576101008083540402835291602001916104cd565b610b90610ada565b610bac5760405162461bcd60e51b81526004016104f990612980565b61050b8161178a565b3360008181526007602090815260408083206001600160a01b038716808552925291829020805460ff191685151517905590519091907f17307eab39ab6107e8899845ad3d59bd9653f200f220920489ca2b5937696c3190610c189085906128d1565b60405180910390a35050565b600d5481565b60008181526009602090815260408083208054825181850281018501909352808352606094859484015b82821015610c9c576000848152602090819020604080518082019091526002850290910180546001600160a01b03168252600190810154828401529083529092019101610c54565b50505050905060608151604051908082528060200260200182016040528015610ccf578160200160208202803883390190505b50905060005b825181101561060457828181518110610cea57fe5b602002602001015160000151828281518110610d0257fe5b6001600160a01b0390921660209283029190910190910152600101610cd5565b6003805460408051602060026001851615610100026000190190941693909304601f810184900484028201840190925281815292918301828280156104cd5780601f106104a2576101008083540402835291602001916104cd565b6008602052600090815260409020546001600160a01b031681565b610da8610da361176f565b61113f565b565b6005805460408051602060026001851615610100026000190190941693909304601f810184900484028201840190925281815292918301828280156104cd5780601f106104a2576101008083540402835291602001916104cd565b6001600160a01b03918216600090815260076020908152604080832093909416825291909152205460ff1690565b610e3b610ada565b610e575760405162461bcd60e51b81526004016104f990612980565b61050b8161179d565b6001600160a01b038516610e865760405162461bcd60e51b81526004016104f9906129f0565b6001600160a01b038616331480610ec557506001600160a01b038616600090815260076020908152604080832033845290915290205460ff1615156001145b610ee15760405162461bcd60e51b81526004016104f990612960565b60008481526006602090815260408083206001600160a01b038a168452909152902054610f14908463ffffffff6112c216565b60008581526006602090815260408083206001600160a01b038b81168552925280832093909355871681522054610f4c9084906112d4565b60008581526006602090815260408083206001600160a01b03808b168086529190935292819020939093559151909188169033907fc3d58168c5ae7397731d063d5bbf3d657854427343f4c083240f7aacaa2d0f6290610faf9089908990612a5b565b60405180910390a4610fc9856001600160a01b03166112e1565b1561101257611012338787878787878080601f0160208091040260200160405190810160405280939291908181526020018383808284376000920191909152506117e592505050565b505050505050565b611022610ada565b61103e5760405162461bcd60e51b81526004016104f990612980565b61050b81611894565b6001600160a01b03831633148061108657506001600160a01b038316600090815260076020908152604080832033845290915290205460ff1615156001145b6110a25760405162461bcd60e51b81526004016104f990612950565b60008281526006602090815260408083206001600160a01b03871684529091529020546110d5908263ffffffff6112c216565b60008381526006602090815260408083206001600160a01b038816808552925280832093909355915190919033907fc3d58168c5ae7397731d063d5bbf3d657854427343f4c083240f7aacaa2d0f62906111329087908790612a5b565b60405180910390a4505050565b61115060028263ffffffff61191616565b6040516001600160a01b038216907f3525e22824a8a7df2c9a6029941c824cf95b6447f1e13d5128fd3826d35afe8b90600090a250565b6000818152600460209081526040918290208054835160026001831615610100026000190190921691909104601f8101849004840282018401909452838152606093610422939192918301828280156112215780601f106111f657610100808354040283529160200191611221565b820191906000526020600020905b81548152906001019060200180831161120457829003601f168201915b505060038054604080516020601f60026000196101006001881615020190951694909404938401819004810282018101909252828152955091935091508301828280156112af5780601f10611284576101008083540402835291602001916112af565b820191906000526020600020905b81548152906001019060200180831161129257829003601f168201915b505050505061195e90919063ffffffff16565b6000828211156112ce57fe5b50900390565b8181018281101561042257fe5b6000813f7fc5d2460186f7233c927e7db2dcc703c0e500b653ca82273b7bfad8045d85a47081811480159061131557508115155b949350505050565b60405163bc197c8160e01b808252906001600160a01b0386169063bc197c8190611353908a908a908990899089906004016127d7565b602060405180830381600087803b15801561136d57600080fd5b505af1158015611381573d6000803e3d6000fd5b505050506040513d601f19601f820116820180604052506113a591908101906120c7565b6001600160e01b031916146110125760405162461bcd60e51b81526004016104f990612970565b60006001600160a01b0382166113f45760405162461bcd60e51b81526004016104f990612990565b506001600160a01b03166000908152602091909152604090205460ff1690565b80546001019055565b5490565b6000848152600860205260409020546001600160a01b0316156114565760405162461bcd60e51b81526004016104f9906129a0565b816114735760405162461bcd60e51b81526004016104f9906129b0565b60008151116114945760405162461bcd60e51b81526004016104f990612a00565b60008481526008602090815260409182902080546001600160a01b0319163317905584518251818152818302810190920190925260609180156114e1578160200160208202803883390190505b50905060608451604051908082528060200260200182016040528015611511578160200160208202803883390190505b50905060005b85518110156116845760006001600160a01b031686828151811061153757fe5b6020026020010151600001516001600160a01b0316141561156a5760405162461bcd60e51b81526004016104f9906129d0565b85818151811061157657fe5b602002602001015160200151600014156115a25760405162461bcd60e51b81526004016104f9906128f0565b600087815260096020526040902086518790839081106115be57fe5b602090810291909101810151825460018082018555600094855293839020825160029092020180546001600160a01b0319166001600160a01b03909216919091178155910151910155855186908290811061161557fe5b60200260200101516000015183828151811061162d57fe5b60200260200101906001600160a01b031690816001600160a01b03168152505085818151811061165957fe5b60200260200101516020015182828151811061167157fe5b6020908102919091010152600101611517565b508451156116c8577f99aba1d63749cfd5ad1afda7c4663840924d54eb5f005bbbeadedc6ec13674b28683836040516116bf93929190612a1e565b60405180910390a15b600086815260066020908152604080832033845290915290208490556116ee8684611a53565b604051339060009082907fc3d58168c5ae7397731d063d5bbf3d657854427343f4c083240f7aacaa2d0f6290611727908b908a90612a5b565b60405180910390a4857f6bb7ff708619ba0610cba295a58592e0451dee2622938c8755667688daf3529b8460405161175f91906128df565b60405180910390a2505050505050565b3390565b8051611786906005906020840190611b01565b5050565b8051611786906003906020840190611b01565b6117ae60028263ffffffff611a9116565b6040516001600160a01b038216907f47d1c22a25bb3a5d4e481b9b1e6944c2eade3181a0a20b495ed61d35b5323f2490600090a250565b60405163f23a6e6160e01b808252906001600160a01b0386169063f23a6e619061181b908a908a90899089908990600401612837565b602060405180830381600087803b15801561183557600080fd5b505af1158015611849573d6000803e3d6000fd5b505050506040513d601f19601f8201168201806040525061186d91908101906120c7565b6001600160e01b031916146110125760405162461bcd60e51b81526004016104f9906129e0565b6001600160a01b0381166118ba5760405162461bcd60e51b81526004016104f990612910565b6001546040516001600160a01b038084169216907f8be0079c531659141344cd1fd0a4f28419497f9722a3daafe3b4186f6b6457e090600090a3600180546001600160a01b0319166001600160a01b0392909216919091179055565b61192082826113cc565b61193c5760405162461bcd60e51b81526004016104f990612940565b6001600160a01b0316600090815260209190915260409020805460ff19169055565b6060808390506060839050606081518351016040519080825280601f01601f19166020018201604052801561199a576020820181803883390190505b5090506000805b84518110156119f2578481815181106119b657fe5b602001015160f81c60f81b8383806001019450815181106119d357fe5b60200101906001600160f81b031916908160001a9053506001016119a1565b5060005b8351811015611a4757838181518110611a0b57fe5b602001015160f81c60f81b838380600101945081518110611a2857fe5b60200101906001600160f81b031916908160001a9053506001016119f6565b50909695505050505050565b6000828152600860205260409020546001600160a01b0316611a875760405162461bcd60e51b81526004016104f990612920565b6117868282611add565b611a9b82826113cc565b15611ab85760405162461bcd60e51b81526004016104f990612900565b6001600160a01b0316600090815260209190915260409020805460ff19166001179055565b60008281526004602090815260409091208251611afc92840190611b01565b505050565b828054600181600116156101000203166002900490600052602060002090601f016020900481019282601f10611b4257805160ff1916838001178555611b6f565b82800160010185558215611b6f579182015b82811115611b6f578251825591602001919060010190611b54565b50611b7b929150611b7f565b5090565b610ad791905b80821115611b7b5760008155600101611b85565b803561042281612b54565b60008083601f840112611bb657600080fd5b5081356001600160401b03811115611bcd57600080fd5b602083019150836020820283011115611be557600080fd5b9250929050565b600082601f830112611bfd57600080fd5b8135611c10611c0b82612a8f565b612a69565b91508181835260208401935060208101905083856040840282011115611c3557600080fd5b60005b83811015611c635781611c4b8882611d1e565b84525060209092019160409190910190600101611c38565b5050505092915050565b803561042281612b68565b803561042281612b71565b805161042281612b71565b60008083601f840112611ca057600080fd5b5081356001600160401b03811115611cb757600080fd5b602083019150836001820283011115611be557600080fd5b600082601f830112611ce057600080fd5b8135611cee611c0b82612aaf565b91508082526020830160208301858383011115611d0a57600080fd5b611d15838284612b12565b50505092915050565b600060408284031215611d3057600080fd5b611d3a6040612a69565b90506000611d488484611b99565b8252506020611d5984848301611d65565b60208301525092915050565b803561042281612b7a565b600060208284031215611d8257600080fd5b60006113158484611b99565b60008060408385031215611da157600080fd5b6000611dad8585611b99565b9250506020611dbe85828601611b99565b9150509250929050565b60008060008060008060008060a0898b031215611de457600080fd5b6000611df08b8b611b99565b9850506020611e018b828c01611b99565b97505060408901356001600160401b03811115611e1d57600080fd5b611e298b828c01611ba4565b965096505060608901356001600160401b03811115611e4757600080fd5b611e538b828c01611ba4565b945094505060808901356001600160401b03811115611e7157600080fd5b611e7d8b828c01611c8e565b92509250509295985092959890939650565b60008060008060008060a08789031215611ea857600080fd5b6000611eb48989611b99565b9650506020611ec589828a01611b99565b9550506040611ed689828a01611d65565b9450506060611ee789828a01611d65565b93505060808701356001600160401b03811115611f0357600080fd5b611f0f89828a01611c8e565b92509250509295509295509295565b60008060408385031215611f3157600080fd5b6000611f3d8585611b99565b9250506020611dbe85828601611c6d565b60008060408385031215611f6157600080fd5b6000611f6d8585611b99565b9250506020611dbe85828601611d65565b600080600060608486031215611f9357600080fd5b6000611f9f8686611b99565b9350506020611fb086828701611d65565b9250506040611fc186828701611d65565b9150509250925092565b60008060008060408587031215611fe157600080fd5b84356001600160401b03811115611ff757600080fd5b61200387828801611ba4565b945094505060208501356001600160401b0381111561202157600080fd5b61202d87828801611ba4565b95989497509550505050565b60008060006060848603121561204e57600080fd5b83356001600160401b0381111561206457600080fd5b61207086828701611bec565b935050602061208186828701611d65565b92505060408401356001600160401b0381111561209d57600080fd5b611fc186828701611ccf565b6000602082840312156120bb57600080fd5b60006113158484611c78565b6000602082840312156120d957600080fd5b60006113158484611c83565b6000602082840312156120f757600080fd5b81356001600160401b0381111561210d57600080fd5b61131584828501611ccf565b60006020828403121561212b57600080fd5b60006113158484611d65565b6000806040838503121561214a57600080fd5b6000611f6d8585611d65565b60006121628383612176565b505060200190565b6000612162838361279e565b61217f81612ae9565b82525050565b600061219082612adc565b61219a8185612ae0565b93506121a583612ad6565b8060005b838110156121d35781516121bd8882612156565b97506121c883612ad6565b9250506001016121a9565b509495945050505050565b60006121e982612adc565b6121f38185612ae0565b93506121fe83612ad6565b8060005b838110156121d35781516122168882612156565b975061222183612ad6565b925050600101612202565b60006122388385612ae0565b93506001600160fb1b0383111561224e57600080fd5b60208302925061225f838584612b12565b50500190565b600061227082612adc565b61227a8185612ae0565b935061228583612ad6565b8060005b838110156121d357815161229d888261216a565b97506122a883612ad6565b925050600101612289565b61217f81612af4565b60006122c782612adc565b6122d18185612ae0565b93506122e1818560208601612b1e565b6122ea81612b4a565b9093019392505050565b6000612301601c83612ae0565b7f4665652076616c75652073686f756c6420626520706f73697469766500000000815260200192915050565b600061233a601f83612ae0565b7f526f6c65733a206163636f756e7420616c72656164792068617320726f6c6500815260200192915050565b6000612373602683612ae0565b7f4f776e61626c653a206e6577206f776e657220697320746865207a65726f206181526564647265737360d01b602082015260400192915050565b60006123bb602083612ae0565b7f5f736574546f6b656e5552493a20546f6b656e2073686f756c64206578697374815260200192915050565b60006123f4602583612ae0565b7f64657374696e6174696f6e2061646472657373206d757374206265206e6f6e2d8152643d32b9379760d91b602082015260400192915050565b600061243b602183612ae0565b7f526f6c65733a206163636f756e7420646f6573206e6f74206861766520726f6c8152606560f81b602082015260400192915050565b600061247e602b83612ae0565b7f4e656564206f70657261746f7220617070726f76616c20666f7220337264207081526a30b93a3c90313ab937399760a91b602082015260400192915050565b60006124cb602f83612ae0565b7f4e656564206f70657261746f7220617070726f76616c20666f7220337264207081526e30b93a3c903a3930b739b332b9399760891b602082015260400192915050565b600061251c603e83612ae0565b7f636f6e74726163742072657475726e656420616e20756e6b6e6f776e2076616c81527f75652066726f6d206f6e45524331313535426174636852656365697665640000602082015260400192915050565b600061257b602083612ae0565b7f4f776e61626c653a2063616c6c6572206973206e6f7420746865206f776e6572815260200192915050565b60006125b4602283612ae0565b7f526f6c65733a206163636f756e7420697320746865207a65726f206164647265815261737360f01b602082015260400192915050565b60006125f8601783612ae0565b7f546f6b656e20697320616c7265616479206d696e746564000000000000000000815260200192915050565b6000612631601983612ae0565b7f537570706c792073686f756c6420626520706f73697469766500000000000000815260200192915050565b600061266a602983612ae0565b7f5f69647320616e64205f76616c756573206172726179206c656e676874206d7581526839ba1036b0ba31b41760b91b602082015260400192915050565b60006126b5601b83612ae0565b7f526563697069656e742073686f756c642062652070726573656e740000000000815260200192915050565b60006126ee603983612ae0565b7f636f6e74726163742072657475726e656420616e20756e6b6e6f776e2076616c81527f75652066726f6d206f6e45524331313535526563656976656400000000000000602082015260400192915050565b600061274d601583612ae0565b742fba379036bab9ba103132903737b716bd32b9379760591b815260200192915050565b600061277e601183612ae0565b701d5c9a481cda1bdd5b19081899481cd95d607a1b815260200192915050565b61217f81610ad7565b602081016104228284612176565b604081016127c38285612176565b6127d0602083018461279e565b9392505050565b60a081016127e58288612176565b6127f26020830187612176565b81810360408301526128048186612265565b905081810360608301526128188185612265565b9050818103608083015261282c81846122bc565b979650505050505050565b60a081016128458288612176565b6128526020830187612176565b61285f604083018661279e565b61286c606083018561279e565b818103608083015261282c81846122bc565b602080825281016127d081846121de565b604080825281016128a181868861222c565b905081810360208301526128b681848661222c565b9695505050505050565b602080825281016127d08184612265565b6020810161042282846122b3565b602080825281016127d081846122bc565b60208082528101610422816122f4565b602080825281016104228161232d565b6020808252810161042281612366565b60208082528101610422816123ae565b60208082528101610422816123e7565b602080825281016104228161242e565b6020808252810161042281612471565b60208082528101610422816124be565b602080825281016104228161250f565b602080825281016104228161256e565b60208082528101610422816125a7565b60208082528101610422816125eb565b6020808252810161042281612624565b602080825281016104228161265d565b60208082528101610422816126a8565b60208082528101610422816126e1565b6020808252810161042281612740565b6020808252810161042281612771565b60208101610422828461279e565b60608101612a2c828661279e565b8181036020830152612a3e8185612185565b90508181036040830152612a528184612265565b95945050505050565b604081016127c3828561279e565b6040518181016001600160401b0381118282101715612a8757600080fd5b604052919050565b60006001600160401b03821115612aa557600080fd5b5060209081020190565b60006001600160401b03821115612ac557600080fd5b506020601f91909101601f19160190565b60200190565b5190565b90815260200190565b600061042282612b06565b151590565b6001600160e01b03191690565b6001600160a01b031690565b82818337506000910152565b60005b83811015612b39578181015183820152602001612b21565b83811115610ac45750506000910152565b601f01601f191690565b612b5d81612ae9565b811461050b57600080fd5b612b5d81612af4565b612b5d81612af9565b612b5d81610ad756fea365627a7a7231582067bd063014e107057a7a07cb153158c8be769a9b0bfff639a09818b8fcedd9a86c6578706572696d656e74616cf564736f6c63430005110040",
  "linkReferences": {},
  "deployedLinkReferences": {}
}