{
  "_format": "hh-sol-artifact-1",
  "contractName": "CtTransferExecutor",
  "sourceName": "contracts/exchange-v2/contracts/CtTransferExecutor.sol",
  "abi": [
    {
      "inputs": [],
      "stateMutability": "nonpayable",
      "type": "constructor"
    },
    {
      "anonymous": false,
      "inputs": [
        {
          "indexed": false,
          "internalType": "bytes4",
          "name": "assetClass",
          "type": "bytes4"
        },
        {
          "indexed": false,
          "internalType": "address",
          "name": "token",
          "type": "address"
        },
        {
          "indexed": false,
          "internalType": "address",
          "name": "from",
          "type": "address"
        },
        {
          "indexed": false,
          "internalType": "address",
          "name": "to",
          "type": "address"
        },
        {
          "indexed": false,
          "internalType": "uint256",
          "name": "tokenId",
          "type": "uint256"
        },
        {
          "indexed": true,
          "internalType": "uint256",
          "name": "orderId",
          "type": "uint256"
        },
        {
          "indexed": false,
          "internalType": "uint256",
          "name": "value",
          "type": "uint256"
        },
        {
          "indexed": false,
          "internalType": "bytes4",
          "name": "transferDirection",
          "type": "bytes4"
        },
        {
          "indexed": false,
          "internalType": "bytes4",
          "name": "transferType",
          "type": "bytes4"
        }
      ],
      "name": "Transfer",
      "type": "event"
    },
    {
      "inputs": [],
      "name": "TRANSFER_TYPEHASH",
      "outputs": [
        {
          "internalType": "bytes32",
          "name": "",
          "type": "bytes32"
        }
      ],
      "stateMutability": "view",
      "type": "function"
    },
    {
      "inputs": [
        {
          "internalType": "uint256",
          "name": "",
          "type": "uint256"
        }
      ],
      "name": "orders",
      "outputs": [
        {
          "internalType": "bool",
          "name": "",
          "type": "bool"
        }
      ],
      "stateMutability": "view",
      "type": "function"
    },
    {
      "inputs": [
        {
          "internalType": "bytes4",
          "name": "assetClass",
          "type": "bytes4"
        },
        {
          "internalType": "address",
          "name": "token",
          "type": "address"
        },
        {
          "internalType": "address",
          "name": "from",
          "type": "address"
        },
        {
          "internalType": "address",
          "name": "to",
          "type": "address"
        },
        {
          "internalType": "uint256",
          "name": "tokenId",
          "type": "uint256"
        },
        {
          "internalType": "uint256",
          "name": "orderId",
          "type": "uint256"
        },
        {
          "internalType": "uint256",
          "name": "value",
          "type": "uint256"
        },
        {
          "internalType": "bytes4",
          "name": "transferDirection",
          "type": "bytes4"
        },
        {
          "internalType": "bytes4",
          "name": "transferType",
          "type": "bytes4"
        },
        {
          "internalType": "bytes",
          "name": "signature",
          "type": "bytes"
        }
      ],
      "name": "transfer",
      "outputs": [],
      "stateMutability": "payable",
      "type": "function"
    }
  ],
  "bytecode": "0x608060405234801561001057600080fd5b5061005a604051806040016040528060088152602001672a3930b739b332b960c11b815250604051806040016040528060018152602001603160f81b81525061005f60201b60201c565b610141565b600054610100900460ff16806100785750610078610120565b80610086575060005460ff16155b6100c15760405162461bcd60e51b815260040180806020018281038252602e815260200180610e8b602e913960400191505060405180910390fd5b600054610100900460ff161580156100ec576000805460ff1961ff0019909116610100171660011790555b8251602080850191909120835191840191909120600191909155600255801561011b576000805461ff00191690555b505050565b60006101353061013b60201b6104991760201c565b15905090565b3b151590565b610d3b806101506000396000f3fe6080604052600436106100335760003560e01c8062bf26f4146100385780635f0f03a414610063578063a85c38ef14610078575b600080fd5b34801561004457600080fd5b5061004d6100a5565b60405161005a9190610b2f565b60405180910390f35b610076610071366004610918565b6100c9565b005b34801561008457600080fd5b50610098610093366004610a37565b610484565b60405161005a9190610b24565b7f6dfcdad76ee17f50905010c21a315a21c7b2bed80b3413bd0d2a60b76c89990f81565b60008581526035602052604090205460ff16156101015760405162461bcd60e51b81526004016100f890610c53565b60405180910390fd5b336001600160a01b0389161461017b5760007f6dfcdad76ee17f50905010c21a315a21c7b2bed80b3413bd0d2a60b76c89990f8b8b8b8b8b8b8b8b8b6040516020016101569a99989796959493929190610b38565b6040516020818303038152906040528051906020012090506101798982846104a3565b505b6001600160e01b03198a166355575f5d60e11b14156101ac576101a76001600160a01b03881685610529565b610417565b6001600160e01b03198a166322ba176160e21b1415610263576040516323b872dd60e01b81526001600160a01b038a16906323b872dd906101f5908b908b908990600401610a9a565b602060405180830381600087803b15801561020f57600080fd5b505af1158015610223573d6000803e3d6000fd5b505050506040513d601f19601f8201168201806040525081019061024791906108f1565b6101a75760405162461bcd60e51b81526004016100f890610c8a565b6001600160e01b03198a166339d690a360e11b1415610374578360011461029c5760405162461bcd60e51b81526004016100f890610c27565b6001600160a01b03871661030d57604051630852cd8d60e31b81526001600160a01b038a16906342966c68906102d6908990600401610b2f565b600060405180830381600087803b1580156102f057600080fd5b505af1158015610304573d6000803e3d6000fd5b505050506101a7565b604051632142170760e11b81526001600160a01b038a16906342842e0e9061033d908b908b908b90600401610a9a565b600060405180830381600087803b15801561035757600080fd5b505af115801561036b573d6000803e3d6000fd5b50505050610417565b6001600160e01b03198a1663025ceed960e61b14156103ff576001600160a01b0387166103cb57604051637a94c56560e11b81526001600160a01b038a169063f5298aca906102d6908b908a908990600401610b03565b604051637921219560e11b81526001600160a01b038a169063f242432a9061033d908b908b908b908a908890600401610abe565b60405162461bcd60e51b81526004016100f890610bfe565b60008581526035602052604090819020805460ff191660011790555185907fecdb8482f9f0e0660d31e60a051afdc7b9aa78546470590c62c264172368d0a790610470908d908d908d908d908d908c908c908c90610b99565b60405180910390a250505050505050505050565b60356020526000908152604090205460ff1681565b803b15155b919050565b60006104ae836105c6565b90506001600160a01b0384166104c48284610612565b6001600160a01b0316146040518060400160405280601c81526020017f7369676e617475726520766572696669636174696f6e206572726f7200000000815250906105225760405162461bcd60e51b81526004016100f89190610beb565b5050505050565b6040516000906001600160a01b0384169083908381818185875af1925050503d8060008114610574576040519150601f19603f3d011682016040523d82523d6000602084013e610579565b606091505b50509050806105c1576040805162461bcd60e51b815260206004820152600f60248201526e1d1c985b9cd9995c8819985a5b1959608a1b604482015290519081900360640190fd5b505050565b60006105d0610692565b82604051602001808061190160f01b81525060020183815260200182815260200192505050604051602081830303815290604052805190602001209050919050565b6000815160411461066a576040805162461bcd60e51b815260206004820152601f60248201527f45434453413a20696e76616c6964207369676e6174757265206c656e67746800604482015290519081900360640190fd5b60208201516040830151606084015160001a610688868285856106d2565b9695505050505050565b60006106cd7f8b73c3c69bb8fe3d512ecc4cf759cc79239f7b179b0ffacaa9a75d522b39400f6106c0610850565b6106c8610856565b61085c565b905090565b60007f7fffffffffffffffffffffffffffffff5d576e7357a4501ddfe92f46681b20a08211156107335760405162461bcd60e51b8152600401808060200182810382526022815260200180610cc26022913960400191505060405180910390fd5b8360ff16601b148061074857508360ff16601c145b6107835760405162461bcd60e51b8152600401808060200182810382526022815260200180610ce46022913960400191505060405180910390fd5b600060018686868660405160008152602001604052604051808581526020018460ff1681526020018381526020018281526020019450505050506020604051602081039080840390855afa1580156107df573d6000803e3d6000fd5b5050604051601f1901519150506001600160a01b038116610847576040805162461bcd60e51b815260206004820152601860248201527f45434453413a20696e76616c6964207369676e61747572650000000000000000604482015290519081900360640190fd5b95945050505050565b60015490565b60025490565b60008383836108696108be565b3060405160200180868152602001858152602001848152602001838152602001826001600160a01b03168152602001955050505050506040516020818303038152906040528051906020012090509392505050565b4690565b80356001600160a01b038116811461049e57600080fd5b80356001600160e01b03198116811461049e57600080fd5b600060208284031215610902578081fd5b81518015158114610911578182fd5b9392505050565b6000806000806000806000806000806101408b8d031215610937578586fd5b6109408b6108d9565b995061094e60208c016108c2565b985061095c60408c016108c2565b975061096a60608c016108c2565b965060808b0135955060a08b0135945060c08b0135935061098d60e08c016108d9565b925061099c6101008c016108d9565b91506101208b013567ffffffffffffffff808211156109b9578283fd5b818d0191508d601f8301126109cc578283fd5b8135818111156109d857fe5b604051601f8201601f1916810160200183811182821017156109f657fe5b80604052508181528f6020838601011115610a0f578485fd5b816020850160208301378460208383010152809450505050509295989b9194979a5092959850565b600060208284031215610a48578081fd5b5035919050565b60008151808452815b81811015610a7457602081850181015186830182015201610a58565b81811115610a855782602083870101525b50601f01601f19169290920160200192915050565b6001600160a01b039384168152919092166020820152604081019190915260600190565b6001600160a01b03868116825285166020820152604081018490526060810183905260a060808201819052600090610af890830184610a4f565b979650505050505050565b6001600160a01b039390931683526020830191909152604082015260600190565b901515815260200190565b90815260200190565b998a526001600160e01b031998891660208b01526001600160a01b0397881660408b015295871660608a015293909516608088015260a087019190915260c086015260e0850192909252908216610100840152166101208201526101400190565b6001600160e01b031998891681526001600160a01b0397881660208201529587166040870152939095166060850152608084019190915260a083015291831660c0820152911660e08201526101000190565b6000602082526109116020830184610a4f565b6020808252600f908201526e3737ba103337bab732103a37b5b2b760891b604082015260600190565b60208082526012908201527132b9319b9918903b30b63ab29032b93937b960711b604082015260600190565b60208082526019908201527f6f7264657220686173206265656e2070726f6365737365642100000000000000604082015260600190565b6020808252601a908201527f6661696c757265207768696c65207472616e7366657272696e6700000000000060408201526060019056fe45434453413a20696e76616c6964207369676e6174757265202773272076616c756545434453413a20696e76616c6964207369676e6174757265202776272076616c7565a2646970667358221220d58ddf438520a2f27c1e328c1a1caf6f595da6f6ac9470bf19d504b40529c3a464736f6c63430007060033496e697469616c697a61626c653a20636f6e747261637420697320616c726561647920696e697469616c697a6564",
  "linkReferences": {},
  "deployedLinkReferences": {}
}