{
  "_format": "hh-sol-artifact-1",
  "contractName": "ERC1155CtnftOwner",
  "sourceName": "contracts/tokens/contracts/erc-1155/ERC1155CtnftOwner.sol",
  "abi": [
    {
      "anonymous": false,
      "inputs": [
        {
          "indexed": true,
          "internalType": "address",
          "name": "account",
          "type": "address"
        },
        {
          "indexed": true,
          "internalType": "address",
          "name": "operator",
          "type": "address"
        },
        {
          "indexed": false,
          "internalType": "bool",
          "name": "approved",
          "type": "bool"
        }
      ],
      "name": "ApprovalForAll",
      "type": "event"
    },
    {
      "anonymous": false,
      "inputs": [
        {
          "indexed": false,
          "internalType": "address",
          "name": "owner",
          "type": "address"
        },
        {
          "indexed": false,
          "internalType": "string",
          "name": "name",
          "type": "string"
        },
        {
          "indexed": false,
          "internalType": "string",
          "name": "symbol",
          "type": "string"
        }
      ],
      "name": "CreateERC1155Ctnft",
      "type": "event"
    },
    {
      "anonymous": false,
      "inputs": [
        {
          "indexed": false,
          "internalType": "uint256",
          "name": "tokenId",
          "type": "uint256"
        },
        {
          "components": [
            {
              "internalType": "address payable",
              "name": "account",
              "type": "address"
            },
            {
              "internalType": "uint96",
              "name": "value",
              "type": "uint96"
            }
          ],
          "indexed": false,
          "internalType": "struct LibPart.Part[]",
          "name": "creators",
          "type": "tuple[]"
        }
      ],
      "name": "Creators",
      "type": "event"
    },
    {
      "anonymous": false,
      "inputs": [
        {
          "indexed": true,
          "internalType": "address",
          "name": "operator",
          "type": "address"
        },
        {
          "indexed": false,
          "internalType": "bool",
          "name": "hasApproval",
          "type": "bool"
        }
      ],
      "name": "DefaultApproval",
      "type": "event"
    },
    {
      "anonymous": false,
      "inputs": [
        {
          "indexed": true,
          "internalType": "address",
          "name": "previousOwner",
          "type": "address"
        },
        {
          "indexed": true,
          "internalType": "address",
          "name": "newOwner",
          "type": "address"
        }
      ],
      "name": "OwnershipTransferred",
      "type": "event"
    },
    {
      "anonymous": false,
      "inputs": [
        {
          "indexed": false,
          "internalType": "uint256",
          "name": "tokenId",
          "type": "uint256"
        },
        {
          "components": [
            {
              "internalType": "address payable",
              "name": "account",
              "type": "address"
            },
            {
              "internalType": "uint96",
              "name": "value",
              "type": "uint96"
            }
          ],
          "indexed": false,
          "internalType": "struct LibPart.Part[]",
          "name": "royalties",
          "type": "tuple[]"
        }
      ],
      "name": "RoyaltiesSet",
      "type": "event"
    },
    {
      "anonymous": false,
      "inputs": [
        {
          "indexed": false,
          "internalType": "uint256",
          "name": "tokenId",
          "type": "uint256"
        },
        {
          "indexed": false,
          "internalType": "uint256",
          "name": "value",
          "type": "uint256"
        }
      ],
      "name": "Supply",
      "type": "event"
    },
    {
      "anonymous": false,
      "inputs": [
        {
          "indexed": true,
          "internalType": "address",
          "name": "operator",
          "type": "address"
        },
        {
          "indexed": true,
          "internalType": "address",
          "name": "from",
          "type": "address"
        },
        {
          "indexed": true,
          "internalType": "address",
          "name": "to",
          "type": "address"
        },
        {
          "indexed": false,
          "internalType": "uint256[]",
          "name": "ids",
          "type": "uint256[]"
        },
        {
          "indexed": false,
          "internalType": "uint256[]",
          "name": "values",
          "type": "uint256[]"
        }
      ],
      "name": "TransferBatch",
      "type": "event"
    },
    {
      "anonymous": false,
      "inputs": [
        {
          "indexed": true,
          "internalType": "address",
          "name": "operator",
          "type": "address"
        },
        {
          "indexed": true,
          "internalType": "address",
          "name": "from",
          "type": "address"
        },
        {
          "indexed": true,
          "internalType": "address",
          "name": "to",
          "type": "address"
        },
        {
          "indexed": false,
          "internalType": "uint256",
          "name": "id",
          "type": "uint256"
        },
        {
          "indexed": false,
          "internalType": "uint256",
          "name": "value",
          "type": "uint256"
        }
      ],
      "name": "TransferSingle",
      "type": "event"
    },
    {
      "anonymous": false,
      "inputs": [
        {
          "indexed": false,
          "internalType": "string",
          "name": "value",
          "type": "string"
        },
        {
          "indexed": true,
          "internalType": "uint256",
          "name": "id",
          "type": "uint256"
        }
      ],
      "name": "URI",
      "type": "event"
    },
    {
      "inputs": [
        {
          "internalType": "string",
          "name": "_name",
          "type": "string"
        },
        {
          "internalType": "string",
          "name": "_symbol",
          "type": "string"
        },
        {
          "internalType": "string",
          "name": "baseURI",
          "type": "string"
        },
        {
          "internalType": "string",
          "name": "contractURI",
          "type": "string"
        }
      ],
      "name": "__ERC1155Ctnft_init",
      "outputs": [],
      "stateMutability": "nonpayable",
      "type": "function"
    },
    {
      "inputs": [
        {
          "internalType": "address",
          "name": "account",
          "type": "address"
        },
        {
          "internalType": "uint256",
          "name": "id",
          "type": "uint256"
        }
      ],
      "name": "balanceOf",
      "outputs": [
        {
          "internalType": "uint256",
          "name": "",
          "type": "uint256"
        }
      ],
      "stateMutability": "view",
      "type": "function"
    },
    {
      "inputs": [
        {
          "internalType": "address[]",
          "name": "accounts",
          "type": "address[]"
        },
        {
          "internalType": "uint256[]",
          "name": "ids",
          "type": "uint256[]"
        }
      ],
      "name": "balanceOfBatch",
      "outputs": [
        {
          "internalType": "uint256[]",
          "name": "",
          "type": "uint256[]"
        }
      ],
      "stateMutability": "view",
      "type": "function"
    },
    {
      "inputs": [],
      "name": "baseURI",
      "outputs": [
        {
          "internalType": "string",
          "name": "",
          "type": "string"
        }
      ],
      "stateMutability": "view",
      "type": "function"
    },
    {
      "inputs": [
        {
          "internalType": "address",
          "name": "account",
          "type": "address"
        },
        {
          "internalType": "uint256",
          "name": "id",
          "type": "uint256"
        },
        {
          "internalType": "uint256",
          "name": "value",
          "type": "uint256"
        }
      ],
      "name": "burn",
      "outputs": [],
      "stateMutability": "nonpayable",
      "type": "function"
    },
    {
      "inputs": [
        {
          "internalType": "address",
          "name": "account",
          "type": "address"
        },
        {
          "internalType": "uint256[]",
          "name": "ids",
          "type": "uint256[]"
        },
        {
          "internalType": "uint256[]",
          "name": "values",
          "type": "uint256[]"
        }
      ],
      "name": "burnBatch",
      "outputs": [],
      "stateMutability": "nonpayable",
      "type": "function"
    },
    {
      "inputs": [],
      "name": "contractURI",
      "outputs": [
        {
          "internalType": "string",
          "name": "",
          "type": "string"
        }
      ],
      "stateMutability": "view",
      "type": "function"
    },
    {
      "inputs": [
        {
          "internalType": "uint256",
          "name": "",
          "type": "uint256"
        },
        {
          "internalType": "uint256",
          "name": "",
          "type": "uint256"
        }
      ],
      "name": "creators",
      "outputs": [
        {
          "internalType": "address payable",
          "name": "account",
          "type": "address"
        },
        {
          "internalType": "uint96",
          "name": "value",
          "type": "uint96"
        }
      ],
      "stateMutability": "view",
      "type": "function"
    },
    {
      "inputs": [
        {
          "internalType": "uint256",
          "name": "_id",
          "type": "uint256"
        }
      ],
      "name": "getCreators",
      "outputs": [
        {
          "components": [
            {
              "internalType": "address payable",
              "name": "account",
              "type": "address"
            },
            {
              "internalType": "uint96",
              "name": "value",
              "type": "uint96"
            }
          ],
          "internalType": "struct LibPart.Part[]",
          "name": "",
          "type": "tuple[]"
        }
      ],
      "stateMutability": "view",
      "type": "function"
    },
    {
      "inputs": [
        {
          "internalType": "uint256",
          "name": "id",
          "type": "uint256"
        }
      ],
      "name": "getCtnftV2Royalties",
      "outputs": [
        {
          "components": [
            {
              "internalType": "address payable",
              "name": "account",
              "type": "address"
            },
            {
              "internalType": "uint96",
              "name": "value",
              "type": "uint96"
            }
          ],
          "internalType": "struct LibPart.Part[]",
          "name": "",
          "type": "tuple[]"
        }
      ],
      "stateMutability": "view",
      "type": "function"
    },
    {
      "inputs": [
        {
          "internalType": "address",
          "name": "_owner",
          "type": "address"
        },
        {
          "internalType": "address",
          "name": "_operator",
          "type": "address"
        }
      ],
      "name": "isApprovedForAll",
      "outputs": [
        {
          "internalType": "bool",
          "name": "",
          "type": "bool"
        }
      ],
      "stateMutability": "view",
      "type": "function"
    },
    {
      "inputs": [
        {
          "components": [
            {
              "internalType": "uint256",
              "name": "tokenId",
              "type": "uint256"
            },
            {
              "internalType": "string",
              "name": "tokenURI",
              "type": "string"
            },
            {
              "internalType": "uint256",
              "name": "supply",
              "type": "uint256"
            },
            {
              "components": [
                {
                  "internalType": "address payable",
                  "name": "account",
                  "type": "address"
                },
                {
                  "internalType": "uint96",
                  "name": "value",
                  "type": "uint96"
                }
              ],
              "internalType": "struct LibPart.Part[]",
              "name": "creators",
              "type": "tuple[]"
            },
            {
              "components": [
                {
                  "internalType": "address payable",
                  "name": "account",
                  "type": "address"
                },
                {
                  "internalType": "uint96",
                  "name": "value",
                  "type": "uint96"
                }
              ],
              "internalType": "struct LibPart.Part[]",
              "name": "royalties",
              "type": "tuple[]"
            },
            {
              "internalType": "bytes[]",
              "name": "signatures",
              "type": "bytes[]"
            }
          ],
          "internalType": "struct LibERC1155LazyMint.Mint1155Data",
          "name": "data",
          "type": "tuple"
        },
        {
          "internalType": "address",
          "name": "to",
          "type": "address"
        },
        {
          "internalType": "uint256",
          "name": "_amount",
          "type": "uint256"
        }
      ],
      "name": "mintAndTransfer",
      "outputs": [],
      "stateMutability": "nonpayable",
      "type": "function"
    },
    {
      "inputs": [],
      "name": "name",
      "outputs": [
        {
          "internalType": "string",
          "name": "",
          "type": "string"
        }
      ],
      "stateMutability": "view",
      "type": "function"
    },
    {
      "inputs": [],
      "name": "owner",
      "outputs": [
        {
          "internalType": "address",
          "name": "",
          "type": "address"
        }
      ],
      "stateMutability": "view",
      "type": "function"
    },
    {
      "inputs": [],
      "name": "renounceOwnership",
      "outputs": [],
      "stateMutability": "nonpayable",
      "type": "function"
    },
    {
      "inputs": [
        {
          "internalType": "address",
          "name": "from",
          "type": "address"
        },
        {
          "internalType": "address",
          "name": "to",
          "type": "address"
        },
        {
          "internalType": "uint256[]",
          "name": "ids",
          "type": "uint256[]"
        },
        {
          "internalType": "uint256[]",
          "name": "amounts",
          "type": "uint256[]"
        },
        {
          "internalType": "bytes",
          "name": "data",
          "type": "bytes"
        }
      ],
      "name": "safeBatchTransferFrom",
      "outputs": [],
      "stateMutability": "nonpayable",
      "type": "function"
    },
    {
      "inputs": [
        {
          "internalType": "address",
          "name": "from",
          "type": "address"
        },
        {
          "internalType": "address",
          "name": "to",
          "type": "address"
        },
        {
          "internalType": "uint256",
          "name": "id",
          "type": "uint256"
        },
        {
          "internalType": "uint256",
          "name": "amount",
          "type": "uint256"
        },
        {
          "internalType": "bytes",
          "name": "data",
          "type": "bytes"
        }
      ],
      "name": "safeTransferFrom",
      "outputs": [],
      "stateMutability": "nonpayable",
      "type": "function"
    },
    {
      "inputs": [
        {
          "internalType": "address",
          "name": "operator",
          "type": "address"
        },
        {
          "internalType": "bool",
          "name": "approved",
          "type": "bool"
        }
      ],
      "name": "setApprovalForAll",
      "outputs": [],
      "stateMutability": "nonpayable",
      "type": "function"
    },
    {
      "inputs": [
        {
          "internalType": "address",
          "name": "operator",
          "type": "address"
        },
        {
          "internalType": "bool",
          "name": "hasApproval",
          "type": "bool"
        }
      ],
      "name": "setDefaultApproval",
      "outputs": [],
      "stateMutability": "nonpayable",
      "type": "function"
    },
    {
      "inputs": [
        {
          "internalType": "bytes4",
          "name": "interfaceId",
          "type": "bytes4"
        }
      ],
      "name": "supportsInterface",
      "outputs": [
        {
          "internalType": "bool",
          "name": "",
          "type": "bool"
        }
      ],
      "stateMutability": "view",
      "type": "function"
    },
    {
      "inputs": [],
      "name": "symbol",
      "outputs": [
        {
          "internalType": "string",
          "name": "",
          "type": "string"
        }
      ],
      "stateMutability": "view",
      "type": "function"
    },
    {
      "inputs": [
        {
          "components": [
            {
              "internalType": "uint256",
              "name": "tokenId",
              "type": "uint256"
            },
            {
              "internalType": "string",
              "name": "tokenURI",
              "type": "string"
            },
            {
              "internalType": "uint256",
              "name": "supply",
              "type": "uint256"
            },
            {
              "components": [
                {
                  "internalType": "address payable",
                  "name": "account",
                  "type": "address"
                },
                {
                  "internalType": "uint96",
                  "name": "value",
                  "type": "uint96"
                }
              ],
              "internalType": "struct LibPart.Part[]",
              "name": "creators",
              "type": "tuple[]"
            },
            {
              "components": [
                {
                  "internalType": "address payable",
                  "name": "account",
                  "type": "address"
                },
                {
                  "internalType": "uint96",
                  "name": "value",
                  "type": "uint96"
                }
              ],
              "internalType": "struct LibPart.Part[]",
              "name": "royalties",
              "type": "tuple[]"
            },
            {
              "internalType": "bytes[]",
              "name": "signatures",
              "type": "bytes[]"
            }
          ],
          "internalType": "struct LibERC1155LazyMint.Mint1155Data",
          "name": "data",
          "type": "tuple"
        },
        {
          "internalType": "address",
          "name": "from",
          "type": "address"
        },
        {
          "internalType": "address",
          "name": "to",
          "type": "address"
        },
        {
          "internalType": "uint256",
          "name": "amount",
          "type": "uint256"
        }
      ],
      "name": "transferFromOrMint",
      "outputs": [],
      "stateMutability": "nonpayable",
      "type": "function"
    },
    {
      "inputs": [
        {
          "internalType": "address",
          "name": "newOwner",
          "type": "address"
        }
      ],
      "name": "transferOwnership",
      "outputs": [],
      "stateMutability": "nonpayable",
      "type": "function"
    },
    {
      "inputs": [
        {
          "internalType": "uint256",
          "name": "_id",
          "type": "uint256"
        },
        {
          "internalType": "address",
          "name": "_from",
          "type": "address"
        },
        {
          "internalType": "address",
          "name": "_to",
          "type": "address"
        }
      ],
      "name": "updateAccount",
      "outputs": [],
      "stateMutability": "nonpayable",
      "type": "function"
    },
    {
      "inputs": [
        {
          "internalType": "uint256",
          "name": "id",
          "type": "uint256"
        }
      ],
      "name": "uri",
      "outputs": [
        {
          "internalType": "string",
          "name": "",
          "type": "string"
        }
      ],
      "stateMutability": "view",
      "type": "function"
    }
  ],
  "bytecode": "0x608060405234801561001057600080fd5b50614a36806100206000396000f3fe608060405234801561001057600080fd5b50600436106101725760003560e01c806373f139cb116100de578063e07f231911610097578063f242432a11610071578063f242432a1461032b578063f2fde38b1461033e578063f5298aca14610351578063ffc4e0a71461036457610172565b8063e07f2319146102fd578063e8a3d48514610310578063e985e9c51461031857610172565b806373f139cb14610286578063891be974146102995780638da5cb5b146102ac57806395d89b41146102c157806398d0b4fb146102c9578063a22cb465146102ea57610172565b806323e2899f1161013057806323e2899f146102105780632eb2c2d6146102305780634e1273f4146102435780636b20c454146102635780636c0360eb14610276578063715018a61461027e57610172565b8062fdd58e1461017757806301ffc9a7146101a057806306fdde03146101c05780630e89341c146101d55780630eaead67146101e857806318054c37146101fd575b600080fd5b61018a610185366004613f0a565b610377565b60405161019791906145fa565b60405180910390f35b6101b36101ae366004614028565b6103e6565b6040516101979190614394565b6101c86103f9565b604051610197919061439f565b6101c86101e33660046141b5565b610488565b6101fb6101f636600461415e565b610493565b005b6101fb61020b366004613ed9565b6107d1565b61022361021e3660046141b5565b610853565b604051610197919061433d565b6101fb61023e366004613d58565b6108e3565b610256610251366004613f69565b610be1565b6040516101979190614350565b6101fb610271366004613e67565b610ccc565b6101c8610d45565b6101fb610ddd565b6101fb610294366004614050565b610e9b565b6102236102a73660046141b5565b610f8d565b6102b4611008565b60405161019791906142d1565b6101c8611017565b6102dc6102d736600461420e565b611073565b60405161019792919061431b565b6101fb6102f8366004613ed9565b6110bd565b6101fb61030b3660046141cd565b6111ac565b6101c86111ef565b6101b3610326366004613d20565b61124b565b6101fb610339366004613e01565b61125e565b6101fb61034c366004613d04565b611417565b6101fb61035f366004613f35565b61152c565b6101fb6103723660046140f7565b6115a0565b60006001600160a01b0383166103be5760405162461bcd60e51b815260040180806020018281038252602b8152602001806147ae602b913960400191505060405180910390fd5b5060009081526097602090815260408083206001600160a01b03949094168352929052205490565b60006103f1826115fb565b90505b919050565b610262805460408051602060026001851615610100026000190190941693909304601f810184900484028201840190925281815292918301828280156104805780601f1061045557610100808354040283529160200191610480565b820191906000526020600020905b81548152906001019060200180831161046357829003601f168201915b505050505081565b60606103f18261167f565b825160601c6104a0611008565b6001600160a01b0316816001600160a01b0316146104d95760405162461bcd60e51b81526004016104d0906143b2565b60405180910390fd5b60006104e36118bc565b9050806001600160a01b0316826001600160a01b0316148061050a575061050a828261124b565b6105265760405162461bcd60e51b81526004016104d0906144c2565b600083116105465760405162461bcd60e51b81526004016104d090614498565b845160009081526101fc60205260409020546106af57846060015160008151811061056d57fe5b6020026020010151600001516001600160a01b0316826001600160a01b0316146105a95760405162461bcd60e51b81526004016104d090614448565b60008560400151116105cd5760405162461bcd60e51b81526004016104d0906143e9565b8460a0015151856060015151146105e357600080fd5b60006105ee866118c0565b905060005b8660600151518110156106645760008760600151828151811061061257fe5b6020026020010151600001519050836001600160a01b0316816001600160a01b03161461065b5761065b81848a60a00151858151811061064e57fe5b6020026020010151611b13565b506001016105f3565b5061067786600001518760400151611b1e565b61068986600001518760800151611b88565b61069b86600001518760600151611d77565b6106ad86600001518760200151611f26565b505b6106ce8486600001518560405180602001604052806000815250611fea565b836001600160a01b0316826001600160a01b03161461077f57816001600160a01b031660006001600160a01b0316826001600160a01b031660008051602061478e833981519152886000015187604051610729929190614624565b60405180910390a4836001600160a01b0316826001600160a01b0316826001600160a01b031660008051602061478e833981519152886000015187604051610772929190614624565b60405180910390a46107ca565b836001600160a01b031660006001600160a01b0316826001600160a01b031660008051602061478e8339815191528860000151876040516107c1929190614624565b60405180910390a45b5050505050565b6107d96118bc565b6001600160a01b03166107ea611008565b6001600160a01b031614610845576040805162461bcd60e51b815260206004820181905260248201527f4f776e61626c653a2063616c6c6572206973206e6f7420746865206f776e6572604482015290519081900360640190fd5b61084f8282611ffc565b5050565b60606101fa6000838152602001908152602001600020805480602002602001604051908101604052809291908181526020016000905b828210156108d857600084815260209081902060408051808201909152908401546001600160a01b0381168252600160a01b90046001600160601b031681830152825260019092019101610889565b505050509050919050565b81518351146109235760405162461bcd60e51b81526004018080602001828103825260288152602001806149d96028913960400191505060405180910390fd5b6001600160a01b0384166109685760405162461bcd60e51b815260040180806020018281038252602581526020018061486e6025913960400191505060405180910390fd5b6109706118bc565b6001600160a01b0316856001600160a01b031614806109965750610996856103266118bc565b6109d15760405162461bcd60e51b81526004018080602001828103825260328152602001806148936032913960400191505060405180910390fd5b60006109db6118bc565b90506109eb818787878787610bd9565b60005b8451811015610af1576000858281518110610a0557fe5b602002602001015190506000858381518110610a1d57fe5b60200260200101519050610a8a816040518060600160405280602a8152602001614938602a91396097600086815260200190815260200160002060008d6001600160a01b03166001600160a01b031681526020019081526020016000205461205c9092919063ffffffff16565b60008381526097602090815260408083206001600160a01b038e811685529252808320939093558a1681522054610ac190826120f3565b60009283526097602090815260408085206001600160a01b038c16865290915290922091909155506001016109ee565b50846001600160a01b0316866001600160a01b0316826001600160a01b03167f4a39dc06d4c0dbc64b70af90fd698a233a518aa5d07e595d983b8c0526c8f7fb8787604051808060200180602001838103835285818151815260200191508051906020019060200280838360005b83811015610b77578181015183820152602001610b5f565b50505050905001838103825284818151815260200191508051906020019060200280838360005b83811015610bb6578181015183820152602001610b9e565b5050505090500194505050505060405180910390a4610bd981878787878761214d565b505050505050565b60608151835114610c235760405162461bcd60e51b81526004018080602001828103825260298152602001806149b06029913960400191505060405180910390fd5b600083516001600160401b0381118015610c3c57600080fd5b50604051908082528060200260200182016040528015610c66578160200160208202803683370190505b50905060005b8451811015610cc457610ca5858281518110610c8457fe5b6020026020010151858381518110610c9857fe5b6020026020010151610377565b828281518110610cb157fe5b6020908102919091010152600101610c6c565b509392505050565b610cd46118bc565b6001600160a01b0316836001600160a01b03161480610cfa5750610cfa836103266118bc565b610d355760405162461bcd60e51b81526004018080602001828103825260298152602001806148236029913960400191505060405180910390fd5b610d408383836123cc565b505050565b61012f8054604080516020601f6002600019610100600188161502019095169490940493840181900481028201810190925282815260609390929091830182828015610dd25780601f10610da757610100808354040283529160200191610dd2565b820191906000526020600020905b815481529060010190602001808311610db557829003601f168201915b505050505090505b90565b610de56118bc565b6001600160a01b0316610df6611008565b6001600160a01b031614610e51576040805162461bcd60e51b815260206004820181905260248201527f4f776e61626c653a2063616c6c6572206973206e6f7420746865206f776e6572604482015290519081900360640190fd5b6033546040516000916001600160a01b0316907f8be0079c531659141344cd1fd0a4f28419497f9722a3daafe3b4186f6b6457e0908390a3603380546001600160a01b0319169055565b600054610100900460ff1680610eb45750610eb461263a565b80610ec2575060005460ff16155b610efd5760405162461bcd60e51b815260040180806020018281038252602e8152602001806148c5602e913960400191505060405180910390fd5b600054610100900460ff16158015610f28576000805460ff1961ff0019909116610100171660011790555b610f348585858561264b565b7ec585a2d53657c476d5dc8abfd9c0f01b85746c349dfa7053be00657f615438610f5c6118bc565b8686604051610f6d939291906142e5565b60405180910390a180156107ca576000805461ff00191690555050505050565b60008181526101fb602090815260408083208054825181850281018501909352808352606094929391929091840182156108d857600084815260209081902060408051808201909152908401546001600160a01b0381168252600160a01b90046001600160601b031681830152825260019092019101610889565b6033546001600160a01b031690565b610263805460408051602060026001851615610100026000190190941693909304601f810184900484028201840190925281815292918301828280156104805780601f1061045557610100808354040283529160200191610480565b6101fb602052816000526040600020818154811061109057600080fd5b6000918252602090912001546001600160a01b0381169250600160a01b90046001600160601b0316905082565b816001600160a01b03166110cf6118bc565b6001600160a01b031614156111155760405162461bcd60e51b81526004018080602001828103825260298152602001806149876029913960400191505060405180910390fd5b80609860006111226118bc565b6001600160a01b03908116825260208083019390935260409182016000908120918716808252919093529120805460ff1916921515929092179091556111666118bc565b6001600160a01b03167f17307eab39ab6107e8899845ad3d59bd9653f200f220920489ca2b5937696c318360405180821515815260200191505060405180910390a35050565b816001600160a01b03166111be6118bc565b6001600160a01b0316146111e45760405162461bcd60e51b81526004016104d090614473565b610d408383836126b7565b610230805460408051602060026001851615610100026000190190941693909304601f810184900484028201840190925281815292918301828280156104805780601f1061045557610100808354040283529160200191610480565b60006112578383612763565b9392505050565b6001600160a01b0384166112a35760405162461bcd60e51b815260040180806020018281038252602581526020018061486e6025913960400191505060405180910390fd5b6112ab6118bc565b6001600160a01b0316856001600160a01b031614806112d157506112d1856103266118bc565b61130c5760405162461bcd60e51b81526004018080602001828103825260298152602001806148236029913960400191505060405180910390fd5b60006113166118bc565b90506113368187876113278861278f565b6113308861278f565b87610bd9565b61137d836040518060600160405280602a8152602001614938602a913960008781526097602090815260408083206001600160a01b038d168452909152902054919061205c565b60008581526097602090815260408083206001600160a01b038b811685529252808320939093558716815220546113b490846120f3565b60008581526097602090815260408083206001600160a01b03808b168086529184529382902094909455805188815291820187905280518a84169386169260008051602061478e83398151915292908290030190a4610bd98187878787876127d4565b61141f6118bc565b6001600160a01b0316611430611008565b6001600160a01b03161461148b576040805162461bcd60e51b815260206004820181905260248201527f4f776e61626c653a2063616c6c6572206973206e6f7420746865206f776e6572604482015290519081900360640190fd5b6001600160a01b0381166114d05760405162461bcd60e51b81526004018080602001828103825260268152602001806147d96026913960400191505060405180910390fd5b6033546040516001600160a01b038084169216907f8be0079c531659141344cd1fd0a4f28419497f9722a3daafe3b4186f6b6457e090600090a3603380546001600160a01b0319166001600160a01b0392909216919091179055565b6115346118bc565b6001600160a01b0316836001600160a01b0316148061155a575061155a836103266118bc565b6115955760405162461bcd60e51b81526004018080602001828103825260298152602001806148236029913960400191505060405180910390fd5b610d40838383612945565b60006115b0848660000151610377565b90508181156115ea5782808310156115c55750815b6115e586868960000151846040518060200160405280600081525061125e565b830390505b8015610bd957610bd9868583610493565b60006001600160e01b03198216636db15a0f60e01b148061162c57506001600160e01b0319821663656cb66560e11b145b8061164757506001600160e01b031982166301ffc9a760e01b145b8061166257506001600160e01b03198216636cdb3d1360e11b145b806103f15750506001600160e01b0319166303a24d0760e21b1490565b600081815261012e6020908152604080832080548251601f60026000196101006001861615020190931692909204918201859004850281018501909352808352606094938301828280156117145780601f106116e957610100808354040283529160200191611714565b820191906000526020600020905b8154815290600101906020018083116116f757829003601f168201915b505050505090506000611725610d45565b9050805160001415611739575090506103f4565b8151156117fa5780826040516020018083805190602001908083835b602083106117745780518252601f199092019160209182019101611755565b51815160209384036101000a600019018019909216911617905285519190930192850191508083835b602083106117bc5780518252601f19909201916020918201910161179d565b6001836020036101000a03801982511681845116808217855250505050505090500192505050604051602081830303815290604052925050506103f4565b8061180485612a66565b6040516020018083805190602001908083835b602083106118365780518252601f199092019160209182019101611817565b51815160209384036101000a600019018019909216911617905285519190930192850191508083835b6020831061187e5780518252601f19909201916020918201910161185f565b6001836020036101000a0380198251168184511680821785525050505050509050019250505060405160208183030381529060405292505050919050565b3390565b6000808260800151516001600160401b03811180156118de57600080fd5b50604051908082528060200260200182016040528015611908578160200160208202803683370190505b50905060005b83608001515181101561195a5761193b8460800151828151811061192e57fe5b6020026020010151612b40565b82828151811061194757fe5b602090810291909101015260010161190e565b5060008360600151516001600160401b038111801561197857600080fd5b506040519080825280602002602001820160405280156119a2578160200160208202803683370190505b50905060005b8460600151518110156119e7576119c88560600151828151811061192e57fe5b8282815181106119d457fe5b60209081029190910101526001016119a8565b507ffb988707ebb338694f318760b0fd5cfe756d00a2ade251fda110b80c336a3c7f846000015185604001518660200151805190602001208460405160200180828051906020019060200280838360005b83811015611a50578181015183820152602001611a38565b50505050905001915050604051602081830303815290604052805190602001208660405160200180828051906020019060200280838360005b83811015611aa1578181015183820152602001611a89565b50505050905001915050604051602081830303815290604052805190602001206040516020018087815260200186815260200185815260200184815260200183815260200182815260200196505050505050506040516020818303038152906040528051906020012092505050919050565b610d40838383612bad565b60008281526101fc602052604090205415611b3857600080fd5b60008281526101fc602052604090819020829055517f5e2aa66efd74cce82b21852e317e5490d9ecc9e6bb953ae24d90851258cc2f5c90611b7c9084908490614624565b60405180910390a15050565b6000805b8251811015611d2c5760006001600160a01b0316838281518110611bac57fe5b6020026020010151600001516001600160a01b03161415611c14576040805162461bcd60e51b815260206004820152601b60248201527f526563697069656e742073686f756c642062652070726573656e740000000000604482015290519081900360640190fd5b828181518110611c2057fe5b6020026020010151602001516001600160601b031660001415611c8a576040805162461bcd60e51b815260206004820181905260248201527f526f79616c74792076616c75652073686f756c6420626520706f736974697665604482015290519081900360640190fd5b828181518110611c9657fe5b6020026020010151602001516001600160601b0316820191506101fa6000858152602001908152602001600020838281518110611ccf57fe5b60209081029190910181015182546001818101855560009485529383902082519101805492909301516001600160601b0316600160a01b026001600160a01b039182166001600160a01b0319909316929092171617905501611b8c565b506127108110611d6d5760405162461bcd60e51b81526004018080602001828103825260258152602001806149626025913960400191505060405180910390fd5b610d408383612de5565b60008281526101fb6020526040812090805b8351811015611ec55760006001600160a01b0316848281518110611da957fe5b6020026020010151600001516001600160a01b03161415611ddc5760405162461bcd60e51b81526004016104d090614534565b838181518110611de857fe5b6020026020010151602001516001600160601b031660001415611e1d5760405162461bcd60e51b81526004016104d090614413565b82848281518110611e2a57fe5b602090810291909101810151825460018101845560009384529282902081519301805491909201516001600160601b0316600160a01b026001600160a01b039384166001600160a01b0319909216919091179092169190911790558351611ebb90859083908110611e9757fe5b6020026020010151602001516001600160601b0316836120f390919063ffffffff16565b9150600101611d89565b508061271014611ee75760405162461bcd60e51b81526004016104d0906145ac565b7f841ffb90d4cabdd1f16034f3fa831d79060febbb8167bdd54a49269365bdf78f8484604051611f18929190614603565b60405180910390a150505050565b600082815261012e602090815260409091208251611f46928401906139b6565b50817f6bb7ff708619ba0610cba295a58592e0451dee2622938c8755667688daf3529b611f728461167f565b6040805160208082528351818301528351919283929083019185019080838360005b83811015611fac578181015183820152602001611f94565b50505050905090810190601f168015611fd95780820380516001836020036101000a031916815260200191505b509250505060405180910390a25050565b611ff684848484612e16565b50505050565b6001600160a01b038216600081815260c96020908152604091829020805460ff1916851515908117909155825190815291517f270dbb8ba4292910ae92862466486be25c355c837270a3d8824b36a8bc7c653b9281900390910190a25050565b600081848411156120eb5760405162461bcd60e51b81526004018080602001828103825283818151815260200191508051906020019080838360005b838110156120b0578181015183820152602001612098565b50505050905090810190601f1680156120dd5780820380516001836020036101000a031916815260200191505b509250505060405180910390fd5b505050900390565b600082820183811015611257576040805162461bcd60e51b815260206004820152601b60248201527f536166654d6174683a206164646974696f6e206f766572666c6f770000000000604482015290519081900360640190fd5b61215f846001600160a01b0316612f28565b15610bd957836001600160a01b031663bc197c8187878686866040518663ffffffff1660e01b815260040180866001600160a01b03168152602001856001600160a01b03168152602001806020018060200180602001848103845287818151815260200191508051906020019060200280838360005b838110156121ed5781810151838201526020016121d5565b50505050905001848103835286818151815260200191508051906020019060200280838360005b8381101561222c578181015183820152602001612214565b50505050905001848103825285818151815260200191508051906020019080838360005b83811015612268578181015183820152602001612250565b50505050905090810190601f1680156122955780820380516001836020036101000a031916815260200191505b5098505050505050505050602060405180830381600087803b1580156122ba57600080fd5b505af19250505080156122df57506040513d60208110156122da57600080fd5b505160015b612374576122eb614678565b806122f6575061233d565b60405162461bcd60e51b81526020600482018181528351602484015283518493919283926044019190850190808383600083156120b0578181015183820152602001612098565b60405162461bcd60e51b81526004018080602001828103825260348152602001806147326034913960400191505060405180910390fd5b6001600160e01b0319811663bc197c8160e01b146123c35760405162461bcd60e51b81526004018080602001828103825260288152602001806147666028913960400191505060405180910390fd5b50505050505050565b6001600160a01b0383166124115760405162461bcd60e51b81526004018080602001828103825260238152602001806149156023913960400191505060405180910390fd5b80518251146124515760405162461bcd60e51b81526004018080602001828103825260288152602001806149d96028913960400191505060405180910390fd5b600061245b6118bc565b905061247b81856000868660405180602001604052806000815250610bd9565b60005b83518110156125595761251083828151811061249657fe5b60200260200101516040518060600160405280602481526020016147ff60249139609760008886815181106124c757fe5b602002602001015181526020019081526020016000206000896001600160a01b03166001600160a01b031681526020019081526020016000205461205c9092919063ffffffff16565b6097600086848151811061252057fe5b602090810291909101810151825281810192909252604090810160009081206001600160a01b038a16825290925290205560010161247e565b5060006001600160a01b0316846001600160a01b0316826001600160a01b03167f4a39dc06d4c0dbc64b70af90fd698a233a518aa5d07e595d983b8c0526c8f7fb8686604051808060200180602001838103835285818151815260200191508051906020019060200280838360005b838110156125e05781810151838201526020016125c8565b50505050905001838103825284818151815260200191508051906020019060200280838360005b8381101561261f578181015183820152602001612607565b5050505090500194505050505060405180910390a450505050565b600061264530612f28565b15905090565b612653612f2e565b61265b613028565b6126636130c9565b61266b613028565b612673613166565b61268b60405180602001604052806000815250613236565b61269481613301565b61269c613028565b6126a46133b3565b6126ae8484613450565b611ff68261351d565b60008381526101fa6020526040812054905b818110156107ca5760008581526101fa6020526040902080546001600160a01b0386169190839081106126f857fe5b6000918252602090912001546001600160a01b0316141561275b5760008581526101fa6020526040902080548491908390811061273157fe5b600091825260209091200180546001600160a01b0319166001600160a01b03929092169190911790555b6001016126c9565b6001600160a01b038116600090815260c9602052604081205460ff168061125757506112578383613531565b604080516001808252818301909252606091600091906020808301908036833701905050905082816000815181106127c357fe5b602090810291909101015292915050565b6127e6846001600160a01b0316612f28565b15610bd957836001600160a01b031663f23a6e6187878686866040518663ffffffff1660e01b815260040180866001600160a01b03168152602001856001600160a01b0316815260200184815260200183815260200180602001828103825283818151815260200191508051906020019080838360005b8381101561287557818101518382015260200161285d565b50505050905090810190601f1680156128a25780820380516001836020036101000a031916815260200191505b509650505050505050602060405180830381600087803b1580156128c557600080fd5b505af19250505080156128ea57506040513d60208110156128e557600080fd5b505160015b6128f6576122eb614678565b6001600160e01b0319811663f23a6e6160e01b146123c35760405162461bcd60e51b81526004018080602001828103825260288152602001806147666028913960400191505060405180910390fd5b6001600160a01b03831661298a5760405162461bcd60e51b81526004018080602001828103825260238152602001806149156023913960400191505060405180910390fd5b60006129946118bc565b90506129c4818560006129a68761278f565b6129af8761278f565b60405180602001604052806000815250610bd9565b612a0b826040518060600160405280602481526020016147ff6024913960008681526097602090815260408083206001600160a01b038b168452909152902054919061205c565b60008481526097602090815260408083206001600160a01b03808a168086529184528285209590955581518881529283018790528151939490939086169260008051602061478e83398151915292908290030190a450505050565b606081612a8b57506040805180820190915260018152600360fc1b60208201526103f4565b8160005b8115612aa357600101600a82049150612a8f565b6000816001600160401b0381118015612abb57600080fd5b506040519080825280601f01601f191660200182016040528015612ae6576020820181803683370190505b50859350905060001982015b8315612b3757600a840660300160f81b82828060019003935081518110612b1557fe5b60200101906001600160f81b031916908160001a905350600a84049350612af2565b50949350505050565b8051602091820151604080517f397e04204c1e1a60ee8724b71f8244e10ab5f2e9009854d80f602bda21b59ebb818601526001600160a01b03909316838201526001600160601b039091166060808401919091528151808403909101815260809092019052805191012090565b6000612bb88361355f565b9050612bcc846001600160a01b0316612f28565b15612d455760408051630b135d3f60e11b808252600482018481526024830193845285516044840152855191936001600160a01b03891693631626ba7e938793899390929091606490910190602085019080838360005b83811015612c3b578181015183820152602001612c23565b50505050905090810190601f168015612c685780820380516001836020036101000a031916815260200191505b50935050505060206040518083038186803b158015612c8657600080fd5b505afa158015612c9a573d6000803e3d6000fd5b505050506040513d6020811015612cb057600080fd5b505160408051808201909152601c81527f7369676e617475726520766572696669636174696f6e206572726f72000000006020820152916001600160e01b031990911614612d3f5760405162461bcd60e51b81526020600482018181528351602484015283519092839260449091019190850190808383600083156120b0578181015183820152602001612098565b50611ff6565b6001600160a01b038416612d5982846135ab565b6001600160a01b0316146040518060400160405280601c81526020017f7369676e617475726520766572696669636174696f6e206572726f7200000000815250906107ca5760405162461bcd60e51b81526020600482018181528351602484015283519092839260449091019190850190808383600083156120b0578181015183820152602001612098565b7f3fa96d7b6bcbfe71ef171666d84db3cf52fa2d1c8afdb1cc8e486177f208b7df8282604051611b7c929190614603565b60008381526101fd6020526040812054612e319084906120f3565b60008581526101fc6020526040902054909150811115612e635760405162461bcd60e51b81526004016104d09061450a565b60008481526101fd602052604090208190556001600160a01b038516612e9b5760405162461bcd60e51b81526004016104d09061456b565b6000612ea56118bc565b9050612ec681600088612eb78961278f565b612ec08961278f565b88610bd9565b60008581526097602090815260408083206001600160a01b038a168452909152902054612ef390856120f3565b60008681526097602090815260408083206001600160a01b038b168452909152812091909155610bd9908290888888886127d4565b3b151590565b600054610100900460ff1680612f475750612f4761263a565b80612f55575060005460ff16155b612f905760405162461bcd60e51b815260040180806020018281038252602e8152602001806148c5602e913960400191505060405180910390fd5b600054610100900460ff16158015612fbb576000805460ff1961ff0019909116610100171660011790555b6000612fc56118bc565b603380546001600160a01b0319166001600160a01b038316908117909155604051919250906000907f8be0079c531659141344cd1fd0a4f28419497f9722a3daafe3b4186f6b6457e0908290a3508015613025576000805461ff00191690555b50565b600054610100900460ff1680613041575061304161263a565b8061304f575060005460ff16155b61308a5760405162461bcd60e51b815260040180806020018281038252602e8152602001806148c5602e913960400191505060405180910390fd5b600054610100900460ff161580156130b5576000805460ff1961ff0019909116610100171660011790555b8015613025576000805461ff001916905550565b600054610100900460ff16806130e257506130e261263a565b806130f0575060005460ff16155b61312b5760405162461bcd60e51b815260040180806020018281038252602e8152602001806148c5602e913960400191505060405180910390fd5b600054610100900460ff16158015613156576000805460ff1961ff0019909116610100171660011790555b6130b56301ffc9a760e01b61362b565b600054610100900460ff168061317f575061317f61263a565b8061318d575060005460ff16155b6131c85760405162461bcd60e51b815260040180806020018281038252602e8152602001806148c5602e913960400191505060405180910390fd5b600054610100900460ff161580156131f3576000805460ff1961ff0019909116610100171660011790555b6130b5604051806040016040528060088152602001674d696e743131353560c01b815250604051806040016040528060018152602001603160f81b8152506136af565b600054610100900460ff168061324f575061324f61263a565b8061325d575060005460ff16155b6132985760405162461bcd60e51b815260040180806020018281038252602e8152602001806148c5602e913960400191505060405180910390fd5b600054610100900460ff161580156132c3576000805460ff1961ff0019909116610100171660011790555b6132cc82613771565b6132dc636cdb3d1360e11b61362b565b6132ec6303a24d0760e21b61362b565b801561084f576000805461ff00191690555050565b600054610100900460ff168061331a575061331a61263a565b80613328575060005460ff16155b6133635760405162461bcd60e51b815260040180806020018281038252602e8152602001806148c5602e913960400191505060405180910390fd5b600054610100900460ff1615801561338e576000805460ff1961ff0019909116610100171660011790555b81516133a2906102309060208501906139b6565b506132ec63e8a3d48560e01b61362b565b600054610100900460ff16806133cc57506133cc61263a565b806133da575060005460ff16155b6134155760405162461bcd60e51b815260040180806020018281038252602e8152602001806148c5602e913960400191505060405180910390fd5b600054610100900460ff16158015613440576000805460ff1961ff0019909116610100171660011790555b6130b563656cb66560e11b61362b565b600054610100900460ff1680613469575061346961263a565b80613477575060005460ff16155b6134b25760405162461bcd60e51b815260040180806020018281038252602e8152602001806148c5602e913960400191505060405180910390fd5b600054610100900460ff161580156134dd576000805460ff1961ff0019909116610100171660011790555b82516134f1906102629060208601906139b6565b508151613506906102639060208501906139b6565b508015610d40576000805461ff0019169055505050565b805161084f9061012f9060208401906139b6565b6001600160a01b03918216600090815260986020908152604080832093909416825291909152205460ff1690565b6000613569613784565b82604051602001808061190160f01b81525060020183815260200182815260200192505050604051602081830303815290604052805190602001209050919050565b60008151604114613603576040805162461bcd60e51b815260206004820152601f60248201527f45434453413a20696e76616c6964207369676e6174757265206c656e67746800604482015290519081900360640190fd5b60208201516040830151606084015160001a613621868285856137c4565b9695505050505050565b6001600160e01b0319808216141561368a576040805162461bcd60e51b815260206004820152601c60248201527f4552433136353a20696e76616c696420696e7465726661636520696400000000604482015290519081900360640190fd5b6001600160e01b0319166000908152606560205260409020805460ff19166001179055565b600054610100900460ff16806136c857506136c861263a565b806136d6575060005460ff16155b6137115760405162461bcd60e51b815260040180806020018281038252602e8152602001806148c5602e913960400191505060405180910390fd5b600054610100900460ff1615801561373c576000805460ff1961ff0019909116610100171660011790555b825160208085019190912083519184019190912061016291909155610163558015610d40576000805461ff0019169055505050565b805161084f9060999060208401906139b6565b60006137bf7f8b73c3c69bb8fe3d512ecc4cf759cc79239f7b179b0ffacaa9a75d522b39400f6137b2613942565b6137ba613949565b613950565b905090565b60007f7fffffffffffffffffffffffffffffff5d576e7357a4501ddfe92f46681b20a08211156138255760405162461bcd60e51b815260040180806020018281038252602281526020018061484c6022913960400191505060405180910390fd5b8360ff16601b148061383a57508360ff16601c145b6138755760405162461bcd60e51b81526004018080602001828103825260228152602001806148f36022913960400191505060405180910390fd5b600060018686868660405160008152602001604052604051808581526020018460ff1681526020018381526020018281526020019450505050506020604051602081039080840390855afa1580156138d1573d6000803e3d6000fd5b5050604051601f1901519150506001600160a01b038116613939576040805162461bcd60e51b815260206004820152601860248201527f45434453413a20696e76616c6964207369676e61747572650000000000000000604482015290519081900360640190fd5b95945050505050565b6101625490565b6101635490565b600083838361395d6139b2565b3060405160200180868152602001858152602001848152602001838152602001826001600160a01b03168152602001955050505050506040516020818303038152906040528051906020012090509392505050565b4690565b828054600181600116156101000203166002900490600052602060002090601f0160209004810192826139ec5760008555613a32565b82601f10613a0557805160ff1916838001178555613a32565b82800160010185558215613a32579182015b82811115613a32578251825591602001919060010190613a17565b50613a3e929150613a42565b5090565b5b80821115613a3e5760008155600101613a43565b600082601f830112613a67578081fd5b81356020613a7c613a7783614655565b614632565b82815281810190858301855b85811015613ab157613a9f898684358b0101613bd3565b84529284019290840190600101613a88565b5090979650505050505050565b600082601f830112613ace578081fd5b81356020613ade613a7783614655565b82815281810190858301604080860288018501891015613afc578687fd5b865b86811015613b6b5781838b031215613b14578788fd5b81518281018181106001600160401b0382111715613b2e57fe5b83528335613b3b8161471c565b8152838701356001600160601b0381168114613b5557898afd5b8188015285529385019391810191600101613afe565b509198975050505050505050565b600082601f830112613b89578081fd5b81356020613b99613a7783614655565b8281528181019085830183850287018401881015613bb5578586fd5b855b85811015613ab157813584529284019290840190600101613bb7565b600082601f830112613be3578081fd5b81356001600160401b03811115613bf657fe5b613c09601f8201601f1916602001614632565b818152846020838601011115613c1d578283fd5b816020850160208301379081016020019190915292915050565b600060c08284031215613c48578081fd5b613c5260c0614632565b90508135815260208201356001600160401b0380821115613c7257600080fd5b613c7e85838601613bd3565b6020840152604084013560408401526060840135915080821115613ca157600080fd5b613cad85838601613abe565b60608401526080840135915080821115613cc657600080fd5b613cd285838601613abe565b608084015260a0840135915080821115613ceb57600080fd5b50613cf884828501613a57565b60a08301525092915050565b600060208284031215613d15578081fd5b81356112578161471c565b60008060408385031215613d32578081fd5b8235613d3d8161471c565b91506020830135613d4d8161471c565b809150509250929050565b600080600080600060a08688031215613d6f578081fd5b8535613d7a8161471c565b94506020860135613d8a8161471c565b935060408601356001600160401b0380821115613da5578283fd5b613db189838a01613b79565b94506060880135915080821115613dc6578283fd5b613dd289838a01613b79565b93506080880135915080821115613de7578283fd5b50613df488828901613bd3565b9150509295509295909350565b600080600080600060a08688031215613e18578283fd5b8535613e238161471c565b94506020860135613e338161471c565b9350604086013592506060860135915060808601356001600160401b03811115613e5b578182fd5b613df488828901613bd3565b600080600060608486031215613e7b578081fd5b8335613e868161471c565b925060208401356001600160401b0380821115613ea1578283fd5b613ead87838801613b79565b93506040860135915080821115613ec2578283fd5b50613ecf86828701613b79565b9150509250925092565b60008060408385031215613eeb578182fd5b8235613ef68161471c565b915060208301358015158114613d4d578182fd5b60008060408385031215613f1c578182fd5b8235613f278161471c565b946020939093013593505050565b600080600060608486031215613f49578081fd5b8335613f548161471c565b95602085013595506040909401359392505050565b60008060408385031215613f7b578182fd5b82356001600160401b0380821115613f91578384fd5b818501915085601f830112613fa4578384fd5b81356020613fb4613a7783614655565b82815281810190858301838502870184018b1015613fd0578889fd5b8896505b84871015613ffb578035613fe78161471c565b835260019690960195918301918301613fd4565b5096505086013592505080821115614011578283fd5b5061401e85828601613b79565b9150509250929050565b600060208284031215614039578081fd5b81356001600160e01b031981168114611257578182fd5b60008060008060808587031215614065578182fd5b84356001600160401b038082111561407b578384fd5b61408788838901613bd3565b9550602087013591508082111561409c578384fd5b6140a888838901613bd3565b945060408701359150808211156140bd578384fd5b6140c988838901613bd3565b935060608701359150808211156140de578283fd5b506140eb87828801613bd3565b91505092959194509250565b6000806000806080858703121561410c578182fd5b84356001600160401b03811115614121578283fd5b61412d87828801613c37565b945050602085013561413e8161471c565b9250604085013561414e8161471c565b9396929550929360600135925050565b600080600060608486031215614172578081fd5b83356001600160401b03811115614187578182fd5b61419386828701613c37565b93505060208401356141a48161471c565b929592945050506040919091013590565b6000602082840312156141c6578081fd5b5035919050565b6000806000606084860312156141e1578081fd5b8335925060208401356141f38161471c565b915060408401356142038161471c565b809150509250925092565b60008060408385031215614220578182fd5b50508035926020909101359150565b6000815180845260208085019450808401835b8381101561427b57815180516001600160a01b031688528301516001600160601b03168388015260409096019590820190600101614242565b509495945050505050565b60008151808452815b818110156142ab5760208185018101518683018201520161428f565b818111156142bc5782602083870101525b50601f01601f19169290920160200192915050565b6001600160a01b0391909116815260200190565b6001600160a01b038416815260606020820181905260009061430990830185614286565b82810360408401526136218185614286565b6001600160a01b039290921682526001600160601b0316602082015260400190565b600060208252611257602083018461422f565b6020808252825182820181905260009190848201906040850190845b818110156143885783518352928401929184019160010161436c565b50909695505050505050565b901515815260200190565b6000602082526112576020830184614286565b6020808252601a908201527f455243313135353a206d696e74206973206e6f74206f776e6572000000000000604082015260600190565b60208082526010908201526f1cdd5c1c1b1e481a5b98dbdc9c9958dd60821b604082015260600190565b6020808252818101527f43726561746f722073686172652073686f756c6420626520706f736974697665604082015260600190565b6020808252601190820152701d1bdad95b9259081a5b98dbdc9c9958dd607a1b604082015260600190565b6020808252600b908201526a1b9bdd08185b1b1bddd95960aa1b604082015260600190565b60208082526010908201526f185b5bdd5b9d081a5b98dbdc9c9958dd60821b604082015260600190565b60208082526028908201527f455243313135353a207472616e736665722063616c6c6572206973206e6f7420604082015267185c1c1c9bdd995960c21b606082015260800190565b60208082526010908201526f6d6f7265207468616e20737570706c7960801b604082015260600190565b60208082526019908201527f4163636f756e742073686f756c642062652070726573656e7400000000000000604082015260600190565b60208082526021908201527f455243313135353a206d696e7420746f20746865207a65726f206164647265736040820152607360f81b606082015260800190565b6020808252602e908201527f746f74616c20616d6f756e74206f662063726561746f7273207368617265207360408201526d0686f756c642062652031303030360941b606082015260800190565b90815260200190565b60008382526040602083015261461c604083018461422f565b949350505050565b918252602082015260400190565b6040518181016001600160401b038111828210171561464d57fe5b604052919050565b60006001600160401b0382111561466857fe5b5060209081020190565b60e01c90565b600060443d101561468857610dda565b600481823e6308c379a061469c8251614672565b146146a657610dda565b6040513d600319016004823e80513d6001600160401b0381602484011181841117156146d55750505050610dda565b828401925082519150808211156146ef5750505050610dda565b503d8301602082840101111561470757505050610dda565b601f01601f1916810160200160405291505090565b6001600160a01b038116811461302557600080fdfe455243313135353a207472616e7366657220746f206e6f6e2045524331313535526563656976657220696d706c656d656e746572455243313135353a204552433131353552656365697665722072656a656374656420746f6b656e73c3d58168c5ae7397731d063d5bbf3d657854427343f4c083240f7aacaa2d0f62455243313135353a2062616c616e636520717565727920666f7220746865207a65726f20616464726573734f776e61626c653a206e6577206f776e657220697320746865207a65726f2061646472657373455243313135353a206275726e20616d6f756e7420657863656564732062616c616e6365455243313135353a2063616c6c6572206973206e6f74206f776e6572206e6f7220617070726f76656445434453413a20696e76616c6964207369676e6174757265202773272076616c7565455243313135353a207472616e7366657220746f20746865207a65726f2061646472657373455243313135353a207472616e736665722063616c6c6572206973206e6f74206f776e6572206e6f7220617070726f766564496e697469616c697a61626c653a20636f6e747261637420697320616c726561647920696e697469616c697a656445434453413a20696e76616c6964207369676e6174757265202776272076616c7565455243313135353a206275726e2066726f6d20746865207a65726f2061646472657373455243313135353a20696e73756666696369656e742062616c616e636520666f72207472616e73666572526f79616c747920746f74616c2076616c75652073686f756c64206265203c203130303030455243313135353a2073657474696e6720617070726f76616c2073746174757320666f722073656c66455243313135353a206163636f756e747320616e6420696473206c656e677468206d69736d61746368455243313135353a2069647320616e6420616d6f756e7473206c656e677468206d69736d61746368a2646970667358221220b5fa9a0e85ab0c6c8e03da2b210d69890242c025ec66084e963941d68243161564736f6c63430007060033",
  "linkReferences": {},
  "deployedLinkReferences": {}
}