{
  "_format": "hh-sol-artifact-1",
  "contractName": "ERC1155Ctnft",
  "sourceName": "contracts/tokens/contracts/erc-1155/ERC1155Ctnft.sol",
  "abi": [
    {
      "anonymous": false,
      "inputs": [
        {
          "indexed": true,
          "internalType": "address",
          "name": "account",
          "type": "address"
        },
        {
          "indexed": true,
          "internalType": "address",
          "name": "operator",
          "type": "address"
        },
        {
          "indexed": false,
          "internalType": "bool",
          "name": "approved",
          "type": "bool"
        }
      ],
      "name": "ApprovalForAll",
      "type": "event"
    },
    {
      "anonymous": false,
      "inputs": [
        {
          "indexed": false,
          "internalType": "address",
          "name": "owner",
          "type": "address"
        },
        {
          "indexed": false,
          "internalType": "string",
          "name": "name",
          "type": "string"
        },
        {
          "indexed": false,
          "internalType": "string",
          "name": "symbol",
          "type": "string"
        }
      ],
      "name": "CreateERC1155Ctnft",
      "type": "event"
    },
    {
      "anonymous": false,
      "inputs": [
        {
          "indexed": false,
          "internalType": "uint256",
          "name": "tokenId",
          "type": "uint256"
        },
        {
          "components": [
            {
              "internalType": "address payable",
              "name": "account",
              "type": "address"
            },
            {
              "internalType": "uint96",
              "name": "value",
              "type": "uint96"
            }
          ],
          "indexed": false,
          "internalType": "struct LibPart.Part[]",
          "name": "creators",
          "type": "tuple[]"
        }
      ],
      "name": "Creators",
      "type": "event"
    },
    {
      "anonymous": false,
      "inputs": [
        {
          "indexed": true,
          "internalType": "address",
          "name": "operator",
          "type": "address"
        },
        {
          "indexed": false,
          "internalType": "bool",
          "name": "hasApproval",
          "type": "bool"
        }
      ],
      "name": "DefaultApproval",
      "type": "event"
    },
    {
      "anonymous": false,
      "inputs": [
        {
          "indexed": true,
          "internalType": "address",
          "name": "previousOwner",
          "type": "address"
        },
        {
          "indexed": true,
          "internalType": "address",
          "name": "newOwner",
          "type": "address"
        }
      ],
      "name": "OwnershipTransferred",
      "type": "event"
    },
    {
      "anonymous": false,
      "inputs": [
        {
          "indexed": false,
          "internalType": "uint256",
          "name": "tokenId",
          "type": "uint256"
        },
        {
          "components": [
            {
              "internalType": "address payable",
              "name": "account",
              "type": "address"
            },
            {
              "internalType": "uint96",
              "name": "value",
              "type": "uint96"
            }
          ],
          "indexed": false,
          "internalType": "struct LibPart.Part[]",
          "name": "royalties",
          "type": "tuple[]"
        }
      ],
      "name": "RoyaltiesSet",
      "type": "event"
    },
    {
      "anonymous": false,
      "inputs": [
        {
          "indexed": false,
          "internalType": "uint256",
          "name": "tokenId",
          "type": "uint256"
        },
        {
          "indexed": false,
          "internalType": "uint256",
          "name": "value",
          "type": "uint256"
        }
      ],
      "name": "Supply",
      "type": "event"
    },
    {
      "anonymous": false,
      "inputs": [
        {
          "indexed": true,
          "internalType": "address",
          "name": "operator",
          "type": "address"
        },
        {
          "indexed": true,
          "internalType": "address",
          "name": "from",
          "type": "address"
        },
        {
          "indexed": true,
          "internalType": "address",
          "name": "to",
          "type": "address"
        },
        {
          "indexed": false,
          "internalType": "uint256[]",
          "name": "ids",
          "type": "uint256[]"
        },
        {
          "indexed": false,
          "internalType": "uint256[]",
          "name": "values",
          "type": "uint256[]"
        }
      ],
      "name": "TransferBatch",
      "type": "event"
    },
    {
      "anonymous": false,
      "inputs": [
        {
          "indexed": true,
          "internalType": "address",
          "name": "operator",
          "type": "address"
        },
        {
          "indexed": true,
          "internalType": "address",
          "name": "from",
          "type": "address"
        },
        {
          "indexed": true,
          "internalType": "address",
          "name": "to",
          "type": "address"
        },
        {
          "indexed": false,
          "internalType": "uint256",
          "name": "id",
          "type": "uint256"
        },
        {
          "indexed": false,
          "internalType": "uint256",
          "name": "value",
          "type": "uint256"
        }
      ],
      "name": "TransferSingle",
      "type": "event"
    },
    {
      "anonymous": false,
      "inputs": [
        {
          "indexed": false,
          "internalType": "string",
          "name": "value",
          "type": "string"
        },
        {
          "indexed": true,
          "internalType": "uint256",
          "name": "id",
          "type": "uint256"
        }
      ],
      "name": "URI",
      "type": "event"
    },
    {
      "inputs": [
        {
          "internalType": "string",
          "name": "_name",
          "type": "string"
        },
        {
          "internalType": "string",
          "name": "_symbol",
          "type": "string"
        },
        {
          "internalType": "string",
          "name": "baseURI",
          "type": "string"
        },
        {
          "internalType": "string",
          "name": "contractURI",
          "type": "string"
        }
      ],
      "name": "__ERC1155Ctnft_init",
      "outputs": [],
      "stateMutability": "nonpayable",
      "type": "function"
    },
    {
      "inputs": [
        {
          "internalType": "address",
          "name": "account",
          "type": "address"
        },
        {
          "internalType": "uint256",
          "name": "id",
          "type": "uint256"
        }
      ],
      "name": "balanceOf",
      "outputs": [
        {
          "internalType": "uint256",
          "name": "",
          "type": "uint256"
        }
      ],
      "stateMutability": "view",
      "type": "function"
    },
    {
      "inputs": [
        {
          "internalType": "address[]",
          "name": "accounts",
          "type": "address[]"
        },
        {
          "internalType": "uint256[]",
          "name": "ids",
          "type": "uint256[]"
        }
      ],
      "name": "balanceOfBatch",
      "outputs": [
        {
          "internalType": "uint256[]",
          "name": "",
          "type": "uint256[]"
        }
      ],
      "stateMutability": "view",
      "type": "function"
    },
    {
      "inputs": [],
      "name": "baseURI",
      "outputs": [
        {
          "internalType": "string",
          "name": "",
          "type": "string"
        }
      ],
      "stateMutability": "view",
      "type": "function"
    },
    {
      "inputs": [
        {
          "internalType": "address",
          "name": "account",
          "type": "address"
        },
        {
          "internalType": "uint256",
          "name": "id",
          "type": "uint256"
        },
        {
          "internalType": "uint256",
          "name": "value",
          "type": "uint256"
        }
      ],
      "name": "burn",
      "outputs": [],
      "stateMutability": "nonpayable",
      "type": "function"
    },
    {
      "inputs": [
        {
          "internalType": "address",
          "name": "account",
          "type": "address"
        },
        {
          "internalType": "uint256[]",
          "name": "ids",
          "type": "uint256[]"
        },
        {
          "internalType": "uint256[]",
          "name": "values",
          "type": "uint256[]"
        }
      ],
      "name": "burnBatch",
      "outputs": [],
      "stateMutability": "nonpayable",
      "type": "function"
    },
    {
      "inputs": [],
      "name": "contractURI",
      "outputs": [
        {
          "internalType": "string",
          "name": "",
          "type": "string"
        }
      ],
      "stateMutability": "view",
      "type": "function"
    },
    {
      "inputs": [
        {
          "internalType": "uint256",
          "name": "",
          "type": "uint256"
        },
        {
          "internalType": "uint256",
          "name": "",
          "type": "uint256"
        }
      ],
      "name": "creators",
      "outputs": [
        {
          "internalType": "address payable",
          "name": "account",
          "type": "address"
        },
        {
          "internalType": "uint96",
          "name": "value",
          "type": "uint96"
        }
      ],
      "stateMutability": "view",
      "type": "function"
    },
    {
      "inputs": [
        {
          "internalType": "uint256",
          "name": "_id",
          "type": "uint256"
        }
      ],
      "name": "getCreators",
      "outputs": [
        {
          "components": [
            {
              "internalType": "address payable",
              "name": "account",
              "type": "address"
            },
            {
              "internalType": "uint96",
              "name": "value",
              "type": "uint96"
            }
          ],
          "internalType": "struct LibPart.Part[]",
          "name": "",
          "type": "tuple[]"
        }
      ],
      "stateMutability": "view",
      "type": "function"
    },
    {
      "inputs": [
        {
          "internalType": "uint256",
          "name": "id",
          "type": "uint256"
        }
      ],
      "name": "getCtnftV2Royalties",
      "outputs": [
        {
          "components": [
            {
              "internalType": "address payable",
              "name": "account",
              "type": "address"
            },
            {
              "internalType": "uint96",
              "name": "value",
              "type": "uint96"
            }
          ],
          "internalType": "struct LibPart.Part[]",
          "name": "",
          "type": "tuple[]"
        }
      ],
      "stateMutability": "view",
      "type": "function"
    },
    {
      "inputs": [
        {
          "internalType": "address",
          "name": "_owner",
          "type": "address"
        },
        {
          "internalType": "address",
          "name": "_operator",
          "type": "address"
        }
      ],
      "name": "isApprovedForAll",
      "outputs": [
        {
          "internalType": "bool",
          "name": "",
          "type": "bool"
        }
      ],
      "stateMutability": "view",
      "type": "function"
    },
    {
      "inputs": [
        {
          "components": [
            {
              "internalType": "uint256",
              "name": "tokenId",
              "type": "uint256"
            },
            {
              "internalType": "string",
              "name": "tokenURI",
              "type": "string"
            },
            {
              "internalType": "uint256",
              "name": "supply",
              "type": "uint256"
            },
            {
              "components": [
                {
                  "internalType": "address payable",
                  "name": "account",
                  "type": "address"
                },
                {
                  "internalType": "uint96",
                  "name": "value",
                  "type": "uint96"
                }
              ],
              "internalType": "struct LibPart.Part[]",
              "name": "creators",
              "type": "tuple[]"
            },
            {
              "components": [
                {
                  "internalType": "address payable",
                  "name": "account",
                  "type": "address"
                },
                {
                  "internalType": "uint96",
                  "name": "value",
                  "type": "uint96"
                }
              ],
              "internalType": "struct LibPart.Part[]",
              "name": "royalties",
              "type": "tuple[]"
            },
            {
              "internalType": "bytes[]",
              "name": "signatures",
              "type": "bytes[]"
            }
          ],
          "internalType": "struct LibERC1155LazyMint.Mint1155Data",
          "name": "data",
          "type": "tuple"
        },
        {
          "internalType": "address",
          "name": "to",
          "type": "address"
        },
        {
          "internalType": "uint256",
          "name": "_amount",
          "type": "uint256"
        }
      ],
      "name": "mintAndTransfer",
      "outputs": [],
      "stateMutability": "nonpayable",
      "type": "function"
    },
    {
      "inputs": [],
      "name": "name",
      "outputs": [
        {
          "internalType": "string",
          "name": "",
          "type": "string"
        }
      ],
      "stateMutability": "view",
      "type": "function"
    },
    {
      "inputs": [],
      "name": "owner",
      "outputs": [
        {
          "internalType": "address",
          "name": "",
          "type": "address"
        }
      ],
      "stateMutability": "view",
      "type": "function"
    },
    {
      "inputs": [],
      "name": "renounceOwnership",
      "outputs": [],
      "stateMutability": "nonpayable",
      "type": "function"
    },
    {
      "inputs": [
        {
          "internalType": "address",
          "name": "from",
          "type": "address"
        },
        {
          "internalType": "address",
          "name": "to",
          "type": "address"
        },
        {
          "internalType": "uint256[]",
          "name": "ids",
          "type": "uint256[]"
        },
        {
          "internalType": "uint256[]",
          "name": "amounts",
          "type": "uint256[]"
        },
        {
          "internalType": "bytes",
          "name": "data",
          "type": "bytes"
        }
      ],
      "name": "safeBatchTransferFrom",
      "outputs": [],
      "stateMutability": "nonpayable",
      "type": "function"
    },
    {
      "inputs": [
        {
          "internalType": "address",
          "name": "from",
          "type": "address"
        },
        {
          "internalType": "address",
          "name": "to",
          "type": "address"
        },
        {
          "internalType": "uint256",
          "name": "id",
          "type": "uint256"
        },
        {
          "internalType": "uint256",
          "name": "amount",
          "type": "uint256"
        },
        {
          "internalType": "bytes",
          "name": "data",
          "type": "bytes"
        }
      ],
      "name": "safeTransferFrom",
      "outputs": [],
      "stateMutability": "nonpayable",
      "type": "function"
    },
    {
      "inputs": [
        {
          "internalType": "address",
          "name": "operator",
          "type": "address"
        },
        {
          "internalType": "bool",
          "name": "approved",
          "type": "bool"
        }
      ],
      "name": "setApprovalForAll",
      "outputs": [],
      "stateMutability": "nonpayable",
      "type": "function"
    },
    {
      "inputs": [
        {
          "internalType": "address",
          "name": "operator",
          "type": "address"
        },
        {
          "internalType": "bool",
          "name": "hasApproval",
          "type": "bool"
        }
      ],
      "name": "setDefaultApproval",
      "outputs": [],
      "stateMutability": "nonpayable",
      "type": "function"
    },
    {
      "inputs": [
        {
          "internalType": "bytes4",
          "name": "interfaceId",
          "type": "bytes4"
        }
      ],
      "name": "supportsInterface",
      "outputs": [
        {
          "internalType": "bool",
          "name": "",
          "type": "bool"
        }
      ],
      "stateMutability": "view",
      "type": "function"
    },
    {
      "inputs": [],
      "name": "symbol",
      "outputs": [
        {
          "internalType": "string",
          "name": "",
          "type": "string"
        }
      ],
      "stateMutability": "view",
      "type": "function"
    },
    {
      "inputs": [
        {
          "components": [
            {
              "internalType": "uint256",
              "name": "tokenId",
              "type": "uint256"
            },
            {
              "internalType": "string",
              "name": "tokenURI",
              "type": "string"
            },
            {
              "internalType": "uint256",
              "name": "supply",
              "type": "uint256"
            },
            {
              "components": [
                {
                  "internalType": "address payable",
                  "name": "account",
                  "type": "address"
                },
                {
                  "internalType": "uint96",
                  "name": "value",
                  "type": "uint96"
                }
              ],
              "internalType": "struct LibPart.Part[]",
              "name": "creators",
              "type": "tuple[]"
            },
            {
              "components": [
                {
                  "internalType": "address payable",
                  "name": "account",
                  "type": "address"
                },
                {
                  "internalType": "uint96",
                  "name": "value",
                  "type": "uint96"
                }
              ],
              "internalType": "struct LibPart.Part[]",
              "name": "royalties",
              "type": "tuple[]"
            },
            {
              "internalType": "bytes[]",
              "name": "signatures",
              "type": "bytes[]"
            }
          ],
          "internalType": "struct LibERC1155LazyMint.Mint1155Data",
          "name": "data",
          "type": "tuple"
        },
        {
          "internalType": "address",
          "name": "from",
          "type": "address"
        },
        {
          "internalType": "address",
          "name": "to",
          "type": "address"
        },
        {
          "internalType": "uint256",
          "name": "amount",
          "type": "uint256"
        }
      ],
      "name": "transferFromOrMint",
      "outputs": [],
      "stateMutability": "nonpayable",
      "type": "function"
    },
    {
      "inputs": [
        {
          "internalType": "address",
          "name": "newOwner",
          "type": "address"
        }
      ],
      "name": "transferOwnership",
      "outputs": [],
      "stateMutability": "nonpayable",
      "type": "function"
    },
    {
      "inputs": [
        {
          "internalType": "uint256",
          "name": "_id",
          "type": "uint256"
        },
        {
          "internalType": "address",
          "name": "_from",
          "type": "address"
        },
        {
          "internalType": "address",
          "name": "_to",
          "type": "address"
        }
      ],
      "name": "updateAccount",
      "outputs": [],
      "stateMutability": "nonpayable",
      "type": "function"
    },
    {
      "inputs": [
        {
          "internalType": "uint256",
          "name": "id",
          "type": "uint256"
        }
      ],
      "name": "uri",
      "outputs": [
        {
          "internalType": "string",
          "name": "",
          "type": "string"
        }
      ],
      "stateMutability": "view",
      "type": "function"
    }
  ],
  "bytecode": "0x608060405234801561001057600080fd5b506149c7806100206000396000f3fe608060405234801561001057600080fd5b50600436106101725760003560e01c806373f139cb116100de578063e07f231911610097578063f242432a11610071578063f242432a1461032b578063f2fde38b1461033e578063f5298aca14610351578063ffc4e0a71461036457610172565b8063e07f2319146102fd578063e8a3d48514610310578063e985e9c51461031857610172565b806373f139cb14610286578063891be974146102995780638da5cb5b146102ac57806395d89b41146102c157806398d0b4fb146102c9578063a22cb465146102ea57610172565b806323e2899f1161013057806323e2899f146102105780632eb2c2d6146102305780634e1273f4146102435780636b20c454146102635780636c0360eb14610276578063715018a61461027e57610172565b8062fdd58e1461017757806301ffc9a7146101a057806306fdde03146101c05780630e89341c146101d55780630eaead67146101e857806318054c37146101fd575b600080fd5b61018a610185366004613ed2565b610377565b604051610197919061458b565b60405180910390f35b6101b36101ae366004613ff0565b6103e6565b604051610197919061435c565b6101c86103f9565b6040516101979190614367565b6101c86101e336600461417d565b610488565b6101fb6101f6366004614126565b610493565b005b6101fb61020b366004613ea1565b610799565b61022361021e36600461417d565b61081b565b6040516101979190614305565b6101fb61023e366004613d20565b6108ab565b610256610251366004613f31565b610ba9565b6040516101979190614318565b6101fb610271366004613e2f565b610c94565b6101c8610d0d565b6101fb610da5565b6101fb610294366004614018565b610e63565b6102236102a736600461417d565b610f55565b6102b4610fd0565b6040516101979190614299565b6101c8610fdf565b6102dc6102d73660046141d6565b61103b565b6040516101979291906142e3565b6101fb6102f8366004613ea1565b611085565b6101fb61030b366004614195565b611174565b6101c86111b7565b6101b3610326366004613ce8565b611213565b6101fb610339366004613dc9565b611226565b6101fb61034c366004613ccc565b6113df565b6101fb61035f366004613efd565b6114f4565b6101fb6103723660046140bf565b611568565b60006001600160a01b0383166103be5760405162461bcd60e51b815260040180806020018281038252602b81526020018061473f602b913960400191505060405180910390fd5b5060009081526097602090815260408083206001600160a01b03949094168352929052205490565b60006103f1826115c3565b90505b919050565b610262805460408051602060026001851615610100026000190190941693909304601f810184900484028201840190925281815292918301828280156104805780601f1061045557610100808354040283529160200191610480565b820191906000526020600020905b81548152906001019060200180831161046357829003601f168201915b505050505081565b60606103f182611647565b825160601c60006104a2611884565b9050806001600160a01b0316826001600160a01b031614806104c957506104c98282611213565b6104ee5760405162461bcd60e51b81526004016104e590614453565b60405180910390fd5b6000831161050e5760405162461bcd60e51b81526004016104e590614429565b845160009081526101fc602052604090205461067757846060015160008151811061053557fe5b6020026020010151600001516001600160a01b0316826001600160a01b0316146105715760405162461bcd60e51b81526004016104e5906143d9565b60008560400151116105955760405162461bcd60e51b81526004016104e59061437a565b8460a0015151856060015151146105ab57600080fd5b60006105b686611888565b905060005b86606001515181101561062c576000876060015182815181106105da57fe5b6020026020010151600001519050836001600160a01b0316816001600160a01b0316146106235761062381848a60a00151858151811061061657fe5b6020026020010151611adb565b506001016105bb565b5061063f86600001518760400151611ae6565b61065186600001518760800151611b50565b61066386600001518760600151611d3f565b61067586600001518760200151611eee565b505b6106968486600001518560405180602001604052806000815250611fb2565b836001600160a01b0316826001600160a01b03161461074757816001600160a01b031660006001600160a01b0316826001600160a01b031660008051602061471f8339815191528860000151876040516106f19291906145b5565b60405180910390a4836001600160a01b0316826001600160a01b0316826001600160a01b031660008051602061471f83398151915288600001518760405161073a9291906145b5565b60405180910390a4610792565b836001600160a01b031660006001600160a01b0316826001600160a01b031660008051602061471f8339815191528860000151876040516107899291906145b5565b60405180910390a45b5050505050565b6107a1611884565b6001600160a01b03166107b2610fd0565b6001600160a01b03161461080d576040805162461bcd60e51b815260206004820181905260248201527f4f776e61626c653a2063616c6c6572206973206e6f7420746865206f776e6572604482015290519081900360640190fd5b6108178282611fc4565b5050565b60606101fa6000838152602001908152602001600020805480602002602001604051908101604052809291908181526020016000905b828210156108a057600084815260209081902060408051808201909152908401546001600160a01b0381168252600160a01b90046001600160601b031681830152825260019092019101610851565b505050509050919050565b81518351146108eb5760405162461bcd60e51b815260040180806020018281038252602881526020018061496a6028913960400191505060405180910390fd5b6001600160a01b0384166109305760405162461bcd60e51b81526004018080602001828103825260258152602001806147ff6025913960400191505060405180910390fd5b610938611884565b6001600160a01b0316856001600160a01b0316148061095e575061095e85610326611884565b6109995760405162461bcd60e51b81526004018080602001828103825260328152602001806148246032913960400191505060405180910390fd5b60006109a3611884565b90506109b3818787878787610ba1565b60005b8451811015610ab95760008582815181106109cd57fe5b6020026020010151905060008583815181106109e557fe5b60200260200101519050610a52816040518060600160405280602a81526020016148c9602a91396097600086815260200190815260200160002060008d6001600160a01b03166001600160a01b03168152602001908152602001600020546120249092919063ffffffff16565b60008381526097602090815260408083206001600160a01b038e811685529252808320939093558a1681522054610a8990826120bb565b60009283526097602090815260408085206001600160a01b038c16865290915290922091909155506001016109b6565b50846001600160a01b0316866001600160a01b0316826001600160a01b03167f4a39dc06d4c0dbc64b70af90fd698a233a518aa5d07e595d983b8c0526c8f7fb8787604051808060200180602001838103835285818151815260200191508051906020019060200280838360005b83811015610b3f578181015183820152602001610b27565b50505050905001838103825284818151815260200191508051906020019060200280838360005b83811015610b7e578181015183820152602001610b66565b5050505090500194505050505060405180910390a4610ba1818787878787612115565b505050505050565b60608151835114610beb5760405162461bcd60e51b81526004018080602001828103825260298152602001806149416029913960400191505060405180910390fd5b600083516001600160401b0381118015610c0457600080fd5b50604051908082528060200260200182016040528015610c2e578160200160208202803683370190505b50905060005b8451811015610c8c57610c6d858281518110610c4c57fe5b6020026020010151858381518110610c6057fe5b6020026020010151610377565b828281518110610c7957fe5b6020908102919091010152600101610c34565b509392505050565b610c9c611884565b6001600160a01b0316836001600160a01b03161480610cc25750610cc283610326611884565b610cfd5760405162461bcd60e51b81526004018080602001828103825260298152602001806147b46029913960400191505060405180910390fd5b610d08838383612394565b505050565b61012f8054604080516020601f6002600019610100600188161502019095169490940493840181900481028201810190925282815260609390929091830182828015610d9a5780601f10610d6f57610100808354040283529160200191610d9a565b820191906000526020600020905b815481529060010190602001808311610d7d57829003601f168201915b505050505090505b90565b610dad611884565b6001600160a01b0316610dbe610fd0565b6001600160a01b031614610e19576040805162461bcd60e51b815260206004820181905260248201527f4f776e61626c653a2063616c6c6572206973206e6f7420746865206f776e6572604482015290519081900360640190fd5b6033546040516000916001600160a01b0316907f8be0079c531659141344cd1fd0a4f28419497f9722a3daafe3b4186f6b6457e0908390a3603380546001600160a01b0319169055565b600054610100900460ff1680610e7c5750610e7c612602565b80610e8a575060005460ff16155b610ec55760405162461bcd60e51b815260040180806020018281038252602e815260200180614856602e913960400191505060405180910390fd5b600054610100900460ff16158015610ef0576000805460ff1961ff0019909116610100171660011790555b610efc85858585612613565b7ec585a2d53657c476d5dc8abfd9c0f01b85746c349dfa7053be00657f615438610f24611884565b8686604051610f35939291906142ad565b60405180910390a18015610792576000805461ff00191690555050505050565b60008181526101fb602090815260408083208054825181850281018501909352808352606094929391929091840182156108a057600084815260209081902060408051808201909152908401546001600160a01b0381168252600160a01b90046001600160601b031681830152825260019092019101610851565b6033546001600160a01b031690565b610263805460408051602060026001851615610100026000190190941693909304601f810184900484028201840190925281815292918301828280156104805780601f1061045557610100808354040283529160200191610480565b6101fb602052816000526040600020818154811061105857600080fd5b6000918252602090912001546001600160a01b0381169250600160a01b90046001600160601b0316905082565b816001600160a01b0316611097611884565b6001600160a01b031614156110dd5760405162461bcd60e51b81526004018080602001828103825260298152602001806149186029913960400191505060405180910390fd5b80609860006110ea611884565b6001600160a01b03908116825260208083019390935260409182016000908120918716808252919093529120805460ff19169215159290921790915561112e611884565b6001600160a01b03167f17307eab39ab6107e8899845ad3d59bd9653f200f220920489ca2b5937696c318360405180821515815260200191505060405180910390a35050565b816001600160a01b0316611186611884565b6001600160a01b0316146111ac5760405162461bcd60e51b81526004016104e590614404565b610d0883838361267f565b610230805460408051602060026001851615610100026000190190941693909304601f810184900484028201840190925281815292918301828280156104805780601f1061045557610100808354040283529160200191610480565b600061121f838361272b565b9392505050565b6001600160a01b03841661126b5760405162461bcd60e51b81526004018080602001828103825260258152602001806147ff6025913960400191505060405180910390fd5b611273611884565b6001600160a01b0316856001600160a01b03161480611299575061129985610326611884565b6112d45760405162461bcd60e51b81526004018080602001828103825260298152602001806147b46029913960400191505060405180910390fd5b60006112de611884565b90506112fe8187876112ef88612757565b6112f888612757565b87610ba1565b611345836040518060600160405280602a81526020016148c9602a913960008781526097602090815260408083206001600160a01b038d1684529091529020549190612024565b60008581526097602090815260408083206001600160a01b038b8116855292528083209390935587168152205461137c90846120bb565b60008581526097602090815260408083206001600160a01b03808b168086529184529382902094909455805188815291820187905280518a84169386169260008051602061471f83398151915292908290030190a4610ba181878787878761279c565b6113e7611884565b6001600160a01b03166113f8610fd0565b6001600160a01b031614611453576040805162461bcd60e51b815260206004820181905260248201527f4f776e61626c653a2063616c6c6572206973206e6f7420746865206f776e6572604482015290519081900360640190fd5b6001600160a01b0381166114985760405162461bcd60e51b815260040180806020018281038252602681526020018061476a6026913960400191505060405180910390fd5b6033546040516001600160a01b038084169216907f8be0079c531659141344cd1fd0a4f28419497f9722a3daafe3b4186f6b6457e090600090a3603380546001600160a01b0319166001600160a01b0392909216919091179055565b6114fc611884565b6001600160a01b0316836001600160a01b03161480611522575061152283610326611884565b61155d5760405162461bcd60e51b81526004018080602001828103825260298152602001806147b46029913960400191505060405180910390fd5b610d0883838361290d565b6000611578848660000151610377565b90508181156115b257828083101561158d5750815b6115ad868689600001518460405180602001604052806000815250611226565b830390505b8015610ba157610ba1868583610493565b60006001600160e01b03198216636db15a0f60e01b14806115f457506001600160e01b0319821663656cb66560e11b145b8061160f57506001600160e01b031982166301ffc9a760e01b145b8061162a57506001600160e01b03198216636cdb3d1360e11b145b806103f15750506001600160e01b0319166303a24d0760e21b1490565b600081815261012e6020908152604080832080548251601f60026000196101006001861615020190931692909204918201859004850281018501909352808352606094938301828280156116dc5780601f106116b1576101008083540402835291602001916116dc565b820191906000526020600020905b8154815290600101906020018083116116bf57829003601f168201915b5050505050905060006116ed610d0d565b9050805160001415611701575090506103f4565b8151156117c25780826040516020018083805190602001908083835b6020831061173c5780518252601f19909201916020918201910161171d565b51815160209384036101000a600019018019909216911617905285519190930192850191508083835b602083106117845780518252601f199092019160209182019101611765565b6001836020036101000a03801982511681845116808217855250505050505090500192505050604051602081830303815290604052925050506103f4565b806117cc85612a2e565b6040516020018083805190602001908083835b602083106117fe5780518252601f1990920191602091820191016117df565b51815160209384036101000a600019018019909216911617905285519190930192850191508083835b602083106118465780518252601f199092019160209182019101611827565b6001836020036101000a0380198251168184511680821785525050505050509050019250505060405160208183030381529060405292505050919050565b3390565b6000808260800151516001600160401b03811180156118a657600080fd5b506040519080825280602002602001820160405280156118d0578160200160208202803683370190505b50905060005b83608001515181101561192257611903846080015182815181106118f657fe5b6020026020010151612b08565b82828151811061190f57fe5b60209081029190910101526001016118d6565b5060008360600151516001600160401b038111801561194057600080fd5b5060405190808252806020026020018201604052801561196a578160200160208202803683370190505b50905060005b8460600151518110156119af57611990856060015182815181106118f657fe5b82828151811061199c57fe5b6020908102919091010152600101611970565b507ffb988707ebb338694f318760b0fd5cfe756d00a2ade251fda110b80c336a3c7f846000015185604001518660200151805190602001208460405160200180828051906020019060200280838360005b83811015611a18578181015183820152602001611a00565b50505050905001915050604051602081830303815290604052805190602001208660405160200180828051906020019060200280838360005b83811015611a69578181015183820152602001611a51565b50505050905001915050604051602081830303815290604052805190602001206040516020018087815260200186815260200185815260200184815260200183815260200182815260200196505050505050506040516020818303038152906040528051906020012092505050919050565b610d08838383612b75565b60008281526101fc602052604090205415611b0057600080fd5b60008281526101fc602052604090819020829055517f5e2aa66efd74cce82b21852e317e5490d9ecc9e6bb953ae24d90851258cc2f5c90611b4490849084906145b5565b60405180910390a15050565b6000805b8251811015611cf45760006001600160a01b0316838281518110611b7457fe5b6020026020010151600001516001600160a01b03161415611bdc576040805162461bcd60e51b815260206004820152601b60248201527f526563697069656e742073686f756c642062652070726573656e740000000000604482015290519081900360640190fd5b828181518110611be857fe5b6020026020010151602001516001600160601b031660001415611c52576040805162461bcd60e51b815260206004820181905260248201527f526f79616c74792076616c75652073686f756c6420626520706f736974697665604482015290519081900360640190fd5b828181518110611c5e57fe5b6020026020010151602001516001600160601b0316820191506101fa6000858152602001908152602001600020838281518110611c9757fe5b60209081029190910181015182546001818101855560009485529383902082519101805492909301516001600160601b0316600160a01b026001600160a01b039182166001600160a01b0319909316929092171617905501611b54565b506127108110611d355760405162461bcd60e51b81526004018080602001828103825260258152602001806148f36025913960400191505060405180910390fd5b610d088383612dad565b60008281526101fb6020526040812090805b8351811015611e8d5760006001600160a01b0316848281518110611d7157fe5b6020026020010151600001516001600160a01b03161415611da45760405162461bcd60e51b81526004016104e5906144c5565b838181518110611db057fe5b6020026020010151602001516001600160601b031660001415611de55760405162461bcd60e51b81526004016104e5906143a4565b82848281518110611df257fe5b602090810291909101810151825460018101845560009384529282902081519301805491909201516001600160601b0316600160a01b026001600160a01b039384166001600160a01b0319909216919091179092169190911790558351611e8390859083908110611e5f57fe5b6020026020010151602001516001600160601b0316836120bb90919063ffffffff16565b9150600101611d51565b508061271014611eaf5760405162461bcd60e51b81526004016104e59061453d565b7f841ffb90d4cabdd1f16034f3fa831d79060febbb8167bdd54a49269365bdf78f8484604051611ee0929190614594565b60405180910390a150505050565b600082815261012e602090815260409091208251611f0e9284019061397e565b50817f6bb7ff708619ba0610cba295a58592e0451dee2622938c8755667688daf3529b611f3a84611647565b6040805160208082528351818301528351919283929083019185019080838360005b83811015611f74578181015183820152602001611f5c565b50505050905090810190601f168015611fa15780820380516001836020036101000a031916815260200191505b509250505060405180910390a25050565b611fbe84848484612dde565b50505050565b6001600160a01b038216600081815260c96020908152604091829020805460ff1916851515908117909155825190815291517f270dbb8ba4292910ae92862466486be25c355c837270a3d8824b36a8bc7c653b9281900390910190a25050565b600081848411156120b35760405162461bcd60e51b81526004018080602001828103825283818151815260200191508051906020019080838360005b83811015612078578181015183820152602001612060565b50505050905090810190601f1680156120a55780820380516001836020036101000a031916815260200191505b509250505060405180910390fd5b505050900390565b60008282018381101561121f576040805162461bcd60e51b815260206004820152601b60248201527f536166654d6174683a206164646974696f6e206f766572666c6f770000000000604482015290519081900360640190fd5b612127846001600160a01b0316612ef0565b15610ba157836001600160a01b031663bc197c8187878686866040518663ffffffff1660e01b815260040180866001600160a01b03168152602001856001600160a01b03168152602001806020018060200180602001848103845287818151815260200191508051906020019060200280838360005b838110156121b557818101518382015260200161219d565b50505050905001848103835286818151815260200191508051906020019060200280838360005b838110156121f45781810151838201526020016121dc565b50505050905001848103825285818151815260200191508051906020019080838360005b83811015612230578181015183820152602001612218565b50505050905090810190601f16801561225d5780820380516001836020036101000a031916815260200191505b5098505050505050505050602060405180830381600087803b15801561228257600080fd5b505af19250505080156122a757506040513d60208110156122a257600080fd5b505160015b61233c576122b3614609565b806122be5750612305565b60405162461bcd60e51b8152602060048201818152835160248401528351849391928392604401919085019080838360008315612078578181015183820152602001612060565b60405162461bcd60e51b81526004018080602001828103825260348152602001806146c36034913960400191505060405180910390fd5b6001600160e01b0319811663bc197c8160e01b1461238b5760405162461bcd60e51b81526004018080602001828103825260288152602001806146f76028913960400191505060405180910390fd5b50505050505050565b6001600160a01b0383166123d95760405162461bcd60e51b81526004018080602001828103825260238152602001806148a66023913960400191505060405180910390fd5b80518251146124195760405162461bcd60e51b815260040180806020018281038252602881526020018061496a6028913960400191505060405180910390fd5b6000612423611884565b905061244381856000868660405180602001604052806000815250610ba1565b60005b8351811015612521576124d883828151811061245e57fe5b6020026020010151604051806060016040528060248152602001614790602491396097600088868151811061248f57fe5b602002602001015181526020019081526020016000206000896001600160a01b03166001600160a01b03168152602001908152602001600020546120249092919063ffffffff16565b609760008684815181106124e857fe5b602090810291909101810151825281810192909252604090810160009081206001600160a01b038a168252909252902055600101612446565b5060006001600160a01b0316846001600160a01b0316826001600160a01b03167f4a39dc06d4c0dbc64b70af90fd698a233a518aa5d07e595d983b8c0526c8f7fb8686604051808060200180602001838103835285818151815260200191508051906020019060200280838360005b838110156125a8578181015183820152602001612590565b50505050905001838103825284818151815260200191508051906020019060200280838360005b838110156125e75781810151838201526020016125cf565b5050505090500194505050505060405180910390a450505050565b600061260d30612ef0565b15905090565b61261b612ef6565b612623612ff0565b61262b613091565b612633612ff0565b61263b61312e565b612653604051806020016040528060008152506131fe565b61265c816132c9565b612664612ff0565b61266c61337b565b6126768484613418565b611fbe826134e5565b60008381526101fa6020526040812054905b818110156107925760008581526101fa6020526040902080546001600160a01b0386169190839081106126c057fe5b6000918252602090912001546001600160a01b031614156127235760008581526101fa602052604090208054849190839081106126f957fe5b600091825260209091200180546001600160a01b0319166001600160a01b03929092169190911790555b600101612691565b6001600160a01b038116600090815260c9602052604081205460ff168061121f575061121f83836134f9565b6040805160018082528183019092526060916000919060208083019080368337019050509050828160008151811061278b57fe5b602090810291909101015292915050565b6127ae846001600160a01b0316612ef0565b15610ba157836001600160a01b031663f23a6e6187878686866040518663ffffffff1660e01b815260040180866001600160a01b03168152602001856001600160a01b0316815260200184815260200183815260200180602001828103825283818151815260200191508051906020019080838360005b8381101561283d578181015183820152602001612825565b50505050905090810190601f16801561286a5780820380516001836020036101000a031916815260200191505b509650505050505050602060405180830381600087803b15801561288d57600080fd5b505af19250505080156128b257506040513d60208110156128ad57600080fd5b505160015b6128be576122b3614609565b6001600160e01b0319811663f23a6e6160e01b1461238b5760405162461bcd60e51b81526004018080602001828103825260288152602001806146f76028913960400191505060405180910390fd5b6001600160a01b0383166129525760405162461bcd60e51b81526004018080602001828103825260238152602001806148a66023913960400191505060405180910390fd5b600061295c611884565b905061298c8185600061296e87612757565b61297787612757565b60405180602001604052806000815250610ba1565b6129d3826040518060600160405280602481526020016147906024913960008681526097602090815260408083206001600160a01b038b1684529091529020549190612024565b60008481526097602090815260408083206001600160a01b03808a168086529184528285209590955581518881529283018790528151939490939086169260008051602061471f83398151915292908290030190a450505050565b606081612a5357506040805180820190915260018152600360fc1b60208201526103f4565b8160005b8115612a6b57600101600a82049150612a57565b6000816001600160401b0381118015612a8357600080fd5b506040519080825280601f01601f191660200182016040528015612aae576020820181803683370190505b50859350905060001982015b8315612aff57600a840660300160f81b82828060019003935081518110612add57fe5b60200101906001600160f81b031916908160001a905350600a84049350612aba565b50949350505050565b8051602091820151604080517f397e04204c1e1a60ee8724b71f8244e10ab5f2e9009854d80f602bda21b59ebb818601526001600160a01b03909316838201526001600160601b039091166060808401919091528151808403909101815260809092019052805191012090565b6000612b8083613527565b9050612b94846001600160a01b0316612ef0565b15612d0d5760408051630b135d3f60e11b808252600482018481526024830193845285516044840152855191936001600160a01b03891693631626ba7e938793899390929091606490910190602085019080838360005b83811015612c03578181015183820152602001612beb565b50505050905090810190601f168015612c305780820380516001836020036101000a031916815260200191505b50935050505060206040518083038186803b158015612c4e57600080fd5b505afa158015612c62573d6000803e3d6000fd5b505050506040513d6020811015612c7857600080fd5b505160408051808201909152601c81527f7369676e617475726520766572696669636174696f6e206572726f72000000006020820152916001600160e01b031990911614612d075760405162461bcd60e51b8152602060048201818152835160248401528351909283926044909101919085019080838360008315612078578181015183820152602001612060565b50611fbe565b6001600160a01b038416612d218284613573565b6001600160a01b0316146040518060400160405280601c81526020017f7369676e617475726520766572696669636174696f6e206572726f7200000000815250906107925760405162461bcd60e51b8152602060048201818152835160248401528351909283926044909101919085019080838360008315612078578181015183820152602001612060565b7f3fa96d7b6bcbfe71ef171666d84db3cf52fa2d1c8afdb1cc8e486177f208b7df8282604051611b44929190614594565b60008381526101fd6020526040812054612df99084906120bb565b60008581526101fc6020526040902054909150811115612e2b5760405162461bcd60e51b81526004016104e59061449b565b60008481526101fd602052604090208190556001600160a01b038516612e635760405162461bcd60e51b81526004016104e5906144fc565b6000612e6d611884565b9050612e8e81600088612e7f89612757565b612e8889612757565b88610ba1565b60008581526097602090815260408083206001600160a01b038a168452909152902054612ebb90856120bb565b60008681526097602090815260408083206001600160a01b038b168452909152812091909155610ba19082908888888861279c565b3b151590565b600054610100900460ff1680612f0f5750612f0f612602565b80612f1d575060005460ff16155b612f585760405162461bcd60e51b815260040180806020018281038252602e815260200180614856602e913960400191505060405180910390fd5b600054610100900460ff16158015612f83576000805460ff1961ff0019909116610100171660011790555b6000612f8d611884565b603380546001600160a01b0319166001600160a01b038316908117909155604051919250906000907f8be0079c531659141344cd1fd0a4f28419497f9722a3daafe3b4186f6b6457e0908290a3508015612fed576000805461ff00191690555b50565b600054610100900460ff16806130095750613009612602565b80613017575060005460ff16155b6130525760405162461bcd60e51b815260040180806020018281038252602e815260200180614856602e913960400191505060405180910390fd5b600054610100900460ff1615801561307d576000805460ff1961ff0019909116610100171660011790555b8015612fed576000805461ff001916905550565b600054610100900460ff16806130aa57506130aa612602565b806130b8575060005460ff16155b6130f35760405162461bcd60e51b815260040180806020018281038252602e815260200180614856602e913960400191505060405180910390fd5b600054610100900460ff1615801561311e576000805460ff1961ff0019909116610100171660011790555b61307d6301ffc9a760e01b6135f3565b600054610100900460ff16806131475750613147612602565b80613155575060005460ff16155b6131905760405162461bcd60e51b815260040180806020018281038252602e815260200180614856602e913960400191505060405180910390fd5b600054610100900460ff161580156131bb576000805460ff1961ff0019909116610100171660011790555b61307d604051806040016040528060088152602001674d696e743131353560c01b815250604051806040016040528060018152602001603160f81b815250613677565b600054610100900460ff16806132175750613217612602565b80613225575060005460ff16155b6132605760405162461bcd60e51b815260040180806020018281038252602e815260200180614856602e913960400191505060405180910390fd5b600054610100900460ff1615801561328b576000805460ff1961ff0019909116610100171660011790555b61329482613739565b6132a4636cdb3d1360e11b6135f3565b6132b46303a24d0760e21b6135f3565b8015610817576000805461ff00191690555050565b600054610100900460ff16806132e257506132e2612602565b806132f0575060005460ff16155b61332b5760405162461bcd60e51b815260040180806020018281038252602e815260200180614856602e913960400191505060405180910390fd5b600054610100900460ff16158015613356576000805460ff1961ff0019909116610100171660011790555b815161336a9061023090602085019061397e565b506132b463e8a3d48560e01b6135f3565b600054610100900460ff16806133945750613394612602565b806133a2575060005460ff16155b6133dd5760405162461bcd60e51b815260040180806020018281038252602e815260200180614856602e913960400191505060405180910390fd5b600054610100900460ff16158015613408576000805460ff1961ff0019909116610100171660011790555b61307d63656cb66560e11b6135f3565b600054610100900460ff16806134315750613431612602565b8061343f575060005460ff16155b61347a5760405162461bcd60e51b815260040180806020018281038252602e815260200180614856602e913960400191505060405180910390fd5b600054610100900460ff161580156134a5576000805460ff1961ff0019909116610100171660011790555b82516134b99061026290602086019061397e565b5081516134ce9061026390602085019061397e565b508015610d08576000805461ff0019169055505050565b80516108179061012f90602084019061397e565b6001600160a01b03918216600090815260986020908152604080832093909416825291909152205460ff1690565b600061353161374c565b82604051602001808061190160f01b81525060020183815260200182815260200192505050604051602081830303815290604052805190602001209050919050565b600081516041146135cb576040805162461bcd60e51b815260206004820152601f60248201527f45434453413a20696e76616c6964207369676e6174757265206c656e67746800604482015290519081900360640190fd5b60208201516040830151606084015160001a6135e98682858561378c565b9695505050505050565b6001600160e01b03198082161415613652576040805162461bcd60e51b815260206004820152601c60248201527f4552433136353a20696e76616c696420696e7465726661636520696400000000604482015290519081900360640190fd5b6001600160e01b0319166000908152606560205260409020805460ff19166001179055565b600054610100900460ff16806136905750613690612602565b8061369e575060005460ff16155b6136d95760405162461bcd60e51b815260040180806020018281038252602e815260200180614856602e913960400191505060405180910390fd5b600054610100900460ff16158015613704576000805460ff1961ff0019909116610100171660011790555b825160208085019190912083519184019190912061016291909155610163558015610d08576000805461ff0019169055505050565b805161081790609990602084019061397e565b60006137877f8b73c3c69bb8fe3d512ecc4cf759cc79239f7b179b0ffacaa9a75d522b39400f61377a61390a565b613782613911565b613918565b905090565b60007f7fffffffffffffffffffffffffffffff5d576e7357a4501ddfe92f46681b20a08211156137ed5760405162461bcd60e51b81526004018080602001828103825260228152602001806147dd6022913960400191505060405180910390fd5b8360ff16601b148061380257508360ff16601c145b61383d5760405162461bcd60e51b81526004018080602001828103825260228152602001806148846022913960400191505060405180910390fd5b600060018686868660405160008152602001604052604051808581526020018460ff1681526020018381526020018281526020019450505050506020604051602081039080840390855afa158015613899573d6000803e3d6000fd5b5050604051601f1901519150506001600160a01b038116613901576040805162461bcd60e51b815260206004820152601860248201527f45434453413a20696e76616c6964207369676e61747572650000000000000000604482015290519081900360640190fd5b95945050505050565b6101625490565b6101635490565b600083838361392561397a565b3060405160200180868152602001858152602001848152602001838152602001826001600160a01b03168152602001955050505050506040516020818303038152906040528051906020012090509392505050565b4690565b828054600181600116156101000203166002900490600052602060002090601f0160209004810192826139b457600085556139fa565b82601f106139cd57805160ff19168380011785556139fa565b828001600101855582156139fa579182015b828111156139fa5782518255916020019190600101906139df565b50613a06929150613a0a565b5090565b5b80821115613a065760008155600101613a0b565b600082601f830112613a2f578081fd5b81356020613a44613a3f836145e6565b6145c3565b82815281810190858301855b85811015613a7957613a67898684358b0101613b9b565b84529284019290840190600101613a50565b5090979650505050505050565b600082601f830112613a96578081fd5b81356020613aa6613a3f836145e6565b82815281810190858301604080860288018501891015613ac4578687fd5b865b86811015613b335781838b031215613adc578788fd5b81518281018181106001600160401b0382111715613af657fe5b83528335613b03816146ad565b8152838701356001600160601b0381168114613b1d57898afd5b8188015285529385019391810191600101613ac6565b509198975050505050505050565b600082601f830112613b51578081fd5b81356020613b61613a3f836145e6565b8281528181019085830183850287018401881015613b7d578586fd5b855b85811015613a7957813584529284019290840190600101613b7f565b600082601f830112613bab578081fd5b81356001600160401b03811115613bbe57fe5b613bd1601f8201601f19166020016145c3565b818152846020838601011115613be5578283fd5b816020850160208301379081016020019190915292915050565b600060c08284031215613c10578081fd5b613c1a60c06145c3565b90508135815260208201356001600160401b0380821115613c3a57600080fd5b613c4685838601613b9b565b6020840152604084013560408401526060840135915080821115613c6957600080fd5b613c7585838601613a86565b60608401526080840135915080821115613c8e57600080fd5b613c9a85838601613a86565b608084015260a0840135915080821115613cb357600080fd5b50613cc084828501613a1f565b60a08301525092915050565b600060208284031215613cdd578081fd5b813561121f816146ad565b60008060408385031215613cfa578081fd5b8235613d05816146ad565b91506020830135613d15816146ad565b809150509250929050565b600080600080600060a08688031215613d37578081fd5b8535613d42816146ad565b94506020860135613d52816146ad565b935060408601356001600160401b0380821115613d6d578283fd5b613d7989838a01613b41565b94506060880135915080821115613d8e578283fd5b613d9a89838a01613b41565b93506080880135915080821115613daf578283fd5b50613dbc88828901613b9b565b9150509295509295909350565b600080600080600060a08688031215613de0578283fd5b8535613deb816146ad565b94506020860135613dfb816146ad565b9350604086013592506060860135915060808601356001600160401b03811115613e23578182fd5b613dbc88828901613b9b565b600080600060608486031215613e43578081fd5b8335613e4e816146ad565b925060208401356001600160401b0380821115613e69578283fd5b613e7587838801613b41565b93506040860135915080821115613e8a578283fd5b50613e9786828701613b41565b9150509250925092565b60008060408385031215613eb3578182fd5b8235613ebe816146ad565b915060208301358015158114613d15578182fd5b60008060408385031215613ee4578182fd5b8235613eef816146ad565b946020939093013593505050565b600080600060608486031215613f11578081fd5b8335613f1c816146ad565b95602085013595506040909401359392505050565b60008060408385031215613f43578182fd5b82356001600160401b0380821115613f59578384fd5b818501915085601f830112613f6c578384fd5b81356020613f7c613a3f836145e6565b82815281810190858301838502870184018b1015613f98578889fd5b8896505b84871015613fc3578035613faf816146ad565b835260019690960195918301918301613f9c565b5096505086013592505080821115613fd9578283fd5b50613fe685828601613b41565b9150509250929050565b600060208284031215614001578081fd5b81356001600160e01b03198116811461121f578182fd5b6000806000806080858703121561402d578182fd5b84356001600160401b0380821115614043578384fd5b61404f88838901613b9b565b95506020870135915080821115614064578384fd5b61407088838901613b9b565b94506040870135915080821115614085578384fd5b61409188838901613b9b565b935060608701359150808211156140a6578283fd5b506140b387828801613b9b565b91505092959194509250565b600080600080608085870312156140d4578182fd5b84356001600160401b038111156140e9578283fd5b6140f587828801613bff565b9450506020850135614106816146ad565b92506040850135614116816146ad565b9396929550929360600135925050565b60008060006060848603121561413a578081fd5b83356001600160401b0381111561414f578182fd5b61415b86828701613bff565b935050602084013561416c816146ad565b929592945050506040919091013590565b60006020828403121561418e578081fd5b5035919050565b6000806000606084860312156141a9578081fd5b8335925060208401356141bb816146ad565b915060408401356141cb816146ad565b809150509250925092565b600080604083850312156141e8578182fd5b50508035926020909101359150565b6000815180845260208085019450808401835b8381101561424357815180516001600160a01b031688528301516001600160601b0316838801526040909601959082019060010161420a565b509495945050505050565b60008151808452815b8181101561427357602081850181015186830182015201614257565b818111156142845782602083870101525b50601f01601f19169290920160200192915050565b6001600160a01b0391909116815260200190565b6001600160a01b03841681526060602082018190526000906142d19083018561424e565b82810360408401526135e9818561424e565b6001600160a01b039290921682526001600160601b0316602082015260400190565b60006020825261121f60208301846141f7565b6020808252825182820181905260009190848201906040850190845b8181101561435057835183529284019291840191600101614334565b50909695505050505050565b901515815260200190565b60006020825261121f602083018461424e565b60208082526010908201526f1cdd5c1c1b1e481a5b98dbdc9c9958dd60821b604082015260600190565b6020808252818101527f43726561746f722073686172652073686f756c6420626520706f736974697665604082015260600190565b6020808252601190820152701d1bdad95b9259081a5b98dbdc9c9958dd607a1b604082015260600190565b6020808252600b908201526a1b9bdd08185b1b1bddd95960aa1b604082015260600190565b60208082526010908201526f185b5bdd5b9d081a5b98dbdc9c9958dd60821b604082015260600190565b60208082526028908201527f455243313135353a207472616e736665722063616c6c6572206973206e6f7420604082015267185c1c1c9bdd995960c21b606082015260800190565b60208082526010908201526f6d6f7265207468616e20737570706c7960801b604082015260600190565b60208082526019908201527f4163636f756e742073686f756c642062652070726573656e7400000000000000604082015260600190565b60208082526021908201527f455243313135353a206d696e7420746f20746865207a65726f206164647265736040820152607360f81b606082015260800190565b6020808252602e908201527f746f74616c20616d6f756e74206f662063726561746f7273207368617265207360408201526d0686f756c642062652031303030360941b606082015260800190565b90815260200190565b6000838252604060208301526145ad60408301846141f7565b949350505050565b918252602082015260400190565b6040518181016001600160401b03811182821017156145de57fe5b604052919050565b60006001600160401b038211156145f957fe5b5060209081020190565b60e01c90565b600060443d101561461957610da2565b600481823e6308c379a061462d8251614603565b1461463757610da2565b6040513d600319016004823e80513d6001600160401b0381602484011181841117156146665750505050610da2565b828401925082519150808211156146805750505050610da2565b503d8301602082840101111561469857505050610da2565b601f01601f1916810160200160405291505090565b6001600160a01b0381168114612fed57600080fdfe455243313135353a207472616e7366657220746f206e6f6e2045524331313535526563656976657220696d706c656d656e746572455243313135353a204552433131353552656365697665722072656a656374656420746f6b656e73c3d58168c5ae7397731d063d5bbf3d657854427343f4c083240f7aacaa2d0f62455243313135353a2062616c616e636520717565727920666f7220746865207a65726f20616464726573734f776e61626c653a206e6577206f776e657220697320746865207a65726f2061646472657373455243313135353a206275726e20616d6f756e7420657863656564732062616c616e6365455243313135353a2063616c6c6572206973206e6f74206f776e6572206e6f7220617070726f76656445434453413a20696e76616c6964207369676e6174757265202773272076616c7565455243313135353a207472616e7366657220746f20746865207a65726f2061646472657373455243313135353a207472616e736665722063616c6c6572206973206e6f74206f776e6572206e6f7220617070726f766564496e697469616c697a61626c653a20636f6e747261637420697320616c726561647920696e697469616c697a656445434453413a20696e76616c6964207369676e6174757265202776272076616c7565455243313135353a206275726e2066726f6d20746865207a65726f2061646472657373455243313135353a20696e73756666696369656e742062616c616e636520666f72207472616e73666572526f79616c747920746f74616c2076616c75652073686f756c64206265203c203130303030455243313135353a2073657474696e6720617070726f76616c2073746174757320666f722073656c66455243313135353a206163636f756e747320616e6420696473206c656e677468206d69736d61746368455243313135353a2069647320616e6420616d6f756e7473206c656e677468206d69736d61746368a2646970667358221220aa81ad317bc6515b057b896aa4c507d465fa7c02ebf102643cdc7a9c6dc9a1cb64736f6c63430007060033",
  "linkReferences": {},
  "deployedLinkReferences": {}
}