{
  "_format": "hh-sol-artifact-1",
  "contractName": "ERC721Ctnft",
  "sourceName": "contracts/tokens/contracts/erc-721/ERC721Ctnft.sol",
  "abi": [
    {
      "anonymous": false,
      "inputs": [
        {
          "indexed": true,
          "internalType": "address",
          "name": "owner",
          "type": "address"
        },
        {
          "indexed": true,
          "internalType": "address",
          "name": "approved",
          "type": "address"
        },
        {
          "indexed": true,
          "internalType": "uint256",
          "name": "tokenId",
          "type": "uint256"
        }
      ],
      "name": "Approval",
      "type": "event"
    },
    {
      "anonymous": false,
      "inputs": [
        {
          "indexed": true,
          "internalType": "address",
          "name": "owner",
          "type": "address"
        },
        {
          "indexed": true,
          "internalType": "address",
          "name": "operator",
          "type": "address"
        },
        {
          "indexed": false,
          "internalType": "bool",
          "name": "approved",
          "type": "bool"
        }
      ],
      "name": "ApprovalForAll",
      "type": "event"
    },
    {
      "anonymous": false,
      "inputs": [
        {
          "indexed": false,
          "internalType": "address",
          "name": "owner",
          "type": "address"
        },
        {
          "indexed": false,
          "internalType": "string",
          "name": "name",
          "type": "string"
        },
        {
          "indexed": false,
          "internalType": "string",
          "name": "symbol",
          "type": "string"
        }
      ],
      "name": "CreateERC721Ctnft",
      "type": "event"
    },
    {
      "anonymous": false,
      "inputs": [
        {
          "indexed": false,
          "internalType": "uint256",
          "name": "tokenId",
          "type": "uint256"
        },
        {
          "components": [
            {
              "internalType": "address payable",
              "name": "account",
              "type": "address"
            },
            {
              "internalType": "uint96",
              "name": "value",
              "type": "uint96"
            }
          ],
          "indexed": false,
          "internalType": "struct LibPart.Part[]",
          "name": "creators",
          "type": "tuple[]"
        }
      ],
      "name": "Creators",
      "type": "event"
    },
    {
      "anonymous": false,
      "inputs": [
        {
          "indexed": true,
          "internalType": "address",
          "name": "operator",
          "type": "address"
        },
        {
          "indexed": false,
          "internalType": "bool",
          "name": "hasApproval",
          "type": "bool"
        }
      ],
      "name": "DefaultApproval",
      "type": "event"
    },
    {
      "anonymous": false,
      "inputs": [
        {
          "indexed": true,
          "internalType": "address",
          "name": "previousOwner",
          "type": "address"
        },
        {
          "indexed": true,
          "internalType": "address",
          "name": "newOwner",
          "type": "address"
        }
      ],
      "name": "OwnershipTransferred",
      "type": "event"
    },
    {
      "anonymous": false,
      "inputs": [
        {
          "indexed": false,
          "internalType": "uint256",
          "name": "tokenId",
          "type": "uint256"
        },
        {
          "components": [
            {
              "internalType": "address payable",
              "name": "account",
              "type": "address"
            },
            {
              "internalType": "uint96",
              "name": "value",
              "type": "uint96"
            }
          ],
          "indexed": false,
          "internalType": "struct LibPart.Part[]",
          "name": "royalties",
          "type": "tuple[]"
        }
      ],
      "name": "RoyaltiesSet",
      "type": "event"
    },
    {
      "anonymous": false,
      "inputs": [
        {
          "indexed": true,
          "internalType": "address",
          "name": "from",
          "type": "address"
        },
        {
          "indexed": true,
          "internalType": "address",
          "name": "to",
          "type": "address"
        },
        {
          "indexed": true,
          "internalType": "uint256",
          "name": "tokenId",
          "type": "uint256"
        }
      ],
      "name": "Transfer",
      "type": "event"
    },
    {
      "inputs": [
        {
          "internalType": "string",
          "name": "_name",
          "type": "string"
        },
        {
          "internalType": "string",
          "name": "_symbol",
          "type": "string"
        },
        {
          "internalType": "string",
          "name": "baseURI",
          "type": "string"
        },
        {
          "internalType": "string",
          "name": "contractURI",
          "type": "string"
        }
      ],
      "name": "__ERC721Ctnft_init",
      "outputs": [],
      "stateMutability": "nonpayable",
      "type": "function"
    },
    {
      "inputs": [
        {
          "internalType": "address",
          "name": "to",
          "type": "address"
        },
        {
          "internalType": "uint256",
          "name": "tokenId",
          "type": "uint256"
        }
      ],
      "name": "approve",
      "outputs": [],
      "stateMutability": "nonpayable",
      "type": "function"
    },
    {
      "inputs": [
        {
          "internalType": "address",
          "name": "owner",
          "type": "address"
        }
      ],
      "name": "balanceOf",
      "outputs": [
        {
          "internalType": "uint256",
          "name": "",
          "type": "uint256"
        }
      ],
      "stateMutability": "view",
      "type": "function"
    },
    {
      "inputs": [],
      "name": "baseURI",
      "outputs": [
        {
          "internalType": "string",
          "name": "",
          "type": "string"
        }
      ],
      "stateMutability": "view",
      "type": "function"
    },
    {
      "inputs": [
        {
          "internalType": "uint256",
          "name": "tokenId",
          "type": "uint256"
        }
      ],
      "name": "burn",
      "outputs": [],
      "stateMutability": "nonpayable",
      "type": "function"
    },
    {
      "inputs": [],
      "name": "contractURI",
      "outputs": [
        {
          "internalType": "string",
          "name": "",
          "type": "string"
        }
      ],
      "stateMutability": "view",
      "type": "function"
    },
    {
      "inputs": [
        {
          "internalType": "uint256",
          "name": "tokenId",
          "type": "uint256"
        }
      ],
      "name": "getApproved",
      "outputs": [
        {
          "internalType": "address",
          "name": "",
          "type": "address"
        }
      ],
      "stateMutability": "view",
      "type": "function"
    },
    {
      "inputs": [
        {
          "internalType": "uint256",
          "name": "_id",
          "type": "uint256"
        }
      ],
      "name": "getCreators",
      "outputs": [
        {
          "components": [
            {
              "internalType": "address payable",
              "name": "account",
              "type": "address"
            },
            {
              "internalType": "uint96",
              "name": "value",
              "type": "uint96"
            }
          ],
          "internalType": "struct LibPart.Part[]",
          "name": "",
          "type": "tuple[]"
        }
      ],
      "stateMutability": "view",
      "type": "function"
    },
    {
      "inputs": [
        {
          "internalType": "uint256",
          "name": "id",
          "type": "uint256"
        }
      ],
      "name": "getCtnftV2Royalties",
      "outputs": [
        {
          "components": [
            {
              "internalType": "address payable",
              "name": "account",
              "type": "address"
            },
            {
              "internalType": "uint96",
              "name": "value",
              "type": "uint96"
            }
          ],
          "internalType": "struct LibPart.Part[]",
          "name": "",
          "type": "tuple[]"
        }
      ],
      "stateMutability": "view",
      "type": "function"
    },
    {
      "inputs": [
        {
          "internalType": "address",
          "name": "owner",
          "type": "address"
        },
        {
          "internalType": "address",
          "name": "operator",
          "type": "address"
        }
      ],
      "name": "isApprovedForAll",
      "outputs": [
        {
          "internalType": "bool",
          "name": "",
          "type": "bool"
        }
      ],
      "stateMutability": "view",
      "type": "function"
    },
    {
      "inputs": [
        {
          "components": [
            {
              "internalType": "uint256",
              "name": "tokenId",
              "type": "uint256"
            },
            {
              "internalType": "string",
              "name": "tokenURI",
              "type": "string"
            },
            {
              "components": [
                {
                  "internalType": "address payable",
                  "name": "account",
                  "type": "address"
                },
                {
                  "internalType": "uint96",
                  "name": "value",
                  "type": "uint96"
                }
              ],
              "internalType": "struct LibPart.Part[]",
              "name": "creators",
              "type": "tuple[]"
            },
            {
              "components": [
                {
                  "internalType": "address payable",
                  "name": "account",
                  "type": "address"
                },
                {
                  "internalType": "uint96",
                  "name": "value",
                  "type": "uint96"
                }
              ],
              "internalType": "struct LibPart.Part[]",
              "name": "royalties",
              "type": "tuple[]"
            },
            {
              "internalType": "bytes[]",
              "name": "signatures",
              "type": "bytes[]"
            }
          ],
          "internalType": "struct LibERC721LazyMint.Mint721Data",
          "name": "data",
          "type": "tuple"
        },
        {
          "internalType": "address",
          "name": "to",
          "type": "address"
        }
      ],
      "name": "mintAndTransfer",
      "outputs": [],
      "stateMutability": "nonpayable",
      "type": "function"
    },
    {
      "inputs": [],
      "name": "name",
      "outputs": [
        {
          "internalType": "string",
          "name": "",
          "type": "string"
        }
      ],
      "stateMutability": "view",
      "type": "function"
    },
    {
      "inputs": [],
      "name": "owner",
      "outputs": [
        {
          "internalType": "address",
          "name": "",
          "type": "address"
        }
      ],
      "stateMutability": "view",
      "type": "function"
    },
    {
      "inputs": [
        {
          "internalType": "uint256",
          "name": "tokenId",
          "type": "uint256"
        }
      ],
      "name": "ownerOf",
      "outputs": [
        {
          "internalType": "address",
          "name": "",
          "type": "address"
        }
      ],
      "stateMutability": "view",
      "type": "function"
    },
    {
      "inputs": [],
      "name": "renounceOwnership",
      "outputs": [],
      "stateMutability": "nonpayable",
      "type": "function"
    },
    {
      "inputs": [
        {
          "internalType": "address",
          "name": "from",
          "type": "address"
        },
        {
          "internalType": "address",
          "name": "to",
          "type": "address"
        },
        {
          "internalType": "uint256",
          "name": "tokenId",
          "type": "uint256"
        }
      ],
      "name": "safeTransferFrom",
      "outputs": [],
      "stateMutability": "nonpayable",
      "type": "function"
    },
    {
      "inputs": [
        {
          "internalType": "address",
          "name": "from",
          "type": "address"
        },
        {
          "internalType": "address",
          "name": "to",
          "type": "address"
        },
        {
          "internalType": "uint256",
          "name": "tokenId",
          "type": "uint256"
        },
        {
          "internalType": "bytes",
          "name": "_data",
          "type": "bytes"
        }
      ],
      "name": "safeTransferFrom",
      "outputs": [],
      "stateMutability": "nonpayable",
      "type": "function"
    },
    {
      "inputs": [
        {
          "internalType": "address",
          "name": "operator",
          "type": "address"
        },
        {
          "internalType": "bool",
          "name": "approved",
          "type": "bool"
        }
      ],
      "name": "setApprovalForAll",
      "outputs": [],
      "stateMutability": "nonpayable",
      "type": "function"
    },
    {
      "inputs": [
        {
          "internalType": "address",
          "name": "operator",
          "type": "address"
        },
        {
          "internalType": "bool",
          "name": "hasApproval",
          "type": "bool"
        }
      ],
      "name": "setDefaultApproval",
      "outputs": [],
      "stateMutability": "nonpayable",
      "type": "function"
    },
    {
      "inputs": [
        {
          "internalType": "bytes4",
          "name": "interfaceId",
          "type": "bytes4"
        }
      ],
      "name": "supportsInterface",
      "outputs": [
        {
          "internalType": "bool",
          "name": "",
          "type": "bool"
        }
      ],
      "stateMutability": "view",
      "type": "function"
    },
    {
      "inputs": [],
      "name": "symbol",
      "outputs": [
        {
          "internalType": "string",
          "name": "",
          "type": "string"
        }
      ],
      "stateMutability": "view",
      "type": "function"
    },
    {
      "inputs": [
        {
          "internalType": "uint256",
          "name": "index",
          "type": "uint256"
        }
      ],
      "name": "tokenByIndex",
      "outputs": [
        {
          "internalType": "uint256",
          "name": "",
          "type": "uint256"
        }
      ],
      "stateMutability": "view",
      "type": "function"
    },
    {
      "inputs": [
        {
          "internalType": "address",
          "name": "owner",
          "type": "address"
        },
        {
          "internalType": "uint256",
          "name": "index",
          "type": "uint256"
        }
      ],
      "name": "tokenOfOwnerByIndex",
      "outputs": [
        {
          "internalType": "uint256",
          "name": "",
          "type": "uint256"
        }
      ],
      "stateMutability": "view",
      "type": "function"
    },
    {
      "inputs": [
        {
          "internalType": "uint256",
          "name": "tokenId",
          "type": "uint256"
        }
      ],
      "name": "tokenURI",
      "outputs": [
        {
          "internalType": "string",
          "name": "",
          "type": "string"
        }
      ],
      "stateMutability": "view",
      "type": "function"
    },
    {
      "inputs": [],
      "name": "totalSupply",
      "outputs": [
        {
          "internalType": "uint256",
          "name": "",
          "type": "uint256"
        }
      ],
      "stateMutability": "view",
      "type": "function"
    },
    {
      "inputs": [
        {
          "internalType": "address",
          "name": "from",
          "type": "address"
        },
        {
          "internalType": "address",
          "name": "to",
          "type": "address"
        },
        {
          "internalType": "uint256",
          "name": "tokenId",
          "type": "uint256"
        }
      ],
      "name": "transferFrom",
      "outputs": [],
      "stateMutability": "nonpayable",
      "type": "function"
    },
    {
      "inputs": [
        {
          "components": [
            {
              "internalType": "uint256",
              "name": "tokenId",
              "type": "uint256"
            },
            {
              "internalType": "string",
              "name": "tokenURI",
              "type": "string"
            },
            {
              "components": [
                {
                  "internalType": "address payable",
                  "name": "account",
                  "type": "address"
                },
                {
                  "internalType": "uint96",
                  "name": "value",
                  "type": "uint96"
                }
              ],
              "internalType": "struct LibPart.Part[]",
              "name": "creators",
              "type": "tuple[]"
            },
            {
              "components": [
                {
                  "internalType": "address payable",
                  "name": "account",
                  "type": "address"
                },
                {
                  "internalType": "uint96",
                  "name": "value",
                  "type": "uint96"
                }
              ],
              "internalType": "struct LibPart.Part[]",
              "name": "royalties",
              "type": "tuple[]"
            },
            {
              "internalType": "bytes[]",
              "name": "signatures",
              "type": "bytes[]"
            }
          ],
          "internalType": "struct LibERC721LazyMint.Mint721Data",
          "name": "data",
          "type": "tuple"
        },
        {
          "internalType": "address",
          "name": "from",
          "type": "address"
        },
        {
          "internalType": "address",
          "name": "to",
          "type": "address"
        }
      ],
      "name": "transferFromOrMint",
      "outputs": [],
      "stateMutability": "nonpayable",
      "type": "function"
    },
    {
      "inputs": [
        {
          "internalType": "address",
          "name": "newOwner",
          "type": "address"
        }
      ],
      "name": "transferOwnership",
      "outputs": [],
      "stateMutability": "nonpayable",
      "type": "function"
    },
    {
      "inputs": [
        {
          "internalType": "uint256",
          "name": "_id",
          "type": "uint256"
        },
        {
          "internalType": "address",
          "name": "_from",
          "type": "address"
        },
        {
          "internalType": "address",
          "name": "_to",
          "type": "address"
        }
      ],
      "name": "updateAccount",
      "outputs": [],
      "stateMutability": "nonpayable",
      "type": "function"
    }
  ],
  "bytecode": "0x608060405234801561001057600080fd5b5061443c806100206000396000f3fe608060405234801561001057600080fd5b50600436106101cf5760003560e01c80636352211e1161010457806395d89b41116100a2578063e07f231911610071578063e07f2319146103b9578063e8a3d485146103cc578063e985e9c5146103d4578063f2fde38b146103e7576101cf565b806395d89b4114610378578063a22cb46514610380578063b88d4fde14610393578063c87b56dd146103a6576101cf565b8063715018a6116100de578063715018a614610342578063832fbb291461034a578063891be9741461035d5780638da5cb5b14610370576101cf565b80636352211e146103145780636c0360eb1461032757806370a082311461032f576101cf565b806323b872dd1161017157806337412e6f1161014b57806337412e6f146102c857806342842e0e146102db57806342966c68146102ee5780634f6ccce714610301576101cf565b806323b872dd1461028257806323e2899f146102955780632f745c59146102b5576101cf565b8063095ea7b3116101ad578063095ea7b31461023257806318054c371461024757806318160ddd1461025a57806322a775b61461026f576101cf565b806301ffc9a7146101d457806306fdde03146101fd578063081812fc14610212575b600080fd5b6101e76101e2366004613b7a565b6103fa565b6040516101f49190613e22565b60405180910390f35b61020561040d565b6040516101f49190613e2d565b610225610220366004613ce5565b6104a3565b6040516101f49190613dc5565b610245610240366004613b4f565b610505565b005b610245610255366004613b1e565b6105e0565b610262610662565b6040516101f49190614007565b61024561027d366004613c3e565b610673565b610245610290366004613a74565b6107fe565b6102a86102a3366004613ce5565b610855565b6040516101f49190613e0f565b6102626102c3366004613b4f565b6108e5565b6102456102d6366004613ba2565b610910565b6102456102e9366004613a74565b610a03565b6102456102fc366004613ce5565b610a1e565b61026261030f366004613ce5565b610a70565b610225610322366004613ce5565b610a86565b610205610aae565b61026261033d366004613a20565b610b0f565b610245610b77565b610245610358366004613c83565b610c35565b6102a861036b366004613ce5565b610c63565b610225610cde565b610205610ced565b61024561038e366004613b1e565b610d4e565b6102456103a1366004613ab4565b610e53565b6102056103b4366004613ce5565b610eb1565b6102456103c7366004613cfd565b611132565b610205611175565b6101e76103e2366004613a3c565b611204565b6102456103f5366004613a20565b611210565b600061040582611325565b90505b919050565b609c8054604080516020601f60026000196101006001881615020190951694909404938401819004810282018101909252828152606093909290918301828280156104995780601f1061046e57610100808354040283529160200191610499565b820191906000526020600020905b81548152906001019060200180831161047c57829003601f168201915b5050505050905090565b60006104ae826113c4565b6104e95760405162461bcd60e51b815260040180806020018281038252602c815260200180614290602c913960400191505060405180910390fd5b506000908152609a60205260409020546001600160a01b031690565b600061051082610a86565b9050806001600160a01b0316836001600160a01b031614156105635760405162461bcd60e51b81526004018080602001828103825260218152602001806143606021913960400191505060405180910390fd5b806001600160a01b03166105756113d1565b6001600160a01b031614806105965750610596816105916113d1565b6113d5565b6105d15760405162461bcd60e51b81526004018080602001828103825260388152602001806141936038913960400191505060405180910390fd5b6105db8383611403565b505050565b6105e86113d1565b6001600160a01b03166105f9610cde565b6001600160a01b031614610654576040805162461bcd60e51b815260206004820181905260248201527f4f776e61626c653a2063616c6c6572206973206e6f7420746865206f776e6572604482015290519081900360640190fd5b61065e8282611471565b5050565b600061066e60986114d1565b905090565b815160601c60006106826113d1565b9050836040015160008151811061069557fe5b6020026020010151600001516001600160a01b0316826001600160a01b0316146106da5760405162461bcd60e51b81526004016106d190613eac565b60405180910390fd5b836080015151846040015151146106f057600080fd5b806001600160a01b0316826001600160a01b0316148061071557506107158282611204565b6107315760405162461bcd60e51b81526004016106d190613f68565b600061073c856114dc565b905060005b8560400151518110156107b25760008660400151828151811061076057fe5b6020026020010151600001519050836001600160a01b0316816001600160a01b0316146107a9576107a981848960800151858151811061079c57fe5b6020026020010151611725565b50600101610741565b506107c1848660000151611730565b6107d38560000151866060015161174a565b6107e585600001518660400151611939565b6107f785600001518660200151611ae8565b5050505050565b61080f6108096113d1565b82611b4b565b61084a5760405162461bcd60e51b81526004018080602001828103825260318152602001806143816031913960400191505060405180910390fd5b6105db838383611b57565b60606101c66000838152602001908152602001600020805480602002602001604051908101604052809291908181526020016000905b828210156108da57600084815260209081902060408051808201909152908401546001600160a01b0381168252600160a01b90046001600160601b03168183015282526001909201910161088b565b505050509050919050565b6001600160a01b03821660009081526097602052604081206109079083611c91565b90505b92915050565b600054610100900460ff16806109295750610929611c9d565b80610937575060005460ff16155b6109725760405162461bcd60e51b815260040180806020018281038252602e81526020018061421e602e913960400191505060405180910390fd5b600054610100900460ff1615801561099d576000805460ff1961ff0019909116610100171660011790555b6109a985858585611cae565b7faa919cd78ba67caf4d665a93176bd0b968b7a8c0ec06564195eb4d30658151cc6109d26113d1565b86866040516109e393929190613dd9565b60405180910390a180156107f7576000805461ff00191690555050505050565b6105db83838360405180602001604052806000815250610e53565b610a296108096113d1565b610a645760405162461bcd60e51b81526004018080602001828103825260308152602001806143d76030913960400191505060405180910390fd5b610a6d81611d02565b50565b600080610a7e609884611dbd565b509392505050565b6000610405826040518060600160405280602981526020016141f56029913960989190611dd9565b609f8054604080516020601f60026000196101006001881615020190951694909404938401819004810282018101909252828152606093909290918301828280156104995780601f1061046e57610100808354040283529160200191610499565b60006001600160a01b038216610b565760405162461bcd60e51b815260040180806020018281038252602a8152602001806141cb602a913960400191505060405180910390fd5b6001600160a01b0382166000908152609760205260409020610405906114d1565b610b7f6113d1565b6001600160a01b0316610b90610cde565b6001600160a01b031614610beb576040805162461bcd60e51b815260206004820181905260248201527f4f776e61626c653a2063616c6c6572206973206e6f7420746865206f776e6572604482015290519081900360640190fd5b6033546040516000916001600160a01b0316907f8be0079c531659141344cd1fd0a4f28419497f9722a3daafe3b4186f6b6457e0908390a3603380546001600160a01b0319169055565b8251610c40906113c4565b15610c5957610c5482828560000151610a03565b6105db565b6105db8382610673565b60008181526101c7602090815260408083208054825181850281018501909352808352606094929391929091840182156108da57600084815260209081902060408051808201909152908401546001600160a01b0381168252600160a01b90046001600160601b03168183015282526001909201910161088b565b6033546001600160a01b031690565b609d8054604080516020601f60026000196101006001881615020190951694909404938401819004810282018101909252828152606093909290918301828280156104995780601f1061046e57610100808354040283529160200191610499565b610d566113d1565b6001600160a01b0316826001600160a01b03161415610dbc576040805162461bcd60e51b815260206004820152601960248201527f4552433732313a20617070726f766520746f2063616c6c657200000000000000604482015290519081900360640190fd5b80609b6000610dc96113d1565b6001600160a01b03908116825260208083019390935260409182016000908120918716808252919093529120805460ff191692151592909217909155610e0d6113d1565b6001600160a01b03167f17307eab39ab6107e8899845ad3d59bd9653f200f220920489ca2b5937696c318360405180821515815260200191505060405180910390a35050565b610e64610e5e6113d1565b83611b4b565b610e9f5760405162461bcd60e51b81526004018080602001828103825260318152602001806143816031913960400191505060405180910390fd5b610eab84848484611df0565b50505050565b6060610ebc826113c4565b610ef75760405162461bcd60e51b815260040180806020018281038252602f815260200180614311602f913960400191505060405180910390fd5b6000828152609e602090815260408083208054825160026001831615610100026000190190921691909104601f810185900485028201850190935282815292909190830182828015610f8a5780601f10610f5f57610100808354040283529160200191610f8a565b820191906000526020600020905b815481529060010190602001808311610f6d57829003601f168201915b505050505090506000610f9b610aae565b9050805160001415610faf57509050610408565b8151156110705780826040516020018083805190602001908083835b60208310610fea5780518252601f199092019160209182019101610fcb565b51815160209384036101000a600019018019909216911617905285519190930192850191508083835b602083106110325780518252601f199092019160209182019101611013565b6001836020036101000a0380198251168184511680821785525050505050509050019250505060405160208183030381529060405292505050610408565b8061107a85611e42565b6040516020018083805190602001908083835b602083106110ac5780518252601f19909201916020918201910161108d565b51815160209384036101000a600019018019909216911617905285519190930192850191508083835b602083106110f45780518252601f1990920191602091820191016110d5565b6001836020036101000a0380198251168184511680821785525050505050509050019250505060405160208183030381529060405292505050919050565b816001600160a01b03166111446113d1565b6001600160a01b03161461116a5760405162461bcd60e51b81526004016106d190613ed7565b6105db838383611f1d565b6101fa805460408051602060026001851615610100026000190190941693909304601f810184900484028201840190925281815292918301828280156111fc5780601f106111d1576101008083540402835291602001916111fc565b820191906000526020600020905b8154815290600101906020018083116111df57829003601f168201915b505050505081565b60006109078383611fc9565b6112186113d1565b6001600160a01b0316611229610cde565b6001600160a01b031614611284576040805162461bcd60e51b815260206004820181905260248201527f4f776e61626c653a2063616c6c6572206973206e6f7420746865206f776e6572604482015290519081900360640190fd5b6001600160a01b0381166112c95760405162461bcd60e51b81526004018080602001828103825260268152602001806140d56026913960400191505060405180910390fd5b6033546040516001600160a01b038084169216907f8be0079c531659141344cd1fd0a4f28419497f9722a3daafe3b4186f6b6457e090600090a3603380546001600160a01b0319166001600160a01b0392909216919091179055565b60006001600160e01b03198216638486f69f60e01b148061135657506001600160e01b0319821663656cb66560e11b145b8061137157506001600160e01b031982166301ffc9a760e01b145b8061138c57506001600160e01b031982166380ac58cd60e01b145b806113a757506001600160e01b03198216635b5e139f60e01b145b806104055750506001600160e01b03191663780e9d6360e01b1490565b6000610405609883611ff5565b3390565b6001600160a01b039182166000908152609b6020908152604080832093909416825291909152205460ff1690565b6000818152609a6020526040902080546001600160a01b0319166001600160a01b038416908117909155819061143882610a86565b6001600160a01b03167f8c5be1e5ebec7d5bd14f71427d1e84f3dd0314c0f7b2291e5b200ac8c7c3b92560405160405180910390a45050565b6001600160a01b038216600081815260c96020908152604091829020805460ff1916851515908117909155825190815291517f270dbb8ba4292910ae92862466486be25c355c837270a3d8824b36a8bc7c653b9281900390910190a25050565b600061040582612001565b60008082606001515167ffffffffffffffff811180156114fb57600080fd5b50604051908082528060200260200182016040528015611525578160200160208202803683370190505b50905060005b836060015151811015611577576115588460600151828151811061154b57fe5b6020026020010151612005565b82828151811061156457fe5b602090810291909101015260010161152b565b50600083604001515167ffffffffffffffff8111801561159657600080fd5b506040519080825280602002602001820160405280156115c0578160200160208202803683370190505b50905060005b846040015151811015611605576115e68560400151828151811061154b57fe5b8282815181106115f257fe5b60209081029190910101526001016115c6565b507ff64326045af5fd7e15297ba939f85b550474d3899daa47d2bc1ffbdb9ced344e84600001518560200151805190602001208360405160200180828051906020019060200280838360005b83811015611669578181015183820152602001611651565b50505050905001915050604051602081830303815290604052805190602001208560405160200180828051906020019060200280838360005b838110156116ba5781810151838201526020016116a2565b505050509050019150506040516020818303038152906040528051906020012060405160200180868152602001858152602001848152602001838152602001828152602001955050505050506040516020818303038152906040528051906020012092505050919050565b6105db838383612072565b61065e8282604051806020016040528060008152506122e7565b6000805b82518110156118ee5760006001600160a01b031683828151811061176e57fe5b6020026020010151600001516001600160a01b031614156117d6576040805162461bcd60e51b815260206004820152601b60248201527f526563697069656e742073686f756c642062652070726573656e740000000000604482015290519081900360640190fd5b8281815181106117e257fe5b6020026020010151602001516001600160601b03166000141561184c576040805162461bcd60e51b815260206004820181905260248201527f526f79616c74792076616c75652073686f756c6420626520706f736974697665604482015290519081900360640190fd5b82818151811061185857fe5b6020026020010151602001516001600160601b0316820191506101c6600085815260200190815260200160002083828151811061189157fe5b60209081029190910181015182546001818101855560009485529383902082519101805492909301516001600160601b0316600160a01b026001600160a01b039182166001600160a01b031990931692909217161790550161174e565b50612710811061192f5760405162461bcd60e51b81526004018080602001828103825260258152602001806143b26025913960400191505060405180910390fd5b6105db8383612339565b60008281526101c76020526040812090805b8351811015611a875760006001600160a01b031684828151811061196b57fe5b6020026020010151600001516001600160a01b0316141561199e5760405162461bcd60e51b81526004016106d190613f31565b8381815181106119aa57fe5b6020026020010151602001516001600160601b0316600014156119df5760405162461bcd60e51b81526004016106d190613e77565b828482815181106119ec57fe5b602090810291909101810151825460018101845560009384529282902081519301805491909201516001600160601b0316600160a01b026001600160a01b039384166001600160a01b0319909216919091179092169190911790558351611a7d90859083908110611a5957fe5b6020026020010151602001516001600160601b03168361237690919063ffffffff16565b915060010161194b565b508061271014611aa95760405162461bcd60e51b81526004016106d190613fb9565b7f841ffb90d4cabdd1f16034f3fa831d79060febbb8167bdd54a49269365bdf78f8484604051611ada929190614010565b60405180910390a150505050565b611af1826113c4565b611b2c5760405162461bcd60e51b815260040180806020018281038252602c8152602001806142bc602c913960400191505060405180910390fd5b6000828152609e6020908152604090912082516105db928401906136f3565b600061090783836123d0565b826001600160a01b0316611b6a82610a86565b6001600160a01b031614611baf5760405162461bcd60e51b81526004018080602001828103825260298152602001806142e86029913960400191505060405180910390fd5b6001600160a01b038216611bf45760405162461bcd60e51b81526004018080602001828103825260248152602001806140fb6024913960400191505060405180910390fd5b611bff8383836105db565b611c0a600082611403565b6001600160a01b0383166000908152609760205260409020611c2c90826123fc565b506001600160a01b0382166000908152609760205260409020611c4f9082612408565b50611c5c60988284612414565b5080826001600160a01b0316846001600160a01b031660008051602061434083398151915260405160405180910390a4505050565b6000610907838361242a565b6000611ca83061248e565b15905090565b611cb782612494565b611cbf6124a7565b611cc7612548565b611ccf6124a7565b611cd76125e5565b611cdf612682565b611ce76124a7565b611cef61277b565b611cf88161284a565b610eab8484612911565b6000611d0d82610a86565b9050611d1b816000846105db565b611d26600083611403565b6000828152609e60205260409020546002600019610100600184161502019091160415611d64576000828152609e60205260408120611d649161377f565b6001600160a01b0381166000908152609760205260409020611d8690836123fc565b50611d92609883612a0c565b5060405182906000906001600160a01b03841690600080516020614340833981519152908390a45050565b6000808080611dcc8686612a18565b9097909650945050505050565b6000611de6848484612a93565b90505b9392505050565b611dfb848484611b57565b611e0784848484612b20565b610eab5760405162461bcd60e51b81526004018080602001828103825260328152602001806140a36032913960400191505060405180910390fd5b606081611e6757506040805180820190915260018152600360fc1b6020820152610408565b8160005b8115611e7f57600101600a82049150611e6b565b60008167ffffffffffffffff81118015611e9857600080fd5b506040519080825280601f01601f191660200182016040528015611ec3576020820181803683370190505b50859350905060001982015b8315611f1457600a840660300160f81b82828060019003935081518110611ef257fe5b60200101906001600160f81b031916908160001a905350600a84049350611ecf565b50949350505050565b60008381526101c66020526040812054905b818110156107f75760008581526101c66020526040902080546001600160a01b038616919083908110611f5e57fe5b6000918252602090912001546001600160a01b03161415611fc15760008581526101c660205260409020805484919083908110611f9757fe5b600091825260209091200180546001600160a01b0319166001600160a01b03929092169190911790555b600101611f2f565b6001600160a01b038116600090815260c9602052604081205460ff1680610907575061090783836113d5565b60006109078383612c89565b5490565b8051602091820151604080517f397e04204c1e1a60ee8724b71f8244e10ab5f2e9009854d80f602bda21b59ebb818601526001600160a01b03909316838201526001600160601b039091166060808401919091528151808403909101815260809092019052805191012090565b600061207d83612ca1565b9050612091846001600160a01b031661248e565b156122475760408051630b135d3f60e11b808252600482018481526024830193845285516044840152855191936001600160a01b03891693631626ba7e938793899390929091606490910190602085019080838360005b838110156121005781810151838201526020016120e8565b50505050905090810190601f16801561212d5780820380516001836020036101000a031916815260200191505b50935050505060206040518083038186803b15801561214b57600080fd5b505afa15801561215f573d6000803e3d6000fd5b505050506040513d602081101561217557600080fd5b505160408051808201909152601c81527f7369676e617475726520766572696669636174696f6e206572726f72000000006020820152916001600160e01b0319909116146122415760405162461bcd60e51b81526004018080602001828103825283818151815260200191508051906020019080838360005b838110156122065781810151838201526020016121ee565b50505050905090810190601f1680156122335780820380516001836020036101000a031916815260200191505b509250505060405180910390fd5b50610eab565b6001600160a01b03841661225b8284612ced565b6001600160a01b0316146040518060400160405280601c81526020017f7369676e617475726520766572696669636174696f6e206572726f7200000000815250906107f75760405162461bcd60e51b81526020600482018181528351602484015283519092839260449091019190850190808383600083156122065781810151838201526020016121ee565b6122f18383612d6d565b6122fe6000848484612b20565b6105db5760405162461bcd60e51b81526004018080602001828103825260328152602001806140a36032913960400191505060405180910390fd5b7f3fa96d7b6bcbfe71ef171666d84db3cf52fa2d1c8afdb1cc8e486177f208b7df828260405161236a929190614010565b60405180910390a15050565b600082820183811015610907576040805162461bcd60e51b815260206004820152601b60248201527f536166654d6174683a206164646974696f6e206f766572666c6f770000000000604482015290519081900360640190fd5b6001600160a01b038216600090815260c9602052604081205460ff168061090757506109078383612d77565b60006109078383612e13565b60006109078383612ed9565b6000611de684846001600160a01b038516612f23565b8154600090821061246c5760405162461bcd60e51b81526004018080602001828103825260228152602001806140816022913960400191505060405180910390fd5b82600001828154811061247b57fe5b9060005260206000200154905092915050565b3b151590565b805161065e90609f9060208401906136f3565b600054610100900460ff16806124c057506124c0611c9d565b806124ce575060005460ff16155b6125095760405162461bcd60e51b815260040180806020018281038252602e81526020018061421e602e913960400191505060405180910390fd5b600054610100900460ff16158015612534576000805460ff1961ff0019909116610100171660011790555b8015610a6d576000805461ff001916905550565b600054610100900460ff16806125615750612561611c9d565b8061256f575060005460ff16155b6125aa5760405162461bcd60e51b815260040180806020018281038252602e81526020018061421e602e913960400191505060405180910390fd5b600054610100900460ff161580156125d5576000805460ff1961ff0019909116610100171660011790555b61253463656cb66560e11b612fba565b600054610100900460ff16806125fe57506125fe611c9d565b8061260c575060005460ff16155b6126475760405162461bcd60e51b815260040180806020018281038252602e81526020018061421e602e913960400191505060405180910390fd5b600054610100900460ff16158015612672576000805460ff1961ff0019909116610100171660011790555b6125346301ffc9a760e01b612fba565b600054610100900460ff168061269b575061269b611c9d565b806126a9575060005460ff16155b6126e45760405162461bcd60e51b815260040180806020018281038252602e81526020018061421e602e913960400191505060405180910390fd5b600054610100900460ff1615801561270f576000805460ff1961ff0019909116610100171660011790555b60006127196113d1565b603380546001600160a01b0319166001600160a01b038316908117909155604051919250906000907f8be0079c531659141344cd1fd0a4f28419497f9722a3daafe3b4186f6b6457e0908290a3508015610a6d576000805461ff001916905550565b600054610100900460ff16806127945750612794611c9d565b806127a2575060005460ff16155b6127dd5760405162461bcd60e51b815260040180806020018281038252602e81526020018061421e602e913960400191505060405180910390fd5b600054610100900460ff16158015612808576000805460ff1961ff0019909116610100171660011790555b612534604051806040016040528060078152602001664d696e7437323160c81b815250604051806040016040528060018152602001603160f81b81525061303e565b600054610100900460ff16806128635750612863611c9d565b80612871575060005460ff16155b6128ac5760405162461bcd60e51b815260040180806020018281038252602e81526020018061421e602e913960400191505060405180910390fd5b600054610100900460ff161580156128d7576000805460ff1961ff0019909116610100171660011790555b81516128eb906101fa9060208501906136f3565b506128fc63e8a3d48560e01b612fba565b801561065e576000805461ff00191690555050565b600054610100900460ff168061292a575061292a611c9d565b80612938575060005460ff16155b6129735760405162461bcd60e51b815260040180806020018281038252602e81526020018061421e602e913960400191505060405180910390fd5b600054610100900460ff1615801561299e576000805460ff1961ff0019909116610100171660011790555b82516129b190609c9060208601906136f3565b5081516129c590609d9060208501906136f3565b506129d66380ac58cd60e01b612fba565b6129e6635b5e139f60e01b612fba565b6129f663780e9d6360e01b612fba565b80156105db576000805461ff0019169055505050565b60006109078383613100565b815460009081908310612a5c5760405162461bcd60e51b815260040180806020018281038252602281526020018061426e6022913960400191505060405180910390fd5b6000846000018481548110612a6d57fe5b906000526020600020906002020190508060000154816001015492509250509250929050565b60008281526001840160205260408120548281612af15760405162461bcd60e51b81526020600482018181528351602484015283519092839260449091019190850190808383600083156122065781810151838201526020016121ee565b50846000016001820381548110612b0457fe5b9060005260206000209060020201600101549150509392505050565b6000612b34846001600160a01b031661248e565b612b4057506001612c81565b6000612c4e630a85bd0160e11b612b556113d1565b88878760405160240180856001600160a01b03168152602001846001600160a01b0316815260200183815260200180602001828103825283818151815260200191508051906020019080838360005b83811015612bbc578181015183820152602001612ba4565b50505050905090810190601f168015612be95780820380516001836020036101000a031916815260200191505b5095505050505050604051602081830303815290604052906001600160e01b0319166020820180516001600160e01b0383818316178352505050506040518060600160405280603281526020016140a3603291396001600160a01b03881691906131d4565b90506000818060200190516020811015612c6757600080fd5b50516001600160e01b031916630a85bd0160e11b14925050505b949350505050565b60009081526001919091016020526040902054151590565b6000612cab6131e3565b82604051602001808061190160f01b81525060020183815260200182815260200192505050604051602081830303815290604052805190602001209050919050565b60008151604114612d45576040805162461bcd60e51b815260206004820152601f60248201527f45434453413a20696e76616c6964207369676e6174757265206c656e67746800604482015290519081900360640190fd5b60208201516040830151606084015160001a612d638682858561321e565b9695505050505050565b61065e828261339c565b6000612d82826113c4565b612dbd5760405162461bcd60e51b815260040180806020018281038252602c815260200180614167602c913960400191505060405180910390fd5b6000612dc883610a86565b9050806001600160a01b0316846001600160a01b03161480612e035750836001600160a01b0316612df8846104a3565b6001600160a01b0316145b80612c815750612c8181856113d5565b60008181526001830160205260408120548015612ecf5783546000198083019190810190600090879083908110612e4657fe5b9060005260206000200154905080876000018481548110612e6357fe5b600091825260208083209091019290925582815260018981019092526040902090840190558654879080612e9357fe5b6001900381819060005260206000200160009055905586600101600087815260200190815260200160002060009055600194505050505061090a565b600091505061090a565b6000612ee58383612c89565b612f1b5750815460018181018455600084815260208082209093018490558454848252828601909352604090209190915561090a565b50600061090a565b600082815260018401602052604081205480612f88575050604080518082018252838152602080820184815286546001818101895560008981528481209551600290930290950191825591519082015586548684528188019092529290912055611de9565b82856000016001830381548110612f9b57fe5b9060005260206000209060020201600101819055506000915050611de9565b6001600160e01b03198082161415613019576040805162461bcd60e51b815260206004820152601c60248201527f4552433136353a20696e76616c696420696e7465726661636520696400000000604482015290519081900360640190fd5b6001600160e01b0319166000908152606560205260409020805460ff19166001179055565b600054610100900460ff16806130575750613057611c9d565b80613065575060005460ff16155b6130a05760405162461bcd60e51b815260040180806020018281038252602e81526020018061421e602e913960400191505060405180910390fd5b600054610100900460ff161580156130cb576000805460ff1961ff0019909116610100171660011790555b825160208085019190912083519184019190912061012e9190915561012f5580156105db576000805461ff0019169055505050565b60008181526001830160205260408120548015612ecf578354600019808301919081019060009087908390811061313357fe5b906000526020600020906002020190508087600001848154811061315357fe5b60009182526020808320845460029093020191825560019384015491840191909155835482528983019052604090209084019055865487908061319257fe5b600082815260208082206002600019909401938402018281556001908101839055929093558881528982019092526040822091909155945061090a9350505050565b6060611de684846000856134be565b600061066e7f8b73c3c69bb8fe3d512ecc4cf759cc79239f7b179b0ffacaa9a75d522b39400f613211613619565b613219613620565b613627565b60007f7fffffffffffffffffffffffffffffff5d576e7357a4501ddfe92f46681b20a082111561327f5760405162461bcd60e51b815260040180806020018281038252602281526020018061411f6022913960400191505060405180910390fd5b8360ff16601b148061329457508360ff16601c145b6132cf5760405162461bcd60e51b815260040180806020018281038252602281526020018061424c6022913960400191505060405180910390fd5b600060018686868660405160008152602001604052604051808581526020018460ff1681526020018381526020018281526020019450505050506020604051602081039080840390855afa15801561332b573d6000803e3d6000fd5b5050604051601f1901519150506001600160a01b038116613393576040805162461bcd60e51b815260206004820152601860248201527f45434453413a20696e76616c6964207369676e61747572650000000000000000604482015290519081900360640190fd5b95945050505050565b6001600160a01b0382166133c25760405162461bcd60e51b81526004016106d190613efc565b6133cb816113c4565b156133e85760405162461bcd60e51b81526004016106d190613e40565b6133f4600083836105db565b6001600160a01b03821660009081526097602052604090206134169082612408565b5061342360988284612414565b50606081901c6001600160a01b03831681146134935760405182906001600160a01b03831690600090600080516020614340833981519152908290a481836001600160a01b0316826001600160a01b031660008051602061434083398151915260405160405180910390a46105db565b60405182906001600160a01b03851690600090600080516020614340833981519152908290a4505050565b6060824710156134ff5760405162461bcd60e51b81526004018080602001828103825260268152602001806141416026913960400191505060405180910390fd5b6135088561248e565b613559576040805162461bcd60e51b815260206004820152601d60248201527f416464726573733a2063616c6c20746f206e6f6e2d636f6e7472616374000000604482015290519081900360640190fd5b600080866001600160a01b031685876040518082805190602001908083835b602083106135975780518252601f199092019160209182019101613578565b6001836020036101000a03801982511681845116808217855250505050505090500191505060006040518083038185875af1925050503d80600081146135f9576040519150601f19603f3d011682016040523d82523d6000602084013e6135fe565b606091505b509150915061360e828286613689565b979650505050505050565b61012e5490565b61012f5490565b60008383836136346136ef565b3060405160200180868152602001858152602001848152602001838152602001826001600160a01b03168152602001955050505050506040516020818303038152906040528051906020012090509392505050565b60608315613698575081611de9565b8251156136a85782518084602001fd5b60405162461bcd60e51b81526020600482018181528451602484015284518593919283926044019190850190808383600083156122065781810151838201526020016121ee565b4690565b828054600181600116156101000203166002900490600052602060002090601f016020900481019282613729576000855561376f565b82601f1061374257805160ff191683800117855561376f565b8280016001018555821561376f579182015b8281111561376f578251825591602001919060010190613754565b5061377b9291506137bf565b5090565b50805460018160011615610100020316600290046000825580601f106137a55750610a6d565b601f016020900490600052602060002090810190610a6d91905b5b8082111561377b57600081556001016137c0565b600082601f8301126137e4578081fd5b813560206137f96137f48361404d565b614029565b82815281810190858301855b8581101561382e5761381c898684358b01016138f7565b84529284019290840190600101613805565b5090979650505050505050565b600082601f83011261384b578081fd5b8135602061385b6137f48361404d565b82815281810190858301604080860288018501891015613879578687fd5b865b868110156138e95781838b031215613891578788fd5b815182810181811067ffffffffffffffff821117156138ac57fe5b835283356138b98161406b565b8152838701356001600160601b03811681146138d357898afd5b818801528552938501939181019160010161387b565b509198975050505050505050565b600082601f830112613907578081fd5b813567ffffffffffffffff81111561391b57fe5b61392e601f8201601f1916602001614029565b818152846020838601011115613942578283fd5b816020850160208301379081016020019190915292915050565b600060a0828403121561396d578081fd5b61397760a0614029565b905081358152602082013567ffffffffffffffff8082111561399857600080fd5b6139a4858386016138f7565b602084015260408401359150808211156139bd57600080fd5b6139c98583860161383b565b604084015260608401359150808211156139e257600080fd5b6139ee8583860161383b565b60608401526080840135915080821115613a0757600080fd5b50613a14848285016137d4565b60808301525092915050565b600060208284031215613a31578081fd5b81356109078161406b565b60008060408385031215613a4e578081fd5b8235613a598161406b565b91506020830135613a698161406b565b809150509250929050565b600080600060608486031215613a88578081fd5b8335613a938161406b565b92506020840135613aa38161406b565b929592945050506040919091013590565b60008060008060808587031215613ac9578081fd5b8435613ad48161406b565b93506020850135613ae48161406b565b925060408501359150606085013567ffffffffffffffff811115613b06578182fd5b613b12878288016138f7565b91505092959194509250565b60008060408385031215613b30578182fd5b8235613b3b8161406b565b915060208301358015158114613a69578182fd5b60008060408385031215613b61578182fd5b8235613b6c8161406b565b946020939093013593505050565b600060208284031215613b8b578081fd5b81356001600160e01b031981168114610907578182fd5b60008060008060808587031215613bb7578182fd5b843567ffffffffffffffff80821115613bce578384fd5b613bda888389016138f7565b95506020870135915080821115613bef578384fd5b613bfb888389016138f7565b94506040870135915080821115613c10578384fd5b613c1c888389016138f7565b93506060870135915080821115613c31578283fd5b50613b12878288016138f7565b60008060408385031215613c50578182fd5b823567ffffffffffffffff811115613c66578283fd5b613c728582860161395c565b9250506020830135613a698161406b565b600080600060608486031215613c97578081fd5b833567ffffffffffffffff811115613cad578182fd5b613cb98682870161395c565b9350506020840135613cca8161406b565b91506040840135613cda8161406b565b809150509250925092565b600060208284031215613cf6578081fd5b5035919050565b600080600060608486031215613d11578081fd5b833592506020840135613cca8161406b565b6000815180845260208085019450808401835b83811015613d6f57815180516001600160a01b031688528301516001600160601b03168388015260409096019590820190600101613d36565b509495945050505050565b60008151808452815b81811015613d9f57602081850181015186830182015201613d83565b81811115613db05782602083870101525b50601f01601f19169290920160200192915050565b6001600160a01b0391909116815260200190565b6001600160a01b0384168152606060208201819052600090613dfd90830185613d7a565b8281036040840152612d638185613d7a565b6000602082526109076020830184613d23565b901515815260200190565b6000602082526109076020830184613d7a565b6020808252601c908201527f4552433732313a20746f6b656e20616c7265616479206d696e74656400000000604082015260600190565b6020808252818101527f43726561746f722073686172652073686f756c6420626520706f736974697665604082015260600190565b6020808252601190820152701d1bdad95b9259081a5b98dbdc9c9958dd607a1b604082015260600190565b6020808252600b908201526a1b9bdd08185b1b1bddd95960aa1b604082015260600190565b6020808252818101527f4552433732313a206d696e7420746f20746865207a65726f2061646472657373604082015260600190565b60208082526019908201527f4163636f756e742073686f756c642062652070726573656e7400000000000000604082015260600190565b60208082526031908201527f4552433732313a207472616e736665722063616c6c6572206973206e6f74206f6040820152701ddb995c881b9bdc88185c1c1c9bdd9959607a1b606082015260800190565b6020808252602e908201527f746f74616c20616d6f756e74206f662063726561746f7273207368617265207360408201526d0686f756c642062652031303030360941b606082015260800190565b90815260200190565b600083825260406020830152611de66040830184613d23565b60405181810167ffffffffffffffff8111828210171561404557fe5b604052919050565b600067ffffffffffffffff82111561406157fe5b5060209081020190565b6001600160a01b0381168114610a6d57600080fdfe456e756d657261626c655365743a20696e646578206f7574206f6620626f756e64734552433732313a207472616e7366657220746f206e6f6e20455243373231526563656976657220696d706c656d656e7465724f776e61626c653a206e6577206f776e657220697320746865207a65726f20616464726573734552433732313a207472616e7366657220746f20746865207a65726f206164647265737345434453413a20696e76616c6964207369676e6174757265202773272076616c7565416464726573733a20696e73756666696369656e742062616c616e636520666f722063616c6c4552433732313a206f70657261746f7220717565727920666f72206e6f6e6578697374656e7420746f6b656e4552433732313a20617070726f76652063616c6c6572206973206e6f74206f776e6572206e6f7220617070726f76656420666f7220616c6c4552433732313a2062616c616e636520717565727920666f7220746865207a65726f20616464726573734552433732313a206f776e657220717565727920666f72206e6f6e6578697374656e7420746f6b656e496e697469616c697a61626c653a20636f6e747261637420697320616c726561647920696e697469616c697a656445434453413a20696e76616c6964207369676e6174757265202776272076616c7565456e756d657261626c654d61703a20696e646578206f7574206f6620626f756e64734552433732313a20617070726f76656420717565727920666f72206e6f6e6578697374656e7420746f6b656e4552433732314d657461646174613a2055524920736574206f66206e6f6e6578697374656e7420746f6b656e4552433732313a207472616e73666572206f6620746f6b656e2074686174206973206e6f74206f776e4552433732314d657461646174613a2055524920717565727920666f72206e6f6e6578697374656e7420746f6b656eddf252ad1be2c89b69c2b068fc378daa952ba7f163c4a11628f55a4df523b3ef4552433732313a20617070726f76616c20746f2063757272656e74206f776e65724552433732313a207472616e736665722063616c6c6572206973206e6f74206f776e6572206e6f7220617070726f766564526f79616c747920746f74616c2076616c75652073686f756c64206265203c2031303030304552433732314275726e61626c653a2063616c6c6572206973206e6f74206f776e6572206e6f7220617070726f766564a2646970667358221220a8d5eef439026b2acc3943ef9ae9248f8f52418754d47a02dbd5eae0efa1cf6564736f6c63430007060033",
  "linkReferences": {},
  "deployedLinkReferences": {}
}