{
  "_format": "hh-sol-artifact-1",
  "contractName": "JobContract",
  "sourceName": "contracts/jobs/jobContract.sol",
  "abi": [
    {
      "inputs": [],
      "stateMutability": "nonpayable",
      "type": "constructor"
    },
    {
      "anonymous": false,
      "inputs": [
        {
          "indexed": true,
          "internalType": "address",
          "name": "addr",
          "type": "address"
        },
        {
          "indexed": false,
          "internalType": "uint256[]",
          "name": "",
          "type": "uint256[]"
        }
      ],
      "name": "ApplyJob",
      "type": "event"
    },
    {
      "anonymous": false,
      "inputs": [
        {
          "indexed": true,
          "internalType": "bytes",
          "name": "orderid",
          "type": "bytes"
        },
        {
          "components": [
            {
              "internalType": "bytes",
              "name": "orderid",
              "type": "bytes"
            },
            {
              "internalType": "address",
              "name": "publisher",
              "type": "address"
            },
            {
              "internalType": "string",
              "name": "link",
              "type": "string"
            },
            {
              "internalType": "string",
              "name": "image",
              "type": "string"
            }
          ],
          "indexed": false,
          "internalType": "struct JobContract.Carousel",
          "name": "",
          "type": "tuple"
        }
      ],
      "name": "CreateCarousel",
      "type": "event"
    },
    {
      "anonymous": false,
      "inputs": [
        {
          "indexed": true,
          "internalType": "bytes",
          "name": "orderid",
          "type": "bytes"
        },
        {
          "components": [
            {
              "internalType": "bytes",
              "name": "orderid",
              "type": "bytes"
            },
            {
              "internalType": "address",
              "name": "publisher",
              "type": "address"
            },
            {
              "internalType": "uint256",
              "name": "datetime",
              "type": "uint256"
            },
            {
              "internalType": "string",
              "name": "meta",
              "type": "string"
            },
            {
              "internalType": "uint256",
              "name": "_type",
              "type": "uint256"
            }
          ],
          "indexed": false,
          "internalType": "struct JobContract.Job",
          "name": "",
          "type": "tuple"
        }
      ],
      "name": "CreateJob",
      "type": "event"
    },
    {
      "anonymous": false,
      "inputs": [
        {
          "indexed": true,
          "internalType": "bytes32",
          "name": "hash",
          "type": "bytes32"
        },
        {
          "indexed": true,
          "internalType": "address",
          "name": "from",
          "type": "address"
        },
        {
          "indexed": true,
          "internalType": "address",
          "name": "to",
          "type": "address"
        },
        {
          "indexed": false,
          "internalType": "string",
          "name": "content",
          "type": "string"
        }
      ],
      "name": "jobChat",
      "type": "event"
    },
    {
      "anonymous": false,
      "inputs": [
        {
          "indexed": true,
          "internalType": "address",
          "name": "from",
          "type": "address"
        },
        {
          "indexed": true,
          "internalType": "address",
          "name": "to",
          "type": "address"
        }
      ],
      "name": "jobChatItem",
      "type": "event"
    },
    {
      "inputs": [
        {
          "internalType": "uint256",
          "name": "_index",
          "type": "uint256"
        },
        {
          "internalType": "bool",
          "name": "isApply",
          "type": "bool"
        }
      ],
      "name": "applyJob",
      "outputs": [],
      "stateMutability": "nonpayable",
      "type": "function"
    },
    {
      "inputs": [
        {
          "components": [
            {
              "internalType": "bytes",
              "name": "orderid",
              "type": "bytes"
            },
            {
              "internalType": "address",
              "name": "publisher",
              "type": "address"
            },
            {
              "internalType": "string",
              "name": "link",
              "type": "string"
            },
            {
              "internalType": "string",
              "name": "image",
              "type": "string"
            }
          ],
          "internalType": "struct JobContract.Carousel",
          "name": "_carousel",
          "type": "tuple"
        }
      ],
      "name": "createCarousel",
      "outputs": [],
      "stateMutability": "payable",
      "type": "function"
    },
    {
      "inputs": [
        {
          "components": [
            {
              "internalType": "bytes",
              "name": "orderid",
              "type": "bytes"
            },
            {
              "internalType": "address",
              "name": "publisher",
              "type": "address"
            },
            {
              "internalType": "uint256",
              "name": "datetime",
              "type": "uint256"
            },
            {
              "internalType": "string",
              "name": "meta",
              "type": "string"
            },
            {
              "internalType": "uint256",
              "name": "_type",
              "type": "uint256"
            }
          ],
          "internalType": "struct JobContract.Job",
          "name": "_job",
          "type": "tuple"
        }
      ],
      "name": "createJob",
      "outputs": [],
      "stateMutability": "payable",
      "type": "function"
    },
    {
      "inputs": [
        {
          "internalType": "uint256",
          "name": "_index",
          "type": "uint256"
        }
      ],
      "name": "deleteCarousel",
      "outputs": [],
      "stateMutability": "nonpayable",
      "type": "function"
    },
    {
      "inputs": [
        {
          "internalType": "uint256",
          "name": "page",
          "type": "uint256"
        },
        {
          "internalType": "uint256",
          "name": "limit",
          "type": "uint256"
        }
      ],
      "name": "getApplyJobs",
      "outputs": [
        {
          "components": [
            {
              "internalType": "bytes",
              "name": "orderid",
              "type": "bytes"
            },
            {
              "internalType": "address",
              "name": "publisher",
              "type": "address"
            },
            {
              "internalType": "uint256",
              "name": "datetime",
              "type": "uint256"
            },
            {
              "internalType": "string",
              "name": "meta",
              "type": "string"
            },
            {
              "internalType": "uint256",
              "name": "_type",
              "type": "uint256"
            }
          ],
          "internalType": "struct JobContract.Job[]",
          "name": "",
          "type": "tuple[]"
        },
        {
          "internalType": "uint256",
          "name": "",
          "type": "uint256"
        },
        {
          "internalType": "uint256",
          "name": "",
          "type": "uint256"
        },
        {
          "internalType": "uint256",
          "name": "",
          "type": "uint256"
        }
      ],
      "stateMutability": "view",
      "type": "function"
    },
    {
      "inputs": [],
      "name": "getCarousel",
      "outputs": [
        {
          "components": [
            {
              "internalType": "bytes",
              "name": "orderid",
              "type": "bytes"
            },
            {
              "internalType": "address",
              "name": "publisher",
              "type": "address"
            },
            {
              "internalType": "string",
              "name": "link",
              "type": "string"
            },
            {
              "internalType": "string",
              "name": "image",
              "type": "string"
            }
          ],
          "internalType": "struct JobContract.Carousel[]",
          "name": "",
          "type": "tuple[]"
        }
      ],
      "stateMutability": "view",
      "type": "function"
    },
    {
      "inputs": [],
      "name": "getCarouselFee",
      "outputs": [
        {
          "internalType": "uint256",
          "name": "",
          "type": "uint256"
        }
      ],
      "stateMutability": "view",
      "type": "function"
    },
    {
      "inputs": [],
      "name": "getJobPostBy",
      "outputs": [
        {
          "components": [
            {
              "internalType": "bytes",
              "name": "orderid",
              "type": "bytes"
            },
            {
              "internalType": "address",
              "name": "publisher",
              "type": "address"
            },
            {
              "internalType": "uint256",
              "name": "datetime",
              "type": "uint256"
            },
            {
              "internalType": "string",
              "name": "meta",
              "type": "string"
            },
            {
              "internalType": "uint256",
              "name": "_type",
              "type": "uint256"
            }
          ],
          "internalType": "struct JobContract.Job[]",
          "name": "",
          "type": "tuple[]"
        }
      ],
      "stateMutability": "view",
      "type": "function"
    },
    {
      "inputs": [
        {
          "internalType": "uint256",
          "name": "page",
          "type": "uint256"
        },
        {
          "internalType": "uint256",
          "name": "limit",
          "type": "uint256"
        },
        {
          "internalType": "uint256",
          "name": "_type",
          "type": "uint256"
        }
      ],
      "name": "getJobs",
      "outputs": [
        {
          "components": [
            {
              "internalType": "bytes",
              "name": "orderid",
              "type": "bytes"
            },
            {
              "internalType": "address",
              "name": "publisher",
              "type": "address"
            },
            {
              "internalType": "uint256",
              "name": "datetime",
              "type": "uint256"
            },
            {
              "internalType": "string",
              "name": "meta",
              "type": "string"
            },
            {
              "internalType": "uint256",
              "name": "_type",
              "type": "uint256"
            }
          ],
          "internalType": "struct JobContract.Job[]",
          "name": "",
          "type": "tuple[]"
        },
        {
          "internalType": "uint256",
          "name": "",
          "type": "uint256"
        },
        {
          "internalType": "uint256",
          "name": "",
          "type": "uint256"
        },
        {
          "internalType": "uint256",
          "name": "",
          "type": "uint256"
        }
      ],
      "stateMutability": "view",
      "type": "function"
    },
    {
      "inputs": [
        {
          "internalType": "uint256",
          "name": "page",
          "type": "uint256"
        },
        {
          "internalType": "uint256",
          "name": "limit",
          "type": "uint256"
        },
        {
          "internalType": "address",
          "name": "_addr",
          "type": "address"
        }
      ],
      "name": "getMessages",
      "outputs": [
        {
          "components": [
            {
              "internalType": "address",
              "name": "sender",
              "type": "address"
            },
            {
              "internalType": "address",
              "name": "receiver",
              "type": "address"
            },
            {
              "internalType": "uint256",
              "name": "timestamp",
              "type": "uint256"
            },
            {
              "internalType": "string",
              "name": "content",
              "type": "string"
            }
          ],
          "internalType": "struct JobContract.Message[]",
          "name": "messageFrom",
          "type": "tuple[]"
        },
        {
          "internalType": "uint256",
          "name": "pageFrom",
          "type": "uint256"
        },
        {
          "internalType": "uint256",
          "name": "limitFrom",
          "type": "uint256"
        },
        {
          "internalType": "uint256",
          "name": "maxAmountFrom",
          "type": "uint256"
        },
        {
          "components": [
            {
              "internalType": "address",
              "name": "sender",
              "type": "address"
            },
            {
              "internalType": "address",
              "name": "receiver",
              "type": "address"
            },
            {
              "internalType": "uint256",
              "name": "timestamp",
              "type": "uint256"
            },
            {
              "internalType": "string",
              "name": "content",
              "type": "string"
            }
          ],
          "internalType": "struct JobContract.Message[]",
          "name": "messageTo",
          "type": "tuple[]"
        },
        {
          "internalType": "uint256",
          "name": "pageTo",
          "type": "uint256"
        },
        {
          "internalType": "uint256",
          "name": "limitTo",
          "type": "uint256"
        },
        {
          "internalType": "uint256",
          "name": "maxAmountTo",
          "type": "uint256"
        }
      ],
      "stateMutability": "view",
      "type": "function"
    },
    {
      "inputs": [],
      "name": "getNormalFee",
      "outputs": [
        {
          "internalType": "uint256",
          "name": "",
          "type": "uint256"
        }
      ],
      "stateMutability": "view",
      "type": "function"
    },
    {
      "inputs": [],
      "name": "getTalentPostBy",
      "outputs": [
        {
          "components": [
            {
              "internalType": "bytes",
              "name": "orderid",
              "type": "bytes"
            },
            {
              "internalType": "address",
              "name": "publisher",
              "type": "address"
            },
            {
              "internalType": "uint256",
              "name": "datetime",
              "type": "uint256"
            },
            {
              "internalType": "string",
              "name": "meta",
              "type": "string"
            },
            {
              "internalType": "uint256",
              "name": "_type",
              "type": "uint256"
            }
          ],
          "internalType": "struct JobContract.Job[]",
          "name": "",
          "type": "tuple[]"
        }
      ],
      "stateMutability": "view",
      "type": "function"
    },
    {
      "inputs": [
        {
          "internalType": "address",
          "name": "_from",
          "type": "address"
        },
        {
          "internalType": "address",
          "name": "_to",
          "type": "address"
        }
      ],
      "name": "hash",
      "outputs": [
        {
          "internalType": "bytes32",
          "name": "",
          "type": "bytes32"
        }
      ],
      "stateMutability": "pure",
      "type": "function"
    },
    {
      "inputs": [],
      "name": "init",
      "outputs": [],
      "stateMutability": "nonpayable",
      "type": "function"
    },
    {
      "inputs": [
        {
          "internalType": "uint256",
          "name": "",
          "type": "uint256"
        },
        {
          "internalType": "address",
          "name": "",
          "type": "address"
        }
      ],
      "name": "jobIndexToFlag",
      "outputs": [
        {
          "internalType": "bool",
          "name": "",
          "type": "bool"
        }
      ],
      "stateMutability": "view",
      "type": "function"
    },
    {
      "inputs": [
        {
          "internalType": "uint256",
          "name": "",
          "type": "uint256"
        }
      ],
      "name": "jobs",
      "outputs": [
        {
          "internalType": "bytes",
          "name": "orderid",
          "type": "bytes"
        },
        {
          "internalType": "address",
          "name": "publisher",
          "type": "address"
        },
        {
          "internalType": "uint256",
          "name": "datetime",
          "type": "uint256"
        },
        {
          "internalType": "string",
          "name": "meta",
          "type": "string"
        },
        {
          "internalType": "uint256",
          "name": "_type",
          "type": "uint256"
        }
      ],
      "stateMutability": "view",
      "type": "function"
    },
    {
      "inputs": [
        {
          "internalType": "address",
          "name": "receiver",
          "type": "address"
        },
        {
          "internalType": "string",
          "name": "content",
          "type": "string"
        }
      ],
      "name": "sendMessage",
      "outputs": [],
      "stateMutability": "nonpayable",
      "type": "function"
    },
    {
      "inputs": [
        {
          "internalType": "address",
          "name": "_address",
          "type": "address"
        }
      ],
      "name": "setAdministrator",
      "outputs": [],
      "stateMutability": "nonpayable",
      "type": "function"
    },
    {
      "inputs": [
        {
          "internalType": "uint256",
          "name": "value",
          "type": "uint256"
        }
      ],
      "name": "setCarouselFee",
      "outputs": [],
      "stateMutability": "nonpayable",
      "type": "function"
    },
    {
      "inputs": [
        {
          "internalType": "uint256",
          "name": "value",
          "type": "uint256"
        }
      ],
      "name": "setNormalFee",
      "outputs": [],
      "stateMutability": "nonpayable",
      "type": "function"
    },
    {
      "inputs": [
        {
          "internalType": "uint256",
          "name": "",
          "type": "uint256"
        }
      ],
      "name": "talents",
      "outputs": [
        {
          "internalType": "bytes",
          "name": "orderid",
          "type": "bytes"
        },
        {
          "internalType": "address",
          "name": "publisher",
          "type": "address"
        },
        {
          "internalType": "uint256",
          "name": "datetime",
          "type": "uint256"
        },
        {
          "internalType": "string",
          "name": "meta",
          "type": "string"
        },
        {
          "internalType": "uint256",
          "name": "_type",
          "type": "uint256"
        }
      ],
      "stateMutability": "view",
      "type": "function"
    },
    {
      "inputs": [
        {
          "internalType": "uint256",
          "name": "amount",
          "type": "uint256"
        }
      ],
      "name": "transfer",
      "outputs": [],
      "stateMutability": "nonpayable",
      "type": "function"
    }
  ],
  "bytecode": "0x608060405234801561001057600080fd5b50600080546001600160a01b031916331781556001819055600281905560035566038d7ea4c6800060045567016345785d8a0000600555612df3806100566000396000f3fe6080604052600436106101355760003560e01c806367401c36116100ab5780639b993be61161006f5780639b993be614610392578063a5199920146103a7578063de6f24bb146103c9578063df8089ef146103e9578063e1c7392a14610409578063f4ae0f741461041857600080fd5b806367401c36146102c55780636a07b9b4146102e557806370e5478f14610305578063871683fa146103255780638abce03d1461034757600080fd5b8063180aedf3116100fd578063180aedf3146101e85780631d9b44471461021957806329c9810b146102395780633c0483cf146102675780633ce32fdb1461027c5780634fd31da21461029157600080fd5b80630420ddd11461013a57806312514bba1461017357806312938fd014610195578063146f9ce5146101a85780631646bbd3146101c8575b600080fd5b34801561014657600080fd5b5061015a6101553660046127d8565b61042b565b60405161016a9493929190612a58565b60405180910390f35b34801561017f57600080fd5b5061019361018e366004612710565b61090c565b005b6101936101a3366004612591565b61097c565b3480156101b457600080fd5b506101936101c3366004612710565b610abc565b3480156101d457600080fd5b506101936101e3366004612710565b610aeb565b3480156101f457600080fd5b50610208610203366004612710565b610b1a565b60405161016a959493929190612b29565b34801561022557600080fd5b50610208610234366004612710565b610c7e565b34801561024557600080fd5b50610259610254366004612510565b610c8e565b60405190815260200161016a565b34801561027357600080fd5b50600554610259565b34801561028857600080fd5b50600454610259565b34801561029d57600080fd5b506102b16102ac3660046127a3565b610d3a565b60405161016a989796959493929190612a87565b3480156102d157600080fd5b506101936102e0366004612710565b610d7f565b3480156102f157600080fd5b5061015a610300366004612781565b6110eb565b34801561031157600080fd5b5061019361032036600461274c565b61142a565b34801561033157600080fd5b5061033a61160a565b60405161016a9190612a45565b34801561035357600080fd5b50610382610362366004612729565b600c60209081526000928352604080842090915290825290205460ff1681565b604051901515815260200161016a565b34801561039e57600080fd5b5061033a6117c5565b3480156103b357600080fd5b506103bc611976565b60405161016a91906129e3565b3480156103d557600080fd5b506101936103e4366004612543565b611ba2565b3480156103f557600080fd5b506101936104043660046124f5565b611cf4565b34801561041557600080fd5b50005b610193610426366004612657565b611d40565b6060600080808085610440575060015461044e565b856001141561044e57506002545b600061045a8883612c6b565b90506104668883612d3b565b1561047957610476600182612c53565b90505b600080606060008511801561048e5750838c11155b156108fd578b8414156104c557600192508a6104aa848e612c9e565b6104b49190612c7f565b6104be9086612c9e565b9150610509565b6104cf8b8d612c7f565b6104d99086612c9e565b6104e4906001612c53565b92508a6104f260018e612c9e565b6104fc9190612c7f565b6105069086612c9e565b91505b6105138383612c9e565b61051e906001612c53565b67ffffffffffffffff81111561053657610536612da7565b60405190808252806020026020018201604052801561056f57816020015b61055c612345565b8152602001906001900390816105545790505b509050825b8281116108fb578a61073257600661058d600183612c9e565b8154811061059d5761059d612d91565b90600052602060002090600502016040518060a00160405290816000820180546105c690612ce5565b80601f01602080910402602001604051908101604052809291908181526020018280546105f290612ce5565b801561063f5780601f106106145761010080835404028352916020019161063f565b820191906000526020600020905b81548152906001019060200180831161062257829003601f168201915b505050918352505060018201546001600160a01b031660208201526002820154604082015260038201805460609092019161067990612ce5565b80601f01602080910402602001604051908101604052809291908181526020018280546106a590612ce5565b80156106f25780601f106106c7576101008083540402835291602001916106f2565b820191906000526020600020905b8154815290600101906020018083116106d557829003601f168201915b505050505081526020016004820154815250508282856107129190612c9e565b8151811061072257610722612d91565b60200260200101819052506108e9565b8a600114156108e9576007610748600183612c9e565b8154811061075857610758612d91565b90600052602060002090600502016040518060a001604052908160008201805461078190612ce5565b80601f01602080910402602001604051908101604052809291908181526020018280546107ad90612ce5565b80156107fa5780601f106107cf576101008083540402835291602001916107fa565b820191906000526020600020905b8154815290600101906020018083116107dd57829003601f168201915b505050918352505060018201546001600160a01b031660208201526002820154604082015260038201805460609092019161083490612ce5565b80601f016020809104026020016040519081016040528092919081815260200182805461086090612ce5565b80156108ad5780601f10610882576101008083540402835291602001916108ad565b820191906000526020600020905b81548152906001019060200180831161089057829003601f168201915b505050505081526020016004820154815250508282856108cd9190612c9e565b815181106108dd576108dd612d91565b60200260200101819052505b806108f381612d20565b915050610574565b505b9b939850929650505050505050565b6000546001600160a01b0316331461093f5760405162461bcd60e51b815260040161093690612b8a565b60405180910390fd5b600080546040516001600160a01b039091169183156108fc02918491818181858888f19350505050158015610978573d6000803e3d6000fd5b5050565b6005543490811161099f5760405162461bcd60e51b815260040161093690612bb7565b6001600360008282546109b29190612c53565b9091555050336020808401919091526008805460018101825560009190915283518051859360049093027ff3f7a9fe364faab93b216da50a3214154f22a0a2b415b23a84c8169e8b636ee30192610a0d92849291019061237d565b506020828101516001830180546001600160a01b0319166001600160a01b0390921691909117905560408301518051610a4c926002850192019061237d565b5060608201518051610a6891600384019160209091019061237d565b50508251604051610a7992506129c7565b60405180910390207fec5967834de54498e5344fb90c3efb454a7571c5d74a4048daff5b161f1480dd83604051610ab09190612be1565b60405180910390a25050565b6000546001600160a01b03163314610ae65760405162461bcd60e51b815260040161093690612b8a565b600555565b6000546001600160a01b03163314610b155760405162461bcd60e51b815260040161093690612b8a565b600455565b60068181548110610b2a57600080fd5b9060005260206000209060050201600091509050806000018054610b4d90612ce5565b80601f0160208091040260200160405190810160405280929190818152602001828054610b7990612ce5565b8015610bc65780601f10610b9b57610100808354040283529160200191610bc6565b820191906000526020600020905b815481529060010190602001808311610ba957829003601f168201915b505050506001830154600284015460038501805494956001600160a01b039093169491935090610bf590612ce5565b80601f0160208091040260200160405190810160405280929190818152602001828054610c2190612ce5565b8015610c6e5780601f10610c4357610100808354040283529160200191610c6e565b820191906000526020600020905b815481529060010190602001808311610c5157829003601f168201915b5050505050908060040154905085565b60078181548110610b2a57600080fd5b600080826001600160a01b0316846001600160a01b03161015610cf1576040516bffffffffffffffffffffffff19606086811b8216602084015285901b166034820152604801604051602081830303815290604052805190602001209050610d33565b6040516bffffffffffffffffffffffff19606085811b8216602084015286901b1660348201526048016040516020818303038152906040528051906020012090505b9392505050565b6060600080600060606000806000610d548b8b338c612068565b929a5090985096509450610d6a8b8b8b33612068565b9a9e999d50979b509599509794969350505050565b6000546001600160a01b03163314610da95760405162461bcd60e51b815260040161093690612b8a565b600160036000828254610dbc9190612c9e565b90915550506008548110610dcd5750565b600854600090610ddf90600190612c9e565b905080821461108357600060088281548110610dfd57610dfd612d91565b9060005260206000209060040201604051806080016040529081600082018054610e2690612ce5565b80601f0160208091040260200160405190810160405280929190818152602001828054610e5290612ce5565b8015610e9f5780601f10610e7457610100808354040283529160200191610e9f565b820191906000526020600020905b815481529060010190602001808311610e8257829003601f168201915b505050918352505060018201546001600160a01b03166020820152600282018054604090920191610ecf90612ce5565b80601f0160208091040260200160405190810160405280929190818152602001828054610efb90612ce5565b8015610f485780601f10610f1d57610100808354040283529160200191610f48565b820191906000526020600020905b815481529060010190602001808311610f2b57829003601f168201915b50505050508152602001600382018054610f6190612ce5565b80601f0160208091040260200160405190810160405280929190818152602001828054610f8d90612ce5565b8015610fda5780601f10610faf57610100808354040283529160200191610fda565b820191906000526020600020905b815481529060010190602001808311610fbd57829003601f168201915b50505050508152505090508060088481548110610ff957610ff9612d91565b9060005260206000209060040201600082015181600001908051906020019061102392919061237d565b506020828101516001830180546001600160a01b0319166001600160a01b0390921691909117905560408301518051611062926002850192019061237d565b506060820151805161107e91600384019160209091019061237d565b505050505b600880548061109457611094612d7b565b600082815260208120600019909201916004830201906110b48282612401565b6001820180546001600160a01b03191690556110d4600283016000612401565b6110e2600383016000612401565b50509055505b50565b336000908152600b602052604081205460609190819081908161110e8783612c6b565b905061111a8783612d3b565b1561112d5761112a600182612c53565b90505b60008060606000851180156111425750838b11155b1561141c578a84141561117957600192508961115e848d612c9e565b6111689190612c7f565b6111729086612c9e565b91506111bd565b6111838a8c612c7f565b61118d9086612c9e565b611198906001612c53565b9250896111a660018d612c9e565b6111b09190612c7f565b6111ba9086612c9e565b91505b6111c78383612c9e565b6111d2906001612c53565b67ffffffffffffffff8111156111ea576111ea612da7565b60405190808252806020026020018201604052801561122357816020015b611210612345565b8152602001906001900390816112085790505b509050825b82811161141a57336000908152600b6020526040902060069061124c600184612c9e565b8154811061125c5761125c612d91565b90600052602060002001548154811061127757611277612d91565b90600052602060002090600502016040518060a00160405290816000820180546112a090612ce5565b80601f01602080910402602001604051908101604052809291908181526020018280546112cc90612ce5565b80156113195780601f106112ee57610100808354040283529160200191611319565b820191906000526020600020905b8154815290600101906020018083116112fc57829003601f168201915b505050918352505060018201546001600160a01b031660208201526002820154604082015260038201805460609092019161135390612ce5565b80601f016020809104026020016040519081016040528092919081815260200182805461137f90612ce5565b80156113cc5780601f106113a1576101008083540402835291602001916113cc565b820191906000526020600020905b8154815290600101906020018083116113af57829003601f168201915b505050505081526020016004820154815250508282856113ec9190612c9e565b815181106113fc576113fc612d91565b6020026020010181905250808061141290612d20565b915050611228565b505b9a9397509295505050505050565b600654821061144b5760405162461bcd60e51b815260040161093690612bb7565b600181151514156114dc576000828152600c6020908152604080832033845290915290205460ff161515600114156114b55760405162461bcd60e51b815260206004820152600d60248201526c616c65726479206170706c792160981b6044820152606401610936565b336000908152600b60209081526040822080546001810182559083529120018290556115aa565b336000908152600b60205260408120546114f890600190612c9e565b905080831461157457336000908152600b6020526040812080548390811061152257611522612d91565b9060005260206000200154905080600b6000336001600160a01b03166001600160a01b03168152602001908152602001600020858154811061156657611566612d91565b600091825260209091200155505b336000908152600b6020526040902080548061159257611592612d7b565b60019003818190600052602060002001600090559055505b6000828152600c6020908152604080832033808552908352818420805460ff1916861515179055600b90925291829020915190917fd51b4b91bea095998a7cfc1d03b6b205b71e6557d6b194c3dec8486bf87dba9a91610ab09190612ae2565b336000818152600a6020908152604080832080548251818502810185019093528083526060959492939192909184015b828210156117bb57838290600052602060002090600502016040518060a001604052908160008201805461166d90612ce5565b80601f016020809104026020016040519081016040528092919081815260200182805461169990612ce5565b80156116e65780601f106116bb576101008083540402835291602001916116e6565b820191906000526020600020905b8154815290600101906020018083116116c957829003601f168201915b505050918352505060018201546001600160a01b031660208201526002820154604082015260038201805460609092019161172090612ce5565b80601f016020809104026020016040519081016040528092919081815260200182805461174c90612ce5565b80156117995780601f1061176e57610100808354040283529160200191611799565b820191906000526020600020905b81548152906001019060200180831161177c57829003601f168201915b505050505081526020016004820154815250508152602001906001019061163a565b5050505091505090565b33600081815260096020908152604080832080548251818502810185019093528083526060959492939192909184015b828210156117bb57838290600052602060002090600502016040518060a001604052908160008201805461182890612ce5565b80601f016020809104026020016040519081016040528092919081815260200182805461185490612ce5565b80156118a15780601f10611876576101008083540402835291602001916118a1565b820191906000526020600020905b81548152906001019060200180831161188457829003601f168201915b505050918352505060018201546001600160a01b03166020820152600282015460408201526003820180546060909201916118db90612ce5565b80601f016020809104026020016040519081016040528092919081815260200182805461190790612ce5565b80156119545780601f1061192957610100808354040283529160200191611954565b820191906000526020600020905b81548152906001019060200180831161193757829003601f168201915b50505050508152602001600482015481525050815260200190600101906117f5565b60606008805480602002602001604051908101604052809291908181526020016000905b82821015611b9957838290600052602060002090600402016040518060800160405290816000820180546119cd90612ce5565b80601f01602080910402602001604051908101604052809291908181526020018280546119f990612ce5565b8015611a465780601f10611a1b57610100808354040283529160200191611a46565b820191906000526020600020905b815481529060010190602001808311611a2957829003601f168201915b505050918352505060018201546001600160a01b03166020820152600282018054604090920191611a7690612ce5565b80601f0160208091040260200160405190810160405280929190818152602001828054611aa290612ce5565b8015611aef5780601f10611ac457610100808354040283529160200191611aef565b820191906000526020600020905b815481529060010190602001808311611ad257829003601f168201915b50505050508152602001600382018054611b0890612ce5565b80601f0160208091040260200160405190810160405280929190818152602001828054611b3490612ce5565b8015611b815780601f10611b5657610100808354040283529160200191611b81565b820191906000526020600020905b815481529060010190602001808311611b6457829003601f168201915b5050505050815250508152602001906001019061199a565b50505050905090565b336000908152600d602090815260408083206001600160a01b038616845290915290205480611c02576040516001600160a01b0384169033907f1663016c33889fa81ad82335fc9b008d24271e82021df8fef5283594ea80a53d90600090a35b336000818152600d602090815260408083206001600160a01b038881168086529184528285208351608081018552968752868501928352429387019384526060870189815281546001818101845592885296869020885160049098020180549784166001600160a01b03199889161781559351918401805492909316919096161790559051600282015591518051611ca0926003850192019061237d565b5050506001600160a01b03831633611cb88186610c8e565b7f2db9875c34342965d55a36c9ca383e3de7de6c698886fa6d486735696d07fc0185604051611ce79190612b77565b60405180910390a4505050565b6000546001600160a01b03163314611d1e5760405162461bcd60e51b815260040161093690612b8a565b600080546001600160a01b0319166001600160a01b0392909216919091179055565b60045434908111611d635760405162461bcd60e51b815260040161093690612bb7565b3360208301524260408301526080820151611ec8576001806000828254611d8a9190612c53565b9091555050600680546001810182556000919091528251805184926005027ff652222313e28459528d920b65115c16c04f3efc82aaedc97be59f3f377c0d3f0191611dda9183916020019061237d565b506020828101516001830180546001600160a01b0319166001600160a01b039092169190911790556040830151600283015560608301518051611e23926003850192019061237d565b5060809190910151600490910155336000908152600960209081526040822080546001810182559083529181902084518051869460050290920192611e6d9284929091019061237d565b506020828101516001830180546001600160a01b0319166001600160a01b039092169190911790556040830151600283015560608301518051611eb6926003850192019061237d565b50608082015181600401555050612022565b81608001516001141561202257600160026000828254611ee89190612c53565b9091555050600780546001810182556000919091528251805184926005027fa66cc928b5edb82af9bd49922954155ab7b0942694bea4ce44661d9a8736c6880191611f389183916020019061237d565b506020828101516001830180546001600160a01b0319166001600160a01b039092169190911790556040830151600283015560608301518051611f81926003850192019061237d565b5060809190910151600490910155336000908152600a60209081526040822080546001810182559083529181902084518051869460050290920192611fcb9284929091019061237d565b506020828101516001830180546001600160a01b0319166001600160a01b039092169190911790556040830151600283015560608301518051612014926003850192019061237d565b506080820151816004015550505b815160405161203191906129c7565b60405180910390207fa0c1fa0005efa6fb8babc7a10ac04db09421a1165d41c54ae6eac5358368a13783604051610ab09190612bf4565b6001600160a01b038083166000908152600d602090815260408083209385168352929052908120546060919081908190816120a38983612c6b565b90506120af8983612d3b565b156120c2576120bf600182612c53565b90505b60008060606000851180156120d75750838d11155b15612335578c84141561210e57600192508b6120f3848f612c9e565b6120fd9190612c7f565b6121079086612c9e565b9150612152565b6121188c8e612c7f565b6121229086612c9e565b61212d906001612c53565b92508b61213b60018f612c9e565b6121459190612c7f565b61214f9086612c9e565b91505b61215c8383612c9e565b612167906001612c53565b67ffffffffffffffff81111561217f5761217f612da7565b6040519080825280602002602001820160405280156121d057816020015b604080516080810182526000808252602080830182905292820152606080820152825260001990920191018161219d5790505b509050825b828111612333576001600160a01b03808d166000908152600d60209081526040808320938f1683529290522061220c600183612c9e565b8154811061221c5761221c612d91565b600091825260209182902060408051608081018252600490930290910180546001600160a01b0390811684526001820154169383019390935260028301549082015260038201805491929160608401919061227690612ce5565b80601f01602080910402602001604051908101604052809291908181526020018280546122a290612ce5565b80156122ef5780601f106122c4576101008083540402835291602001916122ef565b820191906000526020600020905b8154815290600101906020018083116122d257829003601f168201915b5050505050815250508282856123059190612c9e565b8151811061231557612315612d91565b6020026020010181905250808061232b90612d20565b9150506121d5565b505b9c93995092975050505050505050565b6040518060a001604052806060815260200160006001600160a01b031681526020016000815260200160608152602001600081525090565b82805461238990612ce5565b90600052602060002090601f0160209004810192826123ab57600085556123f1565b82601f106123c457805160ff19168380011785556123f1565b828001600101855582156123f1579182015b828111156123f15782518255916020019190600101906123d6565b506123fd929150612437565b5090565b50805461240d90612ce5565b6000825580601f1061241d575050565b601f0160209004906000526020600020908101906110e891905b5b808211156123fd5760008155600101612438565b80356001600160a01b038116811461246357600080fd5b919050565b600082601f83011261247957600080fd5b813567ffffffffffffffff8082111561249457612494612da7565b604051601f8301601f19908116603f011681019082821181831017156124bc576124bc612da7565b816040528381528660208588010111156124d557600080fd5b836020870160208301376000602085830101528094505050505092915050565b60006020828403121561250757600080fd5b610d338261244c565b6000806040838503121561252357600080fd5b61252c8361244c565b915061253a6020840161244c565b90509250929050565b6000806040838503121561255657600080fd5b61255f8361244c565b9150602083013567ffffffffffffffff81111561257b57600080fd5b61258785828601612468565b9150509250929050565b6000602082840312156125a357600080fd5b813567ffffffffffffffff808211156125bb57600080fd5b90830190608082860312156125cf57600080fd5b6125d7612c07565b8235828111156125e657600080fd5b6125f287828601612468565b8252506126016020840161244c565b602082015260408301358281111561261857600080fd5b61262487828601612468565b60408301525060608301358281111561263c57600080fd5b61264887828601612468565b60608301525095945050505050565b60006020828403121561266957600080fd5b813567ffffffffffffffff8082111561268157600080fd5b9083019060a0828603121561269557600080fd5b61269d612c30565b8235828111156126ac57600080fd5b6126b887828601612468565b8252506126c76020840161244c565b6020820152604083013560408201526060830135828111156126e857600080fd5b6126f487828601612468565b6060830152506080830135608082015280935050505092915050565b60006020828403121561272257600080fd5b5035919050565b6000806040838503121561273c57600080fd5b8235915061253a6020840161244c565b6000806040838503121561275f57600080fd5b823591506020830135801515811461277657600080fd5b809150509250929050565b6000806040838503121561279457600080fd5b50508035926020909101359150565b6000806000606084860312156127b857600080fd5b83359250602084013591506127cf6040850161244c565b90509250925092565b6000806000606084860312156127ed57600080fd5b505081359360208301359350604090920135919050565b600081518084526020808501808196508360051b8101915082860160005b8581101561284c57828403895261283a848351612966565b98850198935090840190600101612822565b5091979650505050505050565b600081518084526020808501808196508360051b8101915082860160005b8581101561284c578284038952815180516001600160a01b039081168652868201511686860152604080820151908601526060908101516080918601829052906128c3818701836128d7565b9a87019a9550505090840190600101612877565b600081518084526128ef816020860160208601612cb5565b601f01601f19169290920160200192915050565b600081516080845261291860808501826128d7565b905060018060a01b0360208401511660208501526040830151848203604086015261294382826128d7565b9150506060830151848203606086015261295d82826128d7565b95945050505050565b6000815160a0845261297b60a08501826128d7565b905060018060a01b03602084015116602085015260408301516040850152606083015184820360608601526129b082826128d7565b915050608083015160808501528091505092915050565b600082516129d9818460208701612cb5565b9190910192915050565b6000602080830181845280855180835260408601915060408160051b870101925083870160005b82811015612a3857603f19888603018452612a26858351612903565b94509285019290850190600101612a0a565b5092979650505050505050565b602081526000610d336020830184612804565b608081526000612a6b6080830187612804565b6020830195909552506040810192909252606090910152919050565b6000610100808352612a9b8184018c612859565b90508960208401528860408401528760608401528281036080840152612ac18188612859565b60a0840196909652505060c081019290925260e09091015295945050505050565b6020808252825482820181905260008481528281209092916040850190845b81811015612b1d57835483526001938401939285019201612b01565b50909695505050505050565b60a081526000612b3c60a08301886128d7565b6001600160a01b0387166020840152604083018690528281036060840152612b6481866128d7565b9150508260808301529695505050505050565b602081526000610d3360208301846128d7565b6020808252601390820152725065726d697373696f6e2044656e696564202160681b604082015260600190565b60208082526010908201526f496e73756666696369656e742047415360801b604082015260600190565b602081526000610d336020830184612903565b602081526000610d336020830184612966565b6040516080810167ffffffffffffffff81118282101715612c2a57612c2a612da7565b60405290565b60405160a0810167ffffffffffffffff81118282101715612c2a57612c2a612da7565b60008219821115612c6657612c66612d4f565b500190565b600082612c7a57612c7a612d65565b500490565b6000816000190483118215151615612c9957612c99612d4f565b500290565b600082821015612cb057612cb0612d4f565b500390565b60005b83811015612cd0578181015183820152602001612cb8565b83811115612cdf576000848401525b50505050565b600181811c90821680612cf957607f821691505b60208210811415612d1a57634e487b7160e01b600052602260045260246000fd5b50919050565b6000600019821415612d3457612d34612d4f565b5060010190565b600082612d4a57612d4a612d65565b500690565b634e487b7160e01b600052601160045260246000fd5b634e487b7160e01b600052601260045260246000fd5b634e487b7160e01b600052603160045260246000fd5b634e487b7160e01b600052603260045260246000fd5b634e487b7160e01b600052604160045260246000fdfea2646970667358221220327e2cae4ae512579f83f09ef4ced7ec6cd9cf690701f6a6ec3bb1506d8d93dc64736f6c63430008070033",
  "linkReferences": {},
  "deployedLinkReferences": {}
}