{
  "_format": "hh-sol-artifact-1",
  "contractName": "Lottery",
  "sourceName": "contracts/randomlottery/Lottery.sol",
  "abi": [
    {
      "inputs": [
        {
          "internalType": "address",
          "name": "_tokenAddress",
          "type": "address"
        }
      ],
      "stateMutability": "nonpayable",
      "type": "constructor"
    },
    {
      "anonymous": false,
      "inputs": [
        {
          "indexed": true,
          "internalType": "address",
          "name": "previousOwner",
          "type": "address"
        },
        {
          "indexed": true,
          "internalType": "address",
          "name": "newOwner",
          "type": "address"
        }
      ],
      "name": "OwnershipTransferred",
      "type": "event"
    },
    {
      "anonymous": false,
      "inputs": [
        {
          "indexed": false,
          "internalType": "uint256",
          "name": "_epochIndex",
          "type": "uint256"
        },
        {
          "indexed": false,
          "internalType": "address",
          "name": "userAddress",
          "type": "address"
        },
        {
          "indexed": false,
          "internalType": "uint256",
          "name": "_nftBalance",
          "type": "uint256"
        },
        {
          "indexed": false,
          "internalType": "address",
          "name": "_nftAddress",
          "type": "address"
        }
      ],
      "name": "Place",
      "type": "event"
    },
    {
      "anonymous": false,
      "inputs": [
        {
          "indexed": false,
          "internalType": "uint256",
          "name": "_futureBlock",
          "type": "uint256"
        },
        {
          "indexed": false,
          "internalType": "bytes32",
          "name": "_blockHash",
          "type": "bytes32"
        },
        {
          "indexed": false,
          "internalType": "bytes32",
          "name": "seedHash",
          "type": "bytes32"
        },
        {
          "indexed": false,
          "internalType": "uint256",
          "name": "_random",
          "type": "uint256"
        },
        {
          "indexed": false,
          "internalType": "address",
          "name": "_randomAddress",
          "type": "address"
        },
        {
          "indexed": false,
          "internalType": "uint256",
          "name": "_epochIndex",
          "type": "uint256"
        },
        {
          "indexed": false,
          "internalType": "address[]",
          "name": "_address",
          "type": "address[]"
        },
        {
          "indexed": false,
          "internalType": "uint256",
          "name": "_time",
          "type": "uint256"
        }
      ],
      "name": "Reset",
      "type": "event"
    },
    {
      "anonymous": false,
      "inputs": [
        {
          "indexed": false,
          "internalType": "uint256",
          "name": "_epochIndex",
          "type": "uint256"
        },
        {
          "indexed": false,
          "internalType": "uint256",
          "name": "_futureBlock",
          "type": "uint256"
        },
        {
          "indexed": false,
          "internalType": "bool",
          "name": "_isSettle",
          "type": "bool"
        }
      ],
      "name": "Settle",
      "type": "event"
    },
    {
      "inputs": [],
      "name": "epochIndex",
      "outputs": [
        {
          "internalType": "uint256",
          "name": "",
          "type": "uint256"
        }
      ],
      "stateMutability": "view",
      "type": "function"
    },
    {
      "inputs": [],
      "name": "futureBlock",
      "outputs": [
        {
          "internalType": "uint256",
          "name": "",
          "type": "uint256"
        }
      ],
      "stateMutability": "view",
      "type": "function"
    },
    {
      "inputs": [],
      "name": "isSettle",
      "outputs": [
        {
          "internalType": "bool",
          "name": "",
          "type": "bool"
        }
      ],
      "stateMutability": "view",
      "type": "function"
    },
    {
      "inputs": [],
      "name": "owner",
      "outputs": [
        {
          "internalType": "address",
          "name": "",
          "type": "address"
        }
      ],
      "stateMutability": "view",
      "type": "function"
    },
    {
      "inputs": [],
      "name": "place",
      "outputs": [],
      "stateMutability": "nonpayable",
      "type": "function"
    },
    {
      "inputs": [],
      "name": "renounceOwnership",
      "outputs": [],
      "stateMutability": "nonpayable",
      "type": "function"
    },
    {
      "inputs": [],
      "name": "reset",
      "outputs": [],
      "stateMutability": "nonpayable",
      "type": "function"
    },
    {
      "inputs": [],
      "name": "setSettle",
      "outputs": [],
      "stateMutability": "nonpayable",
      "type": "function"
    },
    {
      "inputs": [],
      "name": "settle",
      "outputs": [
        {
          "internalType": "uint256",
          "name": "random",
          "type": "uint256"
        },
        {
          "internalType": "address",
          "name": "randomAddress",
          "type": "address"
        }
      ],
      "stateMutability": "view",
      "type": "function"
    },
    {
      "inputs": [],
      "name": "tokenAddress",
      "outputs": [
        {
          "internalType": "address",
          "name": "",
          "type": "address"
        }
      ],
      "stateMutability": "view",
      "type": "function"
    },
    {
      "inputs": [
        {
          "internalType": "address",
          "name": "newOwner",
          "type": "address"
        }
      ],
      "name": "transferOwnership",
      "outputs": [],
      "stateMutability": "nonpayable",
      "type": "function"
    },
    {
      "inputs": [
        {
          "internalType": "uint256",
          "name": "",
          "type": "uint256"
        },
        {
          "internalType": "uint256",
          "name": "",
          "type": "uint256"
        }
      ],
      "name": "uintAddressMap",
      "outputs": [
        {
          "internalType": "address",
          "name": "",
          "type": "address"
        }
      ],
      "stateMutability": "view",
      "type": "function"
    },
    {
      "inputs": [
        {
          "internalType": "uint256",
          "name": "",
          "type": "uint256"
        },
        {
          "internalType": "address",
          "name": "",
          "type": "address"
        }
      ],
      "name": "uintFlagMap",
      "outputs": [
        {
          "internalType": "bool",
          "name": "",
          "type": "bool"
        }
      ],
      "stateMutability": "view",
      "type": "function"
    }
  ],
  "bytecode": "0x60806040526002805460ff19169055600060065534801561001f57600080fd5b50604051610c5a380380610c5a83398101604081905261003e916100bb565b60006100486100b7565b600080546001600160a01b0319166001600160a01b0383169081178255604051929350917f8be0079c531659141344cd1fd0a4f28419497f9722a3daafe3b4186f6b6457e0908290a350600580546001600160a01b0319166001600160a01b03929092169190911790556100e9565b3390565b6000602082840312156100cc578081fd5b81516001600160a01b03811681146100e2578182fd5b9392505050565b610b62806100f86000396000f3fe608060405234801561001057600080fd5b50600436106100cf5760003560e01c806393cca9181161008c578063bd7d901a11610066578063bd7d901a1461015c578063d826f88f1461016f578063f2fde38b14610177578063f454d37b1461018a576100cf565b806393cca918146101445780639429684c1461014c5780639d76ea5814610154576100cf565b806306c106f9146100d457806311da60b4146100f25780633fc1fda514610108578063715018a614610112578063840f0e521461011a5780638da5cb5b1461012f575b600080fd5b6100dc61019d565b6040516100e99190610973565b60405180910390f35b6100fa6101a3565b6040516100e9929190610a05565b610110610295565b005b610110610375565b610122610421565b6040516100e99190610990565b61013761042a565b6040516100e9919061097c565b610110610439565b6100dc6105ae565b6101376105b4565b61012261016a366004610927565b6105c3565b6101106105e3565b6101106101853660046108ee565b610794565b610137610198366004610952565b610896565b60065481565b60008060015443116101d05760405162461bcd60e51b81526004016101c79061099b565b60405180910390fd5b60025460ff166101f25760405162461bcd60e51b81526004016101c7906109c1565b6101006001544303101561028a576000600154406040516020016102169190610973565b60408051601f19818403018152918152815160209283012060065460009081526003909352912054909150818161024957fe5b069250600360006006548152602001908152602001600020838154811061026c57fe5b6000918252602090912001546001600160a01b031691506102919050565b5060009050805b9091565b61029d6108ce565b6001600160a01b03166102ae61042a565b6001600160a01b0316146102f7576040805162461bcd60e51b81526020600482018190526024820152600080516020610b0d833981519152604482015290519081900360640190fd5b60025460ff161561031a5760405162461bcd60e51b81526004016101c7906109e2565b6002805460ff1916600190811780835543909201908190556006546040517f4a30f3e9ac83cc7a79dbaa9e2e3e35db774fe111e20d0ddbd46087997f68f9689361036b939160ff9190911690610ace565b60405180910390a1565b61037d6108ce565b6001600160a01b031661038e61042a565b6001600160a01b0316146103d7576040805162461bcd60e51b81526020600482018190526024820152600080516020610b0d833981519152604482015290519081900360640190fd5b600080546040516001600160a01b03909116907f8be0079c531659141344cd1fd0a4f28419497f9722a3daafe3b4186f6b6457e0908390a3600080546001600160a01b0319169055565b60025460ff1681565b6000546001600160a01b031690565b60025460ff161561045c5760405162461bcd60e51b81526004016101c7906109e2565b6005546040516370a0823160e01b81526000916001600160a01b0316906370a082319061048d90339060040161097c565b60206040518083038186803b1580156104a557600080fd5b505afa1580156104b9573d6000803e3d6000fd5b505050506040513d601f19601f820116820180604052508101906104dd919061090f565b905080156105ab57600654600090815260046020908152604080832033845290915290205460ff166105ab576006805460009081526003602090815260408083208054600181810183559185528385200180546001600160a01b03191633908117909155855485526004845282852081865290935292819020805460ff1916909317909255915460055491517fb2a3adcee2c1c56642be55723ca360b1c45db94bc06a13de4ca8dea61957aa30936105a293909186916001600160a01b031690610a1c565b60405180910390a15b50565b60015481565b6005546001600160a01b031681565b600460209081526000928352604080842090915290825290205460ff1681565b6105eb6108ce565b6001600160a01b03166105fc61042a565b6001600160a01b031614610645576040805162461bcd60e51b81526020600482018190526024820152600080516020610b0d833981519152604482015290519081900360640190fd5b60025460ff166106675760405162461bcd60e51b81526004016101c7906109c1565b60015443116106885760405162461bcd60e51b81526004016101c79061099b565b6002805460ff1916905560015461010043919091031015610789576000600154406040516020016106b99190610973565b60408051601f198184030181529181528151602092830120600654600090815260039093529082205490925082816106ed57fe5b0690506000600360006006548152602001908152602001600020828154811061071257fe5b6000918252602080832090910154600154600654808552600390935260409384902093516001600160a01b0390921694507f7fa0e808c9c276dd22c820cca0eea23f4290c7d08ab186c377e922fda425a8e99361077d93919283409289928992899291904290610a43565b60405180910390a15050505b600680546001019055565b61079c6108ce565b6001600160a01b03166107ad61042a565b6001600160a01b0316146107f6576040805162461bcd60e51b81526020600482018190526024820152600080516020610b0d833981519152604482015290519081900360640190fd5b6001600160a01b03811661083b5760405162461bcd60e51b8152600401808060200182810382526026815260200180610ae76026913960400191505060405180910390fd5b600080546040516001600160a01b03808516939216917f8be0079c531659141344cd1fd0a4f28419497f9722a3daafe3b4186f6b6457e091a3600080546001600160a01b0319166001600160a01b0392909216919091179055565b600360205281600052604060002081815481106108b257600080fd5b6000918252602090912001546001600160a01b03169150829050565b3390565b80356001600160a01b03811681146108e957600080fd5b919050565b6000602082840312156108ff578081fd5b610908826108d2565b9392505050565b600060208284031215610920578081fd5b5051919050565b60008060408385031215610939578081fd5b82359150610949602084016108d2565b90509250929050565b60008060408385031215610964578182fd5b50508035926020909101359150565b90815260200190565b6001600160a01b0391909116815260200190565b901515815260200190565b6020808252600c908201526b656e6f75676820626c6f636b60a01b604082015260600190565b6020808252600790820152661cd95d1d1b195960ca1b604082015260600190565b6020808252600990820152686e6f20736574746c6560b81b604082015260600190565b9182526001600160a01b0316602082015260400190565b9384526001600160a01b039283166020850152604084019190915216606082015260800190565b60006101008083018b845260208b818601528a604086015289606086015260018060a01b03808a1660808701528860a08701528360c08701528293508754808452610120870194508886528286209350855b81811015610ab3578454831686529483019460019485019401610a95565b505050505060e0929092019290925298975050505050505050565b9283526020830191909152151560408201526060019056fe4f776e61626c653a206e6577206f776e657220697320746865207a65726f20616464726573734f776e61626c653a2063616c6c6572206973206e6f7420746865206f776e6572a2646970667358221220cb7f056d56aa9bd642e2e72220bda1875d222f84aa0b15da139df854d395811364736f6c63430007060033",
  "linkReferences": {},
  "deployedLinkReferences": {}
}