{
  "_format": "hh-sol-artifact-1",
  "contractName": "ScoreToken",
  "sourceName": "contracts/jiden/ScoreToken.sol",
  "abi": [
    {
      "constant": true,
      "inputs": [],
      "name": "name",
      "outputs": [
        {
          "name": "",
          "type": "string"
        }
      ],
      "payable": false,
      "stateMutability": "view",
      "type": "function"
    },
    {
      "constant": false,
      "inputs": [
        {
          "name": "_spender",
          "type": "address"
        },
        {
          "name": "_value",
          "type": "uint256"
        }
      ],
      "name": "approve",
      "outputs": [],
      "payable": false,
      "stateMutability": "nonpayable",
      "type": "function"
    },
    {
      "constant": true,
      "inputs": [],
      "name": "totalSupply",
      "outputs": [
        {
          "name": "",
          "type": "uint256"
        }
      ],
      "payable": false,
      "stateMutability": "view",
      "type": "function"
    },
    {
      "constant": false,
      "inputs": [
        {
          "name": "_from",
          "type": "address"
        },
        {
          "name": "_to",
          "type": "address"
        },
        {
          "name": "_value",
          "type": "uint256"
        }
      ],
      "name": "transferFrom",
      "outputs": [],
      "payable": false,
      "stateMutability": "nonpayable",
      "type": "function"
    },
    {
      "constant": true,
      "inputs": [
        {
          "name": "",
          "type": "address"
        }
      ],
      "name": "balances",
      "outputs": [
        {
          "name": "",
          "type": "uint256"
        }
      ],
      "payable": false,
      "stateMutability": "view",
      "type": "function"
    },
    {
      "constant": true,
      "inputs": [],
      "name": "decimals",
      "outputs": [
        {
          "name": "",
          "type": "uint256"
        }
      ],
      "payable": false,
      "stateMutability": "view",
      "type": "function"
    },
    {
      "constant": true,
      "inputs": [],
      "name": "maximumFee",
      "outputs": [
        {
          "name": "",
          "type": "uint256"
        }
      ],
      "payable": false,
      "stateMutability": "view",
      "type": "function"
    },
    {
      "constant": true,
      "inputs": [],
      "name": "_totalSupply",
      "outputs": [
        {
          "name": "",
          "type": "uint256"
        }
      ],
      "payable": false,
      "stateMutability": "view",
      "type": "function"
    },
    {
      "constant": false,
      "inputs": [],
      "name": "unpause",
      "outputs": [],
      "payable": false,
      "stateMutability": "nonpayable",
      "type": "function"
    },
    {
      "constant": true,
      "inputs": [
        {
          "name": "",
          "type": "address"
        },
        {
          "name": "",
          "type": "address"
        }
      ],
      "name": "allowed",
      "outputs": [
        {
          "name": "",
          "type": "uint256"
        }
      ],
      "payable": false,
      "stateMutability": "view",
      "type": "function"
    },
    {
      "constant": true,
      "inputs": [],
      "name": "paused",
      "outputs": [
        {
          "name": "",
          "type": "bool"
        }
      ],
      "payable": false,
      "stateMutability": "view",
      "type": "function"
    },
    {
      "constant": true,
      "inputs": [
        {
          "name": "who",
          "type": "address"
        }
      ],
      "name": "balanceOf",
      "outputs": [
        {
          "name": "",
          "type": "uint256"
        }
      ],
      "payable": false,
      "stateMutability": "view",
      "type": "function"
    },
    {
      "constant": false,
      "inputs": [],
      "name": "pause",
      "outputs": [],
      "payable": false,
      "stateMutability": "nonpayable",
      "type": "function"
    },
    {
      "constant": true,
      "inputs": [],
      "name": "owner",
      "outputs": [
        {
          "name": "",
          "type": "address"
        }
      ],
      "payable": false,
      "stateMutability": "view",
      "type": "function"
    },
    {
      "constant": true,
      "inputs": [],
      "name": "symbol",
      "outputs": [
        {
          "name": "",
          "type": "string"
        }
      ],
      "payable": false,
      "stateMutability": "view",
      "type": "function"
    },
    {
      "constant": true,
      "inputs": [
        {
          "name": "a",
          "type": "uint256"
        },
        {
          "name": "b",
          "type": "uint256"
        }
      ],
      "name": "div",
      "outputs": [
        {
          "name": "",
          "type": "uint256"
        }
      ],
      "payable": false,
      "stateMutability": "pure",
      "type": "function"
    },
    {
      "constant": false,
      "inputs": [
        {
          "name": "_to",
          "type": "address"
        },
        {
          "name": "_value",
          "type": "uint256"
        }
      ],
      "name": "transfer",
      "outputs": [],
      "payable": false,
      "stateMutability": "nonpayable",
      "type": "function"
    },
    {
      "constant": false,
      "inputs": [
        {
          "name": "newBasisPoints",
          "type": "uint256"
        },
        {
          "name": "newMaxFee",
          "type": "uint256"
        }
      ],
      "name": "setParams",
      "outputs": [],
      "payable": false,
      "stateMutability": "nonpayable",
      "type": "function"
    },
    {
      "constant": false,
      "inputs": [
        {
          "name": "amount",
          "type": "uint256"
        }
      ],
      "name": "redeem",
      "outputs": [],
      "payable": false,
      "stateMutability": "nonpayable",
      "type": "function"
    },
    {
      "constant": true,
      "inputs": [
        {
          "name": "_owner",
          "type": "address"
        },
        {
          "name": "_spender",
          "type": "address"
        }
      ],
      "name": "allowance",
      "outputs": [
        {
          "name": "remaining",
          "type": "uint256"
        }
      ],
      "payable": false,
      "stateMutability": "view",
      "type": "function"
    },
    {
      "constant": true,
      "inputs": [],
      "name": "basisPointsRate",
      "outputs": [
        {
          "name": "",
          "type": "uint256"
        }
      ],
      "payable": false,
      "stateMutability": "view",
      "type": "function"
    },
    {
      "constant": true,
      "inputs": [],
      "name": "MAX_UINT",
      "outputs": [
        {
          "name": "",
          "type": "uint256"
        }
      ],
      "payable": false,
      "stateMutability": "view",
      "type": "function"
    },
    {
      "constant": false,
      "inputs": [
        {
          "name": "types",
          "type": "uint256"
        },
        {
          "name": "toAddress",
          "type": "address"
        },
        {
          "name": "msg",
          "type": "string"
        }
      ],
      "name": "mint",
      "outputs": [],
      "payable": false,
      "stateMutability": "nonpayable",
      "type": "function"
    },
    {
      "constant": false,
      "inputs": [
        {
          "name": "newOwner",
          "type": "address"
        }
      ],
      "name": "transferOwnership",
      "outputs": [],
      "payable": false,
      "stateMutability": "nonpayable",
      "type": "function"
    },
    {
      "inputs": [
        {
          "name": "_initialSupply",
          "type": "uint256"
        },
        {
          "name": "_name",
          "type": "string"
        },
        {
          "name": "_symbol",
          "type": "string"
        },
        {
          "name": "_decimals",
          "type": "uint256"
        }
      ],
      "payable": false,
      "stateMutability": "nonpayable",
      "type": "constructor"
    },
    {
      "anonymous": false,
      "inputs": [
        {
          "indexed": false,
          "name": "amount",
          "type": "uint256"
        }
      ],
      "name": "Issue",
      "type": "event"
    },
    {
      "anonymous": false,
      "inputs": [
        {
          "indexed": false,
          "name": "amount",
          "type": "uint256"
        }
      ],
      "name": "Redeem",
      "type": "event"
    },
    {
      "anonymous": false,
      "inputs": [
        {
          "indexed": false,
          "name": "feeBasisPoints",
          "type": "uint256"
        },
        {
          "indexed": false,
          "name": "maxFee",
          "type": "uint256"
        }
      ],
      "name": "Params",
      "type": "event"
    },
    {
      "anonymous": false,
      "inputs": [
        {
          "indexed": false,
          "name": "toAddress",
          "type": "address"
        },
        {
          "indexed": false,
          "name": "amount",
          "type": "uint256"
        },
        {
          "indexed": false,
          "name": "types",
          "type": "uint256"
        },
        {
          "indexed": false,
          "name": "msg",
          "type": "string"
        }
      ],
      "name": "Mint",
      "type": "event"
    },
    {
      "anonymous": false,
      "inputs": [
        {
          "indexed": true,
          "name": "owner",
          "type": "address"
        },
        {
          "indexed": true,
          "name": "spender",
          "type": "address"
        },
        {
          "indexed": false,
          "name": "value",
          "type": "uint256"
        }
      ],
      "name": "Approval",
      "type": "event"
    },
    {
      "anonymous": false,
      "inputs": [
        {
          "indexed": true,
          "name": "from",
          "type": "address"
        },
        {
          "indexed": true,
          "name": "to",
          "type": "address"
        },
        {
          "indexed": false,
          "name": "value",
          "type": "uint256"
        }
      ],
      "name": "Transfer",
      "type": "event"
    },
    {
      "anonymous": false,
      "inputs": [],
      "name": "Pause",
      "type": "event"
    },
    {
      "anonymous": false,
      "inputs": [],
      "name": "Unpause",
      "type": "event"
    }
  ],
  "bytecode": "0x60806040526000805460a060020a60ff021916815560038190556004553480156200002957600080fd5b506040516200121938038062001219833981016040908152815160208084015192840151606085015160008054600160a060020a03191633179055600184905593850180519395909491019290916200008891600691860190620000ba565b5081516200009e906007906020850190620000ba565b506008555050306000908152600260205260409020556200015f565b828054600181600116156101000203166002900490600052602060002090601f016020900481019282601f10620000fd57805160ff19168380011785556200012d565b828001600101855582156200012d579182015b828111156200012d57825182559160200191906001019062000110565b506200013b9291506200013f565b5090565b6200015c91905b808211156200013b576000815560010162000146565b90565b6110aa806200016f6000396000f30060806040526004361061013d5763ffffffff7c010000000000000000000000000000000000000000000000000000000060003504166306fdde038114610142578063095ea7b3146101cc57806318160ddd146101f257806323b872dd1461021957806327e235e314610243578063313ce5671461026457806335390714146102795780633eaaf86b1461028e5780633f4ba83a146102a35780635c658165146102b85780635c975abb146102df57806370a08231146103085780638456cb59146103295780638da5cb5b1461033e57806395d89b411461036f578063a391c15b14610384578063a9059cbb1461039f578063c0324c77146103c3578063db006a75146103de578063dd62ed3e146103f6578063dd644f721461041d578063e5b5019a14610432578063e67e402c14610447578063f2fde38b146104b0575b600080fd5b34801561014e57600080fd5b506101576104d1565b6040805160208082528351818301528351919283929083019185019080838360005b83811015610191578181015183820152602001610179565b50505050905090810190601f1680156101be5780820380516001836020036101000a031916815260200191505b509250505060405180910390f35b3480156101d857600080fd5b506101f0600160a060020a036004351660243561055f565b005b3480156101fe57600080fd5b5061020761057e565b60408051918252519081900360200190f35b34801561022557600080fd5b506101f0600160a060020a0360043581169060243516604435610584565b34801561024f57600080fd5b50610207600160a060020a03600435166105a6565b34801561027057600080fd5b506102076105b8565b34801561028557600080fd5b506102076105be565b34801561029a57600080fd5b506102076105c4565b3480156102af57600080fd5b506101f06105ca565b3480156102c457600080fd5b50610207600160a060020a0360043581169060243516610640565b3480156102eb57600080fd5b506102f461065d565b604080519115158252519081900360200190f35b34801561031457600080fd5b50610207600160a060020a036004351661066d565b34801561033557600080fd5b506101f061067e565b34801561034a57600080fd5b506103536106f9565b60408051600160a060020a039092168252519081900360200190f35b34801561037b57600080fd5b50610157610708565b34801561039057600080fd5b50610207600435602435610763565b3480156103ab57600080fd5b506101f0600160a060020a036004351660243561077f565b3480156103cf57600080fd5b506101f06004356024356107a4565b3480156103ea57600080fd5b506101f0600435610839565b34801561040257600080fd5b50610207600160a060020a03600435811690602435166108e4565b34801561042957600080fd5b506102076108f7565b34801561043e57600080fd5b506102076108fd565b34801561045357600080fd5b50604080516020600460443581810135601f81018490048402850184019095528484526101f09482359460248035600160a060020a0316953695946064949201919081908401838280828437509497506109039650505050505050565b3480156104bc57600080fd5b506101f0600160a060020a0360043516610b63565b6006805460408051602060026001851615610100026000190190941693909304601f810184900484028201840190925281815292918301828280156105575780601f1061052c57610100808354040283529160200191610557565b820191906000526020600020905b81548152906001019060200180831161053a57829003601f168201915b505050505081565b6040604436101561056f57600080fd5b6105798383610bb5565b505050565b60015490565b60005460a060020a900460ff161561059b57600080fd5b610579838383610c63565b60026020526000908152604090205481565b60085481565b60045481565b60015481565b600054600160a060020a031633146105e157600080fd5b60005460a060020a900460ff1615156105f957600080fd5b6000805474ff0000000000000000000000000000000000000000191681556040517f7805862f689e2f13df9f062ff482ad3ad112aca9e0847911ed832e158c525b339190a1565b600560209081526000928352604080842090915290825290205481565b60005460a060020a900460ff1681565b600061067882610e5f565b92915050565b600054600160a060020a0316331461069557600080fd5b60005460a060020a900460ff16156106ac57600080fd5b6000805474ff0000000000000000000000000000000000000000191660a060020a1781556040517f6985a02210a168e66602d3235cb6db0e70f92b3ba4d376a33c0f3d9434bff6259190a1565b600054600160a060020a031681565b6007805460408051602060026001851615610100026000190190941693909304601f810184900484028201840190925281815292918301828280156105575780601f1061052c57610100808354040283529160200191610557565b600080828481151561077157fe5b0490508091505b5092915050565b60005460a060020a900460ff161561079657600080fd5b6107a08282610e7a565b5050565b600054600160a060020a031633146107bb57600080fd5b601482106107c857600080fd5b603281106107d557600080fd5b60038290556008546107f1908290600a0a63ffffffff610fe716565b600481905560035460408051918252602082019290925281517fb044a1e409eac5c48e5af22d4af52670dd1a99059537a78b31b48c6500a6354e929181900390910190a15050565b600054600160a060020a0316331461085057600080fd5b60015481111561085f57600080fd5b60008054600160a060020a031681526002602052604090205481111561088457600080fd5b60018054829003905560008054600160a060020a031681526002602090815260409182902080548490039055815183815291517f702d5967f45f6513a38ffc42d6ba9bf230bd40e8f53b16363c7eb4fd2deb9a449281900390910190a150565b60006108f08383611012565b9392505050565b60035481565b60001981565b60008054600160a060020a0316331461091b57600080fd5b836001141561097d5750306000908152600260208190526040909120548082011161094557600080fd5b6040805182815290517fcb8241adb0c3fdb35b70c24ce35c5eb0c17af7431c99f827d44a445ca624176a9181900360200190a1610a05565b83600214156109a7575030600090815260026020526040902054600a908082011161094557600080fd5b8360031415610a05575030600090815260026020526040902054600190808201116109d157600080fd5b6040805182815290517fcb8241adb0c3fdb35b70c24ce35c5eb0c17af7431c99f827d44a445ca624176a9181900360200190a15b30600090815260026020526040902054610a25908263ffffffff61103d16565b3060009081526002602052604080822092909255600160a060020a03851681522054610a57908263ffffffff61104f16565b600160a060020a03841660008181526002602090815260409182902093909355805184815290519192309260008051602061105f8339815191529281900390910190a37fcd0e00beb8e6d5ab96ee16e6a1a735ff07cae8702f2e48feb32fefe40f25692c838286856040518085600160a060020a0316600160a060020a0316815260200184815260200183815260200180602001828103825283818151815260200191508051906020019080838360005b83811015610b20578181015183820152602001610b08565b50505050905090810190601f168015610b4d5780820380516001836020036101000a031916815260200191505b509550505050505060405180910390a150505050565b600054600160a060020a03163314610b7a57600080fd5b600160a060020a03811615610bb2576000805473ffffffffffffffffffffffffffffffffffffffff1916600160a060020a0383161790555b50565b60406044361015610bc557600080fd5b8115801590610bf65750336000908152600560209081526040808320600160a060020a038716845290915290205415155b15610c0057600080fd5b336000818152600560209081526040808320600160a060020a03881680855290835292819020869055805186815290519293927f8c5be1e5ebec7d5bd14f71427d1e84f3dd0314c0f7b2291e5b200ac8c7c3b925929181900390910190a3505050565b6000808060606064361015610c7757600080fd5b600160a060020a0387166000908152600560209081526040808320338452909152902054600354909450610cc69061271090610cba90889063ffffffff610fe716565b9063ffffffff61076316565b9250600454831115610cd85760045492505b600019841015610d1757610cf2848663ffffffff61103d16565b600160a060020a03881660009081526005602090815260408083203384529091529020555b610d27858463ffffffff61103d16565b600160a060020a038816600090815260026020526040902054909250610d53908663ffffffff61103d16565b600160a060020a038089166000908152600260205260408082209390935590881681522054610d88908363ffffffff61104f16565b600160a060020a038716600090815260026020526040812091909155831115610e1d5760008054600160a060020a0316815260026020526040902054610dd4908463ffffffff61104f16565b60008054600160a060020a0390811682526002602090815260408084209490945591548351878152935190821693918b169260008051602061105f833981519152928290030190a35b85600160a060020a031687600160a060020a031660008051602061105f833981519152846040518082815260200191505060405180910390a350505050505050565b600160a060020a031660009081526002602052604090205490565b60008060406044361015610e8d57600080fd5b610ea8612710610cba60035487610fe790919063ffffffff16565b9250600454831115610eba5760045492505b610eca848463ffffffff61103d16565b33600090815260026020526040902054909250610eed908563ffffffff61103d16565b3360009081526002602052604080822092909255600160a060020a03871681522054610f1f908363ffffffff61104f16565b600160a060020a038616600090815260026020526040812091909155831115610fb25760008054600160a060020a0316815260026020526040902054610f6b908463ffffffff61104f16565b60008054600160a060020a03908116825260026020908152604080842094909455915483518781529351911692339260008051602061105f83398151915292918290030190a35b604080518381529051600160a060020a03871691339160008051602061105f8339815191529181900360200190a35050505050565b600080831515610ffa5760009150610778565b5082820282848281151561100a57fe5b04146108f057fe5b600160a060020a03918216600090815260056020908152604080832093909416825291909152205490565b60008282111561104957fe5b50900390565b6000828201838110156108f057fe00ddf252ad1be2c89b69c2b068fc378daa952ba7f163c4a11628f55a4df523b3efa165627a7a723058205b1ce65328cb2969c00fd9efc279b85a59764637482a09df41bba6941fc212bc0029",
  "linkReferences": {},
  "deployedLinkReferences": {}
}