{
  "_format": "hh-sol-artifact-1",
  "contractName": "XCT",
  "sourceName": "contracts/xct/XCT.sol",
  "abi": [
    {
      "constant": true,
      "inputs": [],
      "name": "name",
      "outputs": [
        {
          "name": "",
          "type": "string"
        }
      ],
      "payable": false,
      "stateMutability": "view",
      "type": "function"
    },
    {
      "constant": false,
      "inputs": [
        {
          "name": "_spender",
          "type": "address"
        },
        {
          "name": "_value",
          "type": "uint256"
        }
      ],
      "name": "approve",
      "outputs": [],
      "payable": false,
      "stateMutability": "nonpayable",
      "type": "function"
    },
    {
      "constant": true,
      "inputs": [],
      "name": "totalSupply",
      "outputs": [
        {
          "name": "",
          "type": "uint256"
        }
      ],
      "payable": false,
      "stateMutability": "view",
      "type": "function"
    },
    {
      "constant": false,
      "inputs": [
        {
          "name": "_from",
          "type": "address"
        },
        {
          "name": "_to",
          "type": "address"
        },
        {
          "name": "_value",
          "type": "uint256"
        }
      ],
      "name": "transferFrom",
      "outputs": [],
      "payable": false,
      "stateMutability": "nonpayable",
      "type": "function"
    },
    {
      "constant": true,
      "inputs": [
        {
          "name": "",
          "type": "address"
        }
      ],
      "name": "balances",
      "outputs": [
        {
          "name": "",
          "type": "uint256"
        }
      ],
      "payable": false,
      "stateMutability": "view",
      "type": "function"
    },
    {
      "constant": false,
      "inputs": [
        {
          "name": "_target",
          "type": "address"
        },
        {
          "name": "_freezeAmount",
          "type": "uint256"
        }
      ],
      "name": "freezeAccount",
      "outputs": [],
      "payable": false,
      "stateMutability": "nonpayable",
      "type": "function"
    },
    {
      "constant": true,
      "inputs": [],
      "name": "decimals",
      "outputs": [
        {
          "name": "",
          "type": "uint256"
        }
      ],
      "payable": false,
      "stateMutability": "view",
      "type": "function"
    },
    {
      "constant": true,
      "inputs": [],
      "name": "maximumFee",
      "outputs": [
        {
          "name": "",
          "type": "uint256"
        }
      ],
      "payable": false,
      "stateMutability": "view",
      "type": "function"
    },
    {
      "constant": false,
      "inputs": [],
      "name": "unpause",
      "outputs": [],
      "payable": false,
      "stateMutability": "nonpayable",
      "type": "function"
    },
    {
      "constant": true,
      "inputs": [
        {
          "name": "",
          "type": "address"
        },
        {
          "name": "",
          "type": "address"
        }
      ],
      "name": "allowed",
      "outputs": [
        {
          "name": "",
          "type": "uint256"
        }
      ],
      "payable": false,
      "stateMutability": "view",
      "type": "function"
    },
    {
      "constant": true,
      "inputs": [],
      "name": "paused",
      "outputs": [
        {
          "name": "",
          "type": "bool"
        }
      ],
      "payable": false,
      "stateMutability": "view",
      "type": "function"
    },
    {
      "constant": true,
      "inputs": [
        {
          "name": "who",
          "type": "address"
        }
      ],
      "name": "balanceOf",
      "outputs": [
        {
          "name": "",
          "type": "uint256"
        }
      ],
      "payable": false,
      "stateMutability": "view",
      "type": "function"
    },
    {
      "constant": false,
      "inputs": [
        {
          "name": "_amount",
          "type": "uint256"
        },
        {
          "name": "_id",
          "type": "uint256"
        }
      ],
      "name": "redeem",
      "outputs": [],
      "payable": false,
      "stateMutability": "nonpayable",
      "type": "function"
    },
    {
      "constant": false,
      "inputs": [],
      "name": "pause",
      "outputs": [],
      "payable": false,
      "stateMutability": "nonpayable",
      "type": "function"
    },
    {
      "constant": true,
      "inputs": [],
      "name": "owner",
      "outputs": [
        {
          "name": "",
          "type": "address"
        }
      ],
      "payable": false,
      "stateMutability": "view",
      "type": "function"
    },
    {
      "constant": true,
      "inputs": [],
      "name": "symbol",
      "outputs": [
        {
          "name": "",
          "type": "string"
        }
      ],
      "payable": false,
      "stateMutability": "view",
      "type": "function"
    },
    {
      "constant": false,
      "inputs": [
        {
          "name": "_to",
          "type": "address"
        },
        {
          "name": "_value",
          "type": "uint256"
        }
      ],
      "name": "transfer",
      "outputs": [],
      "payable": false,
      "stateMutability": "nonpayable",
      "type": "function"
    },
    {
      "constant": true,
      "inputs": [
        {
          "name": "",
          "type": "address"
        }
      ],
      "name": "frozenAccount",
      "outputs": [
        {
          "name": "",
          "type": "uint256"
        }
      ],
      "payable": false,
      "stateMutability": "view",
      "type": "function"
    },
    {
      "constant": false,
      "inputs": [
        {
          "name": "newBasisPoints",
          "type": "uint256"
        },
        {
          "name": "newMaxFee",
          "type": "uint256"
        }
      ],
      "name": "setParams",
      "outputs": [],
      "payable": false,
      "stateMutability": "nonpayable",
      "type": "function"
    },
    {
      "constant": false,
      "inputs": [
        {
          "name": "_address",
          "type": "address"
        },
        {
          "name": "_amount",
          "type": "uint256"
        },
        {
          "name": "_msg",
          "type": "string"
        }
      ],
      "name": "mint",
      "outputs": [],
      "payable": false,
      "stateMutability": "nonpayable",
      "type": "function"
    },
    {
      "constant": true,
      "inputs": [
        {
          "name": "_owner",
          "type": "address"
        },
        {
          "name": "_spender",
          "type": "address"
        }
      ],
      "name": "allowance",
      "outputs": [
        {
          "name": "remaining",
          "type": "uint256"
        }
      ],
      "payable": false,
      "stateMutability": "view",
      "type": "function"
    },
    {
      "constant": true,
      "inputs": [],
      "name": "basisPointsRate",
      "outputs": [
        {
          "name": "",
          "type": "uint256"
        }
      ],
      "payable": false,
      "stateMutability": "view",
      "type": "function"
    },
    {
      "constant": true,
      "inputs": [],
      "name": "MAX_UINT",
      "outputs": [
        {
          "name": "",
          "type": "uint256"
        }
      ],
      "payable": false,
      "stateMutability": "view",
      "type": "function"
    },
    {
      "constant": false,
      "inputs": [
        {
          "name": "newOwner",
          "type": "address"
        }
      ],
      "name": "transferOwnership",
      "outputs": [],
      "payable": false,
      "stateMutability": "nonpayable",
      "type": "function"
    },
    {
      "inputs": [],
      "payable": false,
      "stateMutability": "nonpayable",
      "type": "constructor"
    },
    {
      "anonymous": false,
      "inputs": [
        {
          "indexed": true,
          "name": "target",
          "type": "address"
        },
        {
          "indexed": false,
          "name": "frozen",
          "type": "uint256"
        }
      ],
      "name": "FrozenAccount",
      "type": "event"
    },
    {
      "anonymous": false,
      "inputs": [
        {
          "indexed": false,
          "name": "amount",
          "type": "uint256"
        }
      ],
      "name": "Issue",
      "type": "event"
    },
    {
      "anonymous": false,
      "inputs": [
        {
          "indexed": false,
          "name": "amount",
          "type": "uint256"
        },
        {
          "indexed": false,
          "name": "id",
          "type": "uint256"
        }
      ],
      "name": "Redeem",
      "type": "event"
    },
    {
      "anonymous": false,
      "inputs": [
        {
          "indexed": false,
          "name": "feeBasisPoints",
          "type": "uint256"
        },
        {
          "indexed": false,
          "name": "maxFee",
          "type": "uint256"
        }
      ],
      "name": "Params",
      "type": "event"
    },
    {
      "anonymous": false,
      "inputs": [
        {
          "indexed": false,
          "name": "_address",
          "type": "address"
        },
        {
          "indexed": false,
          "name": "_amount",
          "type": "uint256"
        },
        {
          "indexed": false,
          "name": "_msg",
          "type": "string"
        }
      ],
      "name": "Mint",
      "type": "event"
    },
    {
      "anonymous": false,
      "inputs": [
        {
          "indexed": true,
          "name": "owner",
          "type": "address"
        },
        {
          "indexed": true,
          "name": "spender",
          "type": "address"
        },
        {
          "indexed": false,
          "name": "value",
          "type": "uint256"
        }
      ],
      "name": "Approval",
      "type": "event"
    },
    {
      "anonymous": false,
      "inputs": [
        {
          "indexed": true,
          "name": "from",
          "type": "address"
        },
        {
          "indexed": true,
          "name": "to",
          "type": "address"
        },
        {
          "indexed": false,
          "name": "value",
          "type": "uint256"
        }
      ],
      "name": "Transfer",
      "type": "event"
    },
    {
      "anonymous": false,
      "inputs": [],
      "name": "Pause",
      "type": "event"
    },
    {
      "anonymous": false,
      "inputs": [],
      "name": "Unpause",
      "type": "event"
    }
  ],
  "bytecode": "0x6000805460a060020a60ff0219168155600281905560035560c0604052601560808190527fe4babae6b091e5b881e4bba3e5b881285445535429000000000000000000000060a0908152620000589160059190620000d0565b506040805180820190915260088082527f434e59205445535400000000000000000000000000000000000000000000000060209092019182526200009f91600691620000d0565b5060026007556000600855348015620000b757600080fd5b5060008054600160a060020a0319163317905562000175565b828054600181600116156101000203166002900490600052602060002090601f016020900481019282601f106200011357805160ff191683800117855562000143565b8280016001018555821562000143579182015b828111156200014357825182559160200191906001019062000126565b506200015192915062000155565b5090565b6200017291905b808211156200015157600081556001016200015c565b90565b61177f80620001856000396000f30060806040526004361061013d5763ffffffff7c010000000000000000000000000000000000000000000000000000000060003504166306fdde038114610142578063095ea7b3146101cc57806318160ddd146101f257806323b872dd1461021957806327e235e31461024357806329846afe14610264578063313ce56714610288578063353907141461029d5780633f4ba83a146102b25780635c658165146102c75780635c975abb146102ee57806370a08231146103175780637cbc2373146103385780638456cb59146103535780638da5cb5b1461036857806395d89b4114610399578063a9059cbb146103ae578063b414d4b6146103d2578063c0324c77146103f3578063d3fc98641461040e578063dd62ed3e14610477578063dd644f721461049e578063e5b5019a146104b3578063f2fde38b146104c8575b600080fd5b34801561014e57600080fd5b506101576104e9565b6040805160208082528351818301528351919283929083019185019080838360005b83811015610191578181015183820152602001610179565b50505050905090810190601f1680156101be5780820380516001836020036101000a031916815260200191505b509250505060405180910390f35b3480156101d857600080fd5b506101f0600160a060020a0360043516602435610577565b005b3480156101fe57600080fd5b506102076105c9565b60408051918252519081900360200190f35b34801561022557600080fd5b506101f0600160a060020a03600435811690602435166044356105cf565b34801561024f57600080fd5b50610207600160a060020a036004351661077a565b34801561027057600080fd5b506101f0600160a060020a036004351660243561078c565b34801561029457600080fd5b50610207610830565b3480156102a957600080fd5b50610207610836565b3480156102be57600080fd5b506101f061083c565b3480156102d357600080fd5b50610207600160a060020a0360043581169060243516610936565b3480156102fa57600080fd5b50610303610953565b604080519115158252519081900360200190f35b34801561032357600080fd5b50610207600160a060020a0360043516610963565b34801561034457600080fd5b506101f0600435602435610974565b34801561035f57600080fd5b506101f0610ab9565b34801561037457600080fd5b5061037d610bb8565b60408051600160a060020a039092168252519081900360200190f35b3480156103a557600080fd5b50610157610bc7565b3480156103ba57600080fd5b506101f0600160a060020a0360043516602435610c22565b3480156103de57600080fd5b50610207600160a060020a0360043516610d9a565b3480156103ff57600080fd5b506101f0600435602435610dac565b34801561041a57600080fd5b50604080516020600460443581810135601f81018490048402850184019095528484526101f0948235600160a060020a0316946024803595369594606494920191908190840183828082843750949750610f109650505050505050565b34801561048357600080fd5b50610207600160a060020a03600435811690602435166110c6565b3480156104aa57600080fd5b506102076110d9565b3480156104bf57600080fd5b506102076110df565b3480156104d457600080fd5b506101f0600160a060020a03600435166110e5565b6005805460408051602060026001851615610100026000190190941693909304601f8101849004840282018401909252818152929183018282801561056f5780601f106105445761010080835404028352916020019161056f565b820191906000526020600020905b81548152906001019060200180831161055257829003601f168201915b505050505081565b604060443610156105ba576040805160e560020a62461bcd028152602060048201526002602482015260f160020a61181702604482015290519081900360640190fd5b6105c48383611170565b505050565b60085490565b60005460a060020a900460ff1615610631576040805160e560020a62461bcd02815260206004820152600860248201527f756e706175736564000000000000000000000000000000000000000000000000604482015290519081900360640190fd5b828160008061065d6127106106516002548661129c90919063ffffffff16565b9063ffffffff6112d216565b915060035482111561066f5760035491505b6106a7610682848463ffffffff6112e916565b600160a060020a0386166000908152600160205260409020549063ffffffff6112e916565b600160a060020a038516600090815260096020526040902054909150811015610766576040805160e560020a62461bcd02815260206004820152604560248201527f5061727469616c2066726f7a656e2062616c616e6365206f662074686520616360448201527f636f756e74206973206e6f7420617661696c61626c6520666f72206f7065726160648201527f74696f6e2e000000000000000000000000000000000000000000000000000000608482015290519081900360a40190fd5b6107718787876112fb565b50505050505050565b60016020526000908152604090205481565b600054600160a060020a031633146107dc576040805160e560020a62461bcd0281526020600482015260096024820152600080516020611734833981519152604482015290519081900360640190fd5b600160a060020a038216600081815260096020908152604091829020849055815184815291517f039b90a557d32a5b985ccb22428add51a043589873bc70349675b53a2e4ce3f49281900390910190a25050565b60075481565b60035481565b600054600160a060020a0316331461088c576040805160e560020a62461bcd0281526020600482015260096024820152600080516020611734833981519152604482015290519081900360640190fd5b60005460a060020a900460ff1615156108ef576040805160e560020a62461bcd02815260206004820152600660248201527f7061757365640000000000000000000000000000000000000000000000000000604482015290519081900360640190fd5b6000805474ff0000000000000000000000000000000000000000191681556040517f7805862f689e2f13df9f062ff482ad3ad112aca9e0847911ed832e158c525b339190a1565b600460209081526000928352604080842090915290825290205481565b60005460a060020a900460ff1681565b600061096e8261151e565b92915050565b6008548211156109ce576040805160e560020a62461bcd02815260206004820152601760248201527f5f746f74616c537570706c79203e3d205f616d6f756e74000000000000000000604482015290519081900360640190fd5b33600090815260016020526040902054821115610a35576040805160e560020a62461bcd02815260206004820152601f60248201527f62616c616e6365735b6d73672e73656e6465725d203e3d205f616d6f756e7400604482015290519081900360640190fd5b6008805483900390553360008181526001602090815260408083208054879003905580518681529051929392600080516020611714833981519152929181900390910190a3604080518381526020810183905281517fe3829d5463fae0f748d927f86f762044188c9ce53d91a394eb93e98354cc3092929181900390910190a15050565b600054600160a060020a03163314610b09576040805160e560020a62461bcd0281526020600482015260096024820152600080516020611734833981519152604482015290519081900360640190fd5b60005460a060020a900460ff1615610b6b576040805160e560020a62461bcd02815260206004820152600860248201527f756e706175736564000000000000000000000000000000000000000000000000604482015290519081900360640190fd5b6000805474ff0000000000000000000000000000000000000000191660a060020a1781556040517f6985a02210a168e66602d3235cb6db0e70f92b3ba4d376a33c0f3d9434bff6259190a1565b600054600160a060020a031681565b6006805460408051602060026001851615610100026000190190941693909304601f8101849004840282018401909252818152929183018282801561056f5780601f106105445761010080835404028352916020019161056f565b60005460a060020a900460ff1615610c84576040805160e560020a62461bcd02815260206004820152600860248201527f756e706175736564000000000000000000000000000000000000000000000000604482015290519081900360640190fd5b3381600080610ca46127106106516002548661129c90919063ffffffff16565b9150600354821115610cb65760035491505b610cc9610682848463ffffffff6112e916565b600160a060020a038516600090815260096020526040902054909150811015610d88576040805160e560020a62461bcd02815260206004820152604560248201527f5061727469616c2066726f7a656e2062616c616e6365206f662074686520616360448201527f636f756e74206973206e6f7420617661696c61626c6520666f72206f7065726160648201527f74696f6e2e000000000000000000000000000000000000000000000000000000608482015290519081900360a40190fd5b610d928686611539565b505050505050565b60096020526000908152604090205481565b600054600160a060020a03163314610dfc576040805160e560020a62461bcd0281526020600482015260096024820152600080516020611734833981519152604482015290519081900360640190fd5b60148210610e54576040805160e560020a62461bcd02815260206004820152601360248201527f6e65774261736973506f696e7473203c20323000000000000000000000000000604482015290519081900360640190fd5b60328110610eac576040805160e560020a62461bcd02815260206004820152600e60248201527f6e65774d6178466565203c203530000000000000000000000000000000000000604482015290519081900360640190fd5b6002829055600754610ec8908290600a0a63ffffffff61129c16565b600381905560025460408051918252602082019290925281517fb044a1e409eac5c48e5af22d4af52670dd1a99059537a78b31b48c6500a6354e929181900390910190a15050565b600054600160a060020a03163314610f60576040805160e560020a62461bcd0281526020600482015260096024820152600080516020611734833981519152604482015290519081900360640190fd5b60088054830190556040805183815290517fcb8241adb0c3fdb35b70c24ce35c5eb0c17af7431c99f827d44a445ca624176a9181900360200190a1600160a060020a038316600090815260016020526040902054610fc4908363ffffffff6116d916565b600160a060020a03841660008181526001602090815260408083209490945583518681529351929391926000805160206117148339815191529281900390910190a37f85a66b9141978db9980f7e0ce3b468cebf4f7999f32b23091c5c03e798b1ba7a8383836040518084600160a060020a0316600160a060020a0316815260200183815260200180602001828103825283818151815260200191508051906020019080838360005b8381101561108557818101518382015260200161106d565b50505050905090810190601f1680156110b25780820380516001836020036101000a031916815260200191505b5094505050505060405180910390a1505050565b60006110d283836116e8565b9392505050565b60025481565b60001981565b600054600160a060020a03163314611135576040805160e560020a62461bcd0281526020600482015260096024820152600080516020611734833981519152604482015290519081900360640190fd5b600160a060020a0381161561116d576000805473ffffffffffffffffffffffffffffffffffffffff1916600160a060020a0383161790555b50565b604060443610156111b3576040805160e560020a62461bcd028152602060048201526002602482015260f160020a61181702604482015290519081900360640190fd5b81158015906111e45750336000908152600460209081526040808320600160a060020a038716845290915290205415155b15611239576040805160e560020a62461bcd02815260206004820152600260248201527f312e000000000000000000000000000000000000000000000000000000000000604482015290519081900360640190fd5b336000818152600460209081526040808320600160a060020a03881680855290835292819020869055805186815290519293927f8c5be1e5ebec7d5bd14f71427d1e84f3dd0314c0f7b2291e5b200ac8c7c3b925929181900390910190a3505050565b6000808315156112af57600091506112cb565b508282028284828115156112bf57fe5b04146112c757fe5b8091505b5092915050565b60008082848115156112e057fe5b04949350505050565b6000828211156112f557fe5b50900390565b6000808060606064361015611342576040805160e560020a62461bcd028152602060048201526002602482015260f160020a61181702604482015290519081900360640190fd5b600160a060020a0387166000908152600460209081526040808320338452909152902054600254909450611385906127109061065190889063ffffffff61129c16565b92506003548311156113975760035492505b6000198410156113d6576113b1848663ffffffff6112e916565b600160a060020a03881660009081526004602090815260408083203384529091529020555b6113e6858463ffffffff6112e916565b600160a060020a038816600090815260016020526040902054909250611412908663ffffffff6112e916565b600160a060020a038089166000908152600160205260408082209390935590881681522054611447908363ffffffff6116d916565b600160a060020a0387166000908152600160205260408120919091558311156114dc5760008054600160a060020a0316815260016020526040902054611493908463ffffffff6116d916565b60008054600160a060020a0390811682526001602090815260408084209490945591548351878152935190821693918b1692600080516020611714833981519152928290030190a35b85600160a060020a031687600160a060020a0316600080516020611714833981519152846040518082815260200191505060405180910390a350505050505050565b600160a060020a031660009081526001602052604090205490565b6000806040604436101561157f576040805160e560020a62461bcd028152602060048201526002602482015260f160020a61181702604482015290519081900360640190fd5b61159a6127106106516002548761129c90919063ffffffff16565b92506003548311156115ac5760035492505b6115bc848463ffffffff6112e916565b336000908152600160205260409020549092506115df908563ffffffff6112e916565b3360009081526001602052604080822092909255600160a060020a03871681522054611611908363ffffffff6116d916565b600160a060020a0386166000908152600160205260408120919091558311156116a45760008054600160a060020a031681526001602052604090205461165d908463ffffffff6116d916565b60008054600160a060020a03908116825260016020908152604080842094909455915483518781529351911692339260008051602061171483398151915292918290030190a35b604080518381529051600160a060020a0387169133916000805160206117148339815191529181900360200190a35050505050565b6000828201838110156112c757fe5b600160a060020a039182166000908152600460209081526040808320939094168252919091522054905600ddf252ad1be2c89b69c2b068fc378daa952ba7f163c4a11628f55a4df523b3ef6f6e6c794f776e65720000000000000000000000000000000000000000000000a165627a7a723058206f49e72951eb3815fda5b3caff2cbfbab4776be709a10e360701d429c1090fb30029",
  "linkReferences": {},
  "deployedLinkReferences": {}
}